{"abi":[{"inputs":[],"stateMutability":"nonpayable","type":"constructor"},{"inputs":[{"internalType":"address","name":"_address","type":"address"}],"name":"addDoctor","outputs":[],"stateMutability":"nonpayable","type":"function"},{"inputs":[{"internalType":"address","name":"_add","type":"address"}],"name":"getAddressLogs","outputs":[{"components":[{"internalType":"address","name":"add","type":"address"},{"internalType":"string","name":"activity","type":"string"},{"internalType":"string","name":"dateAndTime","type":"string"}],"internalType":"struct DoctorVerificator.Logs[]","name":"_logs","type":"tuple[]"}],"stateMutability":"view","type":"function"},{"inputs":[],"name":"getAllDoctors","outputs":[{"internalType":"address[]","name":"_address","type":"address[]"}],"stateMutability":"view","type":"function"},{"inputs":[{"components":[{"internalType":"address","name":"add","type":"address"},{"internalType":"string","name":"activity","type":"string"},{"internalType":"string","name":"dateAndTime","type":"string"}],"internalType":"struct DoctorVerificator.Logs","name":"_logs","type":"tuple"}],"name":"logThis","outputs":[],"stateMutability":"nonpayable","type":"function"},{"inputs":[{"internalType":"address","name":"_address","type":"address"}],"name":"verify","outputs":[{"internalType":"bool","name":"_bool","type":"bool"}],"stateMutability":"view","type":"function"}],"devdoc":{"kind":"dev","methods":{},"version":1},"evm":{"assembly":"    /* \"AccessControl.sol\":898:2393  contract DoctorVerificator {... */\n  mstore(0x40, 0x80)\n    /* \"AccessControl.sol\":1205:1256  constructor() {... */\n  callvalue\n  dup1\n  iszero\n  tag_1\n  jumpi\n  0x00\n  dup1\n  revert\ntag_1:\n  pop\n    /* \"AccessControl.sol\":1238:1248  msg.sender */\n  caller\n    /* \"AccessControl.sol\":1230:1235  admin */\n  0x00\n  dup1\n    /* \"AccessControl.sol\":1230:1248  admin = msg.sender */\n  0x0100\n  exp\n  dup2\n  sload\n  dup2\n  0xffffffffffffffffffffffffffffffffffffffff\n  mul\n  not\n  and\n  swap1\n  dup4\n  0xffffffffffffffffffffffffffffffffffffffff\n  and\n  mul\n  or\n  swap1\n  sstore\n  pop\n    /* \"AccessControl.sol\":898:2393  contract DoctorVerificator {... */\n  dataSize(sub_0)\n  dup1\n  dataOffset(sub_0)\n  0x00\n  codecopy\n  0x00\n  return\nstop\n\nsub_0: assembly {\n        /* \"AccessControl.sol\":898:2393  contract DoctorVerificator {... */\n      mstore(0x40, 0x80)\n      callvalue\n      dup1\n      iszero\n      tag_1\n      jumpi\n      0x00\n      dup1\n      revert\n    tag_1:\n      pop\n      jumpi(tag_2, lt(calldatasize, 0x04))\n      shr(0xe0, calldataload(0x00))\n      dup1\n      0x4780468f\n      eq\n      tag_3\n      jumpi\n      dup1\n      0x63a9c3d7\n      eq\n      tag_4\n      jumpi\n      dup1\n      0xa12cfd2e\n      eq\n      tag_5\n      jumpi\n      dup1\n      0xe8dea6ae\n      eq\n      tag_6\n      jumpi\n      dup1\n      0xf0d95090\n      eq\n      tag_7\n      jumpi\n    tag_2:\n      0x00\n      dup1\n      revert\n        /* \"AccessControl.sol\":1264:1442  function addDoctor(address _address) onlyAdmin public {... */\n    tag_3:\n      tag_8\n      0x04\n      dup1\n      calldatasize\n      sub\n      dup2\n      add\n      swap1\n      tag_9\n      swap2\n      swap1\n      tag_10\n      jump\t// in\n    tag_9:\n      tag_11\n      jump\t// in\n    tag_8:\n      stop\n        /* \"AccessControl.sol\":1450:1648  function verify(address _address) onlyAdmin public view returns(bool _bool) {... */\n    tag_4:\n      tag_12\n      0x04\n      dup1\n      calldatasize\n      sub\n      dup2\n      add\n      swap1\n      tag_13\n      swap2\n      swap1\n      tag_10\n      jump\t// in\n    tag_13:\n      tag_14\n      jump\t// in\n    tag_12:\n      mload(0x40)\n      tag_15\n      swap2\n      swap1\n      tag_16\n      jump\t// in\n    tag_15:\n      mload(0x40)\n      dup1\n      swap2\n      sub\n      swap1\n      return\n        /* \"AccessControl.sol\":2036:2161  function getAddressLogs(address _add) onlyAdmin public view returns(Logs[] memory _logs) {... */\n    tag_5:\n      tag_17\n      0x04\n      dup1\n      calldatasize\n      sub\n      dup2\n      add\n      swap1\n      tag_18\n      swap2\n      swap1\n      tag_10\n      jump\t// in\n    tag_18:\n      tag_19\n      jump\t// in\n    tag_17:\n      mload(0x40)\n      tag_20\n      swap2\n      swap1\n      tag_21\n      jump\t// in\n    tag_20:\n      mload(0x40)\n      dup1\n      swap2\n      sub\n      swap1\n      return\n        /* \"AccessControl.sol\":1656:2028  function logThis(Logs memory _logs) onlyAdmin public {... */\n    tag_6:\n      tag_22\n      0x04\n      dup1\n      calldatasize\n      sub\n      dup2\n      add\n      swap1\n      tag_23\n      swap2\n      swap1\n      tag_24\n      jump\t// in\n    tag_23:\n      tag_25\n      jump\t// in\n    tag_22:\n      stop\n        /* \"AccessControl.sol\":2169:2284  function getAllDoctors() onlyAdmin public view returns(address[] memory _address) {... */\n    tag_7:\n      tag_26\n      tag_27\n      jump\t// in\n    tag_26:\n      mload(0x40)\n      tag_28\n      swap2\n      swap1\n      tag_29\n      jump\t// in\n    tag_28:\n      mload(0x40)\n      dup1\n      swap2\n      sub\n      swap1\n      return\n        /* \"AccessControl.sol\":1264:1442  function addDoctor(address _address) onlyAdmin public {... */\n    tag_11:\n        /* \"AccessControl.sol\":2346:2351  admin */\n      0x00\n      dup1\n      sload\n      swap1\n      0x0100\n      exp\n      swap1\n      div\n      0xffffffffffffffffffffffffffffffffffffffff\n      and\n        /* \"AccessControl.sol\":2332:2351  msg.sender == admin */\n      0xffffffffffffffffffffffffffffffffffffffff\n      and\n        /* \"AccessControl.sol\":2332:2342  msg.sender */\n      caller\n        /* \"AccessControl.sol\":2332:2351  msg.sender == admin */\n      0xffffffffffffffffffffffffffffffffffffffff\n      and\n      eq\n        /* \"AccessControl.sol\":2324:2370  require(msg.sender == admin, \"Not Authorized\") */\n      tag_31\n      jumpi\n      mload(0x40)\n      0x08c379a000000000000000000000000000000000000000000000000000000000\n      dup2\n      mstore\n      0x04\n      add\n      tag_32\n      swap1\n      tag_33\n      jump\t// in\n    tag_32:\n      mload(0x40)\n      dup1\n      swap2\n      sub\n      swap1\n      revert\n    tag_31:\n        /* \"AccessControl.sol\":1338:1344  doctor */\n      0x02\n        /* \"AccessControl.sol\":1338:1354  doctor[_address] */\n      0x00\n        /* \"AccessControl.sol\":1345:1353  _address */\n      dup3\n        /* \"AccessControl.sol\":1338:1354  doctor[_address] */\n      0xffffffffffffffffffffffffffffffffffffffff\n      and\n      0xffffffffffffffffffffffffffffffffffffffff\n      and\n      dup2\n      mstore\n      0x20\n      add\n      swap1\n      dup2\n      mstore\n      0x20\n      add\n      0x00\n      keccak256\n      0x00\n      swap1\n      sload\n      swap1\n      0x0100\n      exp\n      swap1\n      div\n      0xff\n      and\n        /* \"AccessControl.sol\":1337:1354  !doctor[_address] */\n      iszero\n        /* \"AccessControl.sol\":1329:1355  require(!doctor[_address]) */\n      tag_35\n      jumpi\n      0x00\n      dup1\n      revert\n    tag_35:\n        /* \"AccessControl.sol\":1391:1395  true */\n      0x01\n        /* \"AccessControl.sol\":1372:1378  doctor */\n      0x02\n        /* \"AccessControl.sol\":1372:1388  doctor[_address] */\n      0x00\n        /* \"AccessControl.sol\":1379:1387  _address */\n      dup4\n        /* \"AccessControl.sol\":1372:1388  doctor[_address] */\n      0xffffffffffffffffffffffffffffffffffffffff\n      and\n      0xffffffffffffffffffffffffffffffffffffffff\n      and\n      dup2\n      mstore\n      0x20\n      add\n      swap1\n      dup2\n      mstore\n      0x20\n      add\n      0x00\n      keccak256\n      0x00\n        /* \"AccessControl.sol\":1372:1395  doctor[_address] = true */\n      0x0100\n      exp\n      dup2\n      sload\n      dup2\n      0xff\n      mul\n      not\n      and\n      swap1\n      dup4\n      iszero\n      iszero\n      mul\n      or\n      swap1\n      sstore\n      pop\n        /* \"AccessControl.sol\":1406:1413  doctors */\n      0x01\n        /* \"AccessControl.sol\":1419:1427  _address */\n      dup2\n        /* \"AccessControl.sol\":1406:1428  doctors.push(_address) */\n      swap1\n      dup1\n      0x01\n      dup2\n      sload\n      add\n      dup1\n      dup3\n      sstore\n      dup1\n      swap2\n      pop\n      pop\n      0x01\n      swap1\n      sub\n      swap1\n      0x00\n      mstore\n      keccak256(0x00, 0x20)\n      add\n      0x00\n      swap1\n      swap2\n      swap1\n      swap2\n      swap1\n      swap2\n      0x0100\n      exp\n      dup2\n      sload\n      dup2\n      0xffffffffffffffffffffffffffffffffffffffff\n      mul\n      not\n      and\n      swap1\n      dup4\n      0xffffffffffffffffffffffffffffffffffffffff\n      and\n      mul\n      or\n      swap1\n      sstore\n      pop\n        /* \"AccessControl.sol\":1264:1442  function addDoctor(address _address) onlyAdmin public {... */\n      pop\n      jump\t// out\n        /* \"AccessControl.sol\":1450:1648  function verify(address _address) onlyAdmin public view returns(bool _bool) {... */\n    tag_14:\n        /* \"AccessControl.sol\":1514:1524  bool _bool */\n      0x00\n        /* \"AccessControl.sol\":2346:2351  admin */\n      dup1\n      0x00\n      swap1\n      sload\n      swap1\n      0x0100\n      exp\n      swap1\n      div\n      0xffffffffffffffffffffffffffffffffffffffff\n      and\n        /* \"AccessControl.sol\":2332:2351  msg.sender == admin */\n      0xffffffffffffffffffffffffffffffffffffffff\n      and\n        /* \"AccessControl.sol\":2332:2342  msg.sender */\n      caller\n        /* \"AccessControl.sol\":2332:2351  msg.sender == admin */\n      0xffffffffffffffffffffffffffffffffffffffff\n      and\n      eq\n        /* \"AccessControl.sol\":2324:2370  require(msg.sender == admin, \"Not Authorized\") */\n      tag_38\n      jumpi\n      mload(0x40)\n      0x08c379a000000000000000000000000000000000000000000000000000000000\n      dup2\n      mstore\n      0x04\n      add\n      tag_39\n      swap1\n      tag_33\n      jump\t// in\n    tag_39:\n      mload(0x40)\n      dup1\n      swap2\n      sub\n      swap1\n      revert\n    tag_38:\n        /* \"AccessControl.sol\":1540:1546  doctor */\n      0x02\n        /* \"AccessControl.sol\":1540:1556  doctor[_address] */\n      0x00\n        /* \"AccessControl.sol\":1547:1555  _address */\n      dup4\n        /* \"AccessControl.sol\":1540:1556  doctor[_address] */\n      0xffffffffffffffffffffffffffffffffffffffff\n      and\n      0xffffffffffffffffffffffffffffffffffffffff\n      and\n      dup2\n      mstore\n      0x20\n      add\n      swap1\n      dup2\n      mstore\n      0x20\n      add\n      0x00\n      keccak256\n      0x00\n      swap1\n      sload\n      swap1\n      0x0100\n      exp\n      swap1\n      div\n      0xff\n      and\n        /* \"AccessControl.sol\":1537:1641  if(doctor[_address]) {... */\n      iszero\n      tag_41\n      jumpi\n        /* \"AccessControl.sol\":1580:1584  true */\n      0x01\n        /* \"AccessControl.sol\":1573:1584  return true */\n      swap1\n      pop\n      jump(tag_40)\n        /* \"AccessControl.sol\":1537:1641  if(doctor[_address]) {... */\n    tag_41:\n        /* \"AccessControl.sol\":1624:1629  false */\n      0x00\n        /* \"AccessControl.sol\":1617:1629  return false */\n      swap1\n      pop\n        /* \"AccessControl.sol\":2381:2382  _ */\n    tag_40:\n        /* \"AccessControl.sol\":1450:1648  function verify(address _address) onlyAdmin public view returns(bool _bool) {... */\n      swap2\n      swap1\n      pop\n      jump\t// out\n        /* \"AccessControl.sol\":2036:2161  function getAddressLogs(address _add) onlyAdmin public view returns(Logs[] memory _logs) {... */\n    tag_19:\n        /* \"AccessControl.sol\":2104:2123  Logs[] memory _logs */\n      0x60\n        /* \"AccessControl.sol\":2346:2351  admin */\n      0x00\n      dup1\n      sload\n      swap1\n      0x0100\n      exp\n      swap1\n      div\n      0xffffffffffffffffffffffffffffffffffffffff\n      and\n        /* \"AccessControl.sol\":2332:2351  msg.sender == admin */\n      0xffffffffffffffffffffffffffffffffffffffff\n      and\n        /* \"AccessControl.sol\":2332:2342  msg.sender */\n      caller\n        /* \"AccessControl.sol\":2332:2351  msg.sender == admin */\n      0xffffffffffffffffffffffffffffffffffffffff\n      and\n      eq\n        /* \"AccessControl.sol\":2324:2370  require(msg.sender == admin, \"Not Authorized\") */\n      tag_44\n      jumpi\n      mload(0x40)\n      0x08c379a000000000000000000000000000000000000000000000000000000000\n      dup2\n      mstore\n      0x04\n      add\n      tag_45\n      swap1\n      tag_33\n      jump\t// in\n    tag_45:\n      mload(0x40)\n      dup1\n      swap2\n      sub\n      swap1\n      revert\n    tag_44:\n        /* \"AccessControl.sol\":2143:2147  logs */\n      0x03\n        /* \"AccessControl.sol\":2143:2153  logs[_add] */\n      0x00\n        /* \"AccessControl.sol\":2148:2152  _add */\n      dup4\n        /* \"AccessControl.sol\":2143:2153  logs[_add] */\n      0xffffffffffffffffffffffffffffffffffffffff\n      and\n      0xffffffffffffffffffffffffffffffffffffffff\n      and\n      dup2\n      mstore\n      0x20\n      add\n      swap1\n      dup2\n      mstore\n      0x20\n      add\n      0x00\n      keccak256\n        /* \"AccessControl.sol\":2136:2153  return logs[_add] */\n      dup1\n      sload\n      dup1\n      0x20\n      mul\n      0x20\n      add\n      mload(0x40)\n      swap1\n      dup2\n      add\n      0x40\n      mstore\n      dup1\n      swap3\n      swap2\n      swap1\n      dup2\n      dup2\n      mstore\n      0x20\n      add\n      0x00\n      swap1\n    tag_47:\n      dup3\n      dup3\n      lt\n      iszero\n      tag_48\n      jumpi\n      dup4\n      dup3\n      swap1\n      0x00\n      mstore\n      keccak256(0x00, 0x20)\n      swap1\n      0x03\n      mul\n      add\n      mload(0x40)\n      dup1\n      0x60\n      add\n      0x40\n      mstore\n      swap1\n      dup2\n      0x00\n      dup3\n      add\n      0x00\n      swap1\n      sload\n      swap1\n      0x0100\n      exp\n      swap1\n      div\n      0xffffffffffffffffffffffffffffffffffffffff\n      and\n      0xffffffffffffffffffffffffffffffffffffffff\n      and\n      0xffffffffffffffffffffffffffffffffffffffff\n      and\n      dup2\n      mstore\n      0x20\n      add\n      0x01\n      dup3\n      add\n      dup1\n      sload\n      tag_50\n      swap1\n      tag_51\n      jump\t// in\n    tag_50:\n      dup1\n      0x1f\n      add\n      0x20\n      dup1\n      swap2\n      div\n      mul\n      0x20\n      add\n      mload(0x40)\n      swap1\n      dup2\n      add\n      0x40\n      mstore\n      dup1\n      swap3\n      swap2\n      swap1\n      dup2\n      dup2\n      mstore\n      0x20\n      add\n      dup3\n      dup1\n      sload\n      tag_52\n      swap1\n      tag_51\n      jump\t// in\n    tag_52:\n      dup1\n      iszero\n      tag_53\n      jumpi\n      dup1\n      0x1f\n      lt\n      tag_54\n      jumpi\n      0x0100\n      dup1\n      dup4\n      sload\n      div\n      mul\n      dup4\n      mstore\n      swap2\n      0x20\n      add\n      swap2\n      jump(tag_53)\n    tag_54:\n      dup3\n      add\n      swap2\n      swap1\n      0x00\n      mstore\n      keccak256(0x00, 0x20)\n      swap1\n    tag_55:\n      dup2\n      sload\n      dup2\n      mstore\n      swap1\n      0x01\n      add\n      swap1\n      0x20\n      add\n      dup1\n      dup4\n      gt\n      tag_55\n      jumpi\n      dup3\n      swap1\n      sub\n      0x1f\n      and\n      dup3\n      add\n      swap2\n    tag_53:\n      pop\n      pop\n      pop\n      pop\n      pop\n      dup2\n      mstore\n      0x20\n      add\n      0x02\n      dup3\n      add\n      dup1\n      sload\n      tag_56\n      swap1\n      tag_51\n      jump\t// in\n    tag_56:\n      dup1\n      0x1f\n      add\n      0x20\n      dup1\n      swap2\n      div\n      mul\n      0x20\n      add\n      mload(0x40)\n      swap1\n      dup2\n      add\n      0x40\n      mstore\n      dup1\n      swap3\n      swap2\n      swap1\n      dup2\n      dup2\n      mstore\n      0x20\n      add\n      dup3\n      dup1\n      sload\n      tag_57\n      swap1\n      tag_51\n      jump\t// in\n    tag_57:\n      dup1\n      iszero\n      tag_58\n      jumpi\n      dup1\n      0x1f\n      lt\n      tag_59\n      jumpi\n      0x0100\n      dup1\n      dup4\n      sload\n      div\n      mul\n      dup4\n      mstore\n      swap2\n      0x20\n      add\n      swap2\n      jump(tag_58)\n    tag_59:\n      dup3\n      add\n      swap2\n      swap1\n      0x00\n      mstore\n      keccak256(0x00, 0x20)\n      swap1\n    tag_60:\n      dup2\n      sload\n      dup2\n      mstore\n      swap1\n      0x01\n      add\n      swap1\n      0x20\n      add\n      dup1\n      dup4\n      gt\n      tag_60\n      jumpi\n      dup3\n      swap1\n      sub\n      0x1f\n      and\n      dup3\n      add\n      swap2\n    tag_58:\n      pop\n      pop\n      pop\n      pop\n      pop\n      dup2\n      mstore\n      pop\n      pop\n      dup2\n      mstore\n      0x20\n      add\n      swap1\n      0x01\n      add\n      swap1\n      jump(tag_47)\n    tag_48:\n      pop\n      pop\n      pop\n      pop\n      swap1\n      pop\n        /* \"AccessControl.sol\":2036:2161  function getAddressLogs(address _add) onlyAdmin public view returns(Logs[] memory _logs) {... */\n      swap2\n      swap1\n      pop\n      jump\t// out\n        /* \"AccessControl.sol\":1656:2028  function logThis(Logs memory _logs) onlyAdmin public {... */\n    tag_25:\n        /* \"AccessControl.sol\":2346:2351  admin */\n      0x00\n      dup1\n      sload\n      swap1\n      0x0100\n      exp\n      swap1\n      div\n      0xffffffffffffffffffffffffffffffffffffffff\n      and\n        /* \"AccessControl.sol\":2332:2351  msg.sender == admin */\n      0xffffffffffffffffffffffffffffffffffffffff\n      and\n        /* \"AccessControl.sol\":2332:2342  msg.sender */\n      caller\n        /* \"AccessControl.sol\":2332:2351  msg.sender == admin */\n      0xffffffffffffffffffffffffffffffffffffffff\n      and\n      eq\n        /* \"AccessControl.sol\":2324:2370  require(msg.sender == admin, \"Not Authorized\") */\n      tag_62\n      jumpi\n      mload(0x40)\n      0x08c379a000000000000000000000000000000000000000000000000000000000\n      dup2\n      mstore\n      0x04\n      add\n      tag_63\n      swap1\n      tag_33\n      jump\t// in\n    tag_63:\n      mload(0x40)\n      dup1\n      swap2\n      sub\n      swap1\n      revert\n    tag_62:\n        /* \"AccessControl.sol\":1828:1848  Logs memory activity */\n      tag_65\n      tag_66\n      jump\t// in\n    tag_65:\n        /* \"AccessControl.sol\":1874:1879  _logs */\n      dup2\n        /* \"AccessControl.sol\":1874:1883  _logs.add */\n      0x00\n      add\n      mload\n        /* \"AccessControl.sol\":1859:1867  activity */\n      dup2\n        /* \"AccessControl.sol\":1859:1871  activity.add */\n      0x00\n      add\n        /* \"AccessControl.sol\":1859:1883  activity.add = _logs.add */\n      swap1\n      0xffffffffffffffffffffffffffffffffffffffff\n      and\n      swap1\n      dup2\n      0xffffffffffffffffffffffffffffffffffffffff\n      and\n      dup2\n      mstore\n      pop\n      pop\n        /* \"AccessControl.sol\":1914:1919  _logs */\n      dup2\n        /* \"AccessControl.sol\":1914:1928  _logs.activity */\n      0x20\n      add\n      mload\n        /* \"AccessControl.sol\":1894:1902  activity */\n      dup2\n        /* \"AccessControl.sol\":1894:1911  activity.activity */\n      0x20\n      add\n        /* \"AccessControl.sol\":1894:1928  activity.activity = _logs.activity */\n      dup2\n      swap1\n      mstore\n      pop\n        /* \"AccessControl.sol\":1962:1967  _logs */\n      dup2\n        /* \"AccessControl.sol\":1962:1979  _logs.dateAndTime */\n      0x40\n      add\n      mload\n        /* \"AccessControl.sol\":1939:1947  activity */\n      dup2\n        /* \"AccessControl.sol\":1939:1959  activity.dateAndTime */\n      0x40\n      add\n        /* \"AccessControl.sol\":1939:1979  activity.dateAndTime = _logs.dateAndTime */\n      dup2\n      swap1\n      mstore\n      pop\n        /* \"AccessControl.sol\":1990:1994  logs */\n      0x03\n        /* \"AccessControl.sol\":1990:2005  logs[_logs.add] */\n      0x00\n        /* \"AccessControl.sol\":1995:2000  _logs */\n      dup4\n        /* \"AccessControl.sol\":1995:2004  _logs.add */\n      0x00\n      add\n      mload\n        /* \"AccessControl.sol\":1990:2005  logs[_logs.add] */\n      0xffffffffffffffffffffffffffffffffffffffff\n      and\n      0xffffffffffffffffffffffffffffffffffffffff\n      and\n      dup2\n      mstore\n      0x20\n      add\n      swap1\n      dup2\n      mstore\n      0x20\n      add\n      0x00\n      keccak256\n        /* \"AccessControl.sol\":2011:2019  activity */\n      dup2\n        /* \"AccessControl.sol\":1990:2020  logs[_logs.add].push(activity) */\n      swap1\n      dup1\n      0x01\n      dup2\n      sload\n      add\n      dup1\n      dup3\n      sstore\n      dup1\n      swap2\n      pop\n      pop\n      0x01\n      swap1\n      sub\n      swap1\n      0x00\n      mstore\n      keccak256(0x00, 0x20)\n      swap1\n      0x03\n      mul\n      add\n      0x00\n      swap1\n      swap2\n      swap1\n      swap2\n      swap1\n      swap2\n      pop\n      0x00\n      dup3\n      add\n      mload\n      dup2\n      0x00\n      add\n      exp(0x0100, 0x00)\n      dup2\n      sload\n      dup2\n      0xffffffffffffffffffffffffffffffffffffffff\n      mul\n      not\n      and\n      swap1\n      dup4\n      0xffffffffffffffffffffffffffffffffffffffff\n      and\n      mul\n      or\n      swap1\n      sstore\n      pop\n      0x20\n      dup3\n      add\n      mload\n      dup2\n      0x01\n      add\n      swap1\n      dup2\n      tag_68\n      swap2\n      swap1\n      tag_69\n      jump\t// in\n    tag_68:\n      pop\n      0x40\n      dup3\n      add\n      mload\n      dup2\n      0x02\n      add\n      swap1\n      dup2\n      tag_70\n      swap2\n      swap1\n      tag_69\n      jump\t// in\n    tag_70:\n      pop\n      pop\n      pop\n        /* \"AccessControl.sol\":1709:2028  {... */\n      pop\n        /* \"AccessControl.sol\":1656:2028  function logThis(Logs memory _logs) onlyAdmin public {... */\n      pop\n      jump\t// out\n        /* \"AccessControl.sol\":2169:2284  function getAllDoctors() onlyAdmin public view returns(address[] memory _address) {... */\n    tag_27:\n        /* \"AccessControl.sol\":2224:2249  address[] memory _address */\n      0x60\n        /* \"AccessControl.sol\":2346:2351  admin */\n      0x00\n      dup1\n      sload\n      swap1\n      0x0100\n      exp\n      swap1\n      div\n      0xffffffffffffffffffffffffffffffffffffffff\n      and\n        /* \"AccessControl.sol\":2332:2351  msg.sender == admin */\n      0xffffffffffffffffffffffffffffffffffffffff\n      and\n        /* \"AccessControl.sol\":2332:2342  msg.sender */\n      caller\n        /* \"AccessControl.sol\":2332:2351  msg.sender == admin */\n      0xffffffffffffffffffffffffffffffffffffffff\n      and\n      eq\n        /* \"AccessControl.sol\":2324:2370  require(msg.sender == admin, \"Not Authorized\") */\n      tag_72\n      jumpi\n      mload(0x40)\n      0x08c379a000000000000000000000000000000000000000000000000000000000\n      dup2\n      mstore\n      0x04\n      add\n      tag_73\n      swap1\n      tag_33\n      jump\t// in\n    tag_73:\n      mload(0x40)\n      dup1\n      swap2\n      sub\n      swap1\n      revert\n    tag_72:\n        /* \"AccessControl.sol\":2269:2276  doctors */\n      0x01\n        /* \"AccessControl.sol\":2262:2276  return doctors */\n      dup1\n      sload\n      dup1\n      0x20\n      mul\n      0x20\n      add\n      mload(0x40)\n      swap1\n      dup2\n      add\n      0x40\n      mstore\n      dup1\n      swap3\n      swap2\n      swap1\n      dup2\n      dup2\n      mstore\n      0x20\n      add\n      dup3\n      dup1\n      sload\n      dup1\n      iszero\n      tag_75\n      jumpi\n      0x20\n      mul\n      dup3\n      add\n      swap2\n      swap1\n      0x00\n      mstore\n      keccak256(0x00, 0x20)\n      swap1\n    tag_76:\n      dup2\n      0x00\n      swap1\n      sload\n      swap1\n      0x0100\n      exp\n      swap1\n      div\n      0xffffffffffffffffffffffffffffffffffffffff\n      and\n      0xffffffffffffffffffffffffffffffffffffffff\n      and\n      dup2\n      mstore\n      0x20\n      add\n      swap1\n      0x01\n      add\n      swap1\n      dup1\n      dup4\n      gt\n      tag_76\n      jumpi\n    tag_75:\n      pop\n      pop\n      pop\n      pop\n      pop\n      swap1\n      pop\n        /* \"AccessControl.sol\":2169:2284  function getAllDoctors() onlyAdmin public view returns(address[] memory _address) {... */\n      swap1\n      jump\t// out\n    tag_66:\n      mload(0x40)\n      dup1\n      0x60\n      add\n      0x40\n      mstore\n      dup1\n      and(0xffffffffffffffffffffffffffffffffffffffff, 0x00)\n      dup2\n      mstore\n      0x20\n      add\n      0x60\n      dup2\n      mstore\n      0x20\n      add\n      0x60\n      dup2\n      mstore\n      pop\n      swap1\n      jump\t// out\n        /* \"#utility.yul\":7:82   */\n    tag_77:\n        /* \"#utility.yul\":40:46   */\n      0x00\n        /* \"#utility.yul\":73:75   */\n      0x40\n        /* \"#utility.yul\":67:76   */\n      mload\n        /* \"#utility.yul\":57:76   */\n      swap1\n      pop\n        /* \"#utility.yul\":7:82   */\n      swap1\n      jump\t// out\n        /* \"#utility.yul\":88:205   */\n    tag_78:\n        /* \"#utility.yul\":197:198   */\n      0x00\n        /* \"#utility.yul\":194:195   */\n      dup1\n        /* \"#utility.yul\":187:199   */\n      revert\n        /* \"#utility.yul\":211:328   */\n    tag_79:\n        /* \"#utility.yul\":320:321   */\n      0x00\n        /* \"#utility.yul\":317:318   */\n      dup1\n        /* \"#utility.yul\":310:322   */\n      revert\n        /* \"#utility.yul\":334:460   */\n    tag_80:\n        /* \"#utility.yul\":371:378   */\n      0x00\n        /* \"#utility.yul\":411:453   */\n      0xffffffffffffffffffffffffffffffffffffffff\n        /* \"#utility.yul\":404:409   */\n      dup3\n        /* \"#utility.yul\":400:454   */\n      and\n        /* \"#utility.yul\":389:454   */\n      swap1\n      pop\n        /* \"#utility.yul\":334:460   */\n      swap2\n      swap1\n      pop\n      jump\t// out\n        /* \"#utility.yul\":466:562   */\n    tag_81:\n        /* \"#utility.yul\":503:510   */\n      0x00\n        /* \"#utility.yul\":532:556   */\n      tag_143\n        /* \"#utility.yul\":550:555   */\n      dup3\n        /* \"#utility.yul\":532:556   */\n      tag_80\n      jump\t// in\n    tag_143:\n        /* \"#utility.yul\":521:556   */\n      swap1\n      pop\n        /* \"#utility.yul\":466:562   */\n      swap2\n      swap1\n      pop\n      jump\t// out\n        /* \"#utility.yul\":568:690   */\n    tag_82:\n        /* \"#utility.yul\":641:665   */\n      tag_145\n        /* \"#utility.yul\":659:664   */\n      dup2\n        /* \"#utility.yul\":641:665   */\n      tag_81\n      jump\t// in\n    tag_145:\n        /* \"#utility.yul\":634:639   */\n      dup2\n        /* \"#utility.yul\":631:666   */\n      eq\n        /* \"#utility.yul\":621:684   */\n      tag_146\n      jumpi\n        /* \"#utility.yul\":680:681   */\n      0x00\n        /* \"#utility.yul\":677:678   */\n      dup1\n        /* \"#utility.yul\":670:682   */\n      revert\n        /* \"#utility.yul\":621:684   */\n    tag_146:\n        /* \"#utility.yul\":568:690   */\n      pop\n      jump\t// out\n        /* \"#utility.yul\":696:835   */\n    tag_83:\n        /* \"#utility.yul\":742:747   */\n      0x00\n        /* \"#utility.yul\":780:786   */\n      dup2\n        /* \"#utility.yul\":767:787   */\n      calldataload\n        /* \"#utility.yul\":758:787   */\n      swap1\n      pop\n        /* \"#utility.yul\":796:829   */\n      tag_148\n        /* \"#utility.yul\":823:828   */\n      dup2\n        /* \"#utility.yul\":796:829   */\n      tag_82\n      jump\t// in\n    tag_148:\n        /* \"#utility.yul\":696:835   */\n      swap3\n      swap2\n      pop\n      pop\n      jump\t// out\n        /* \"#utility.yul\":841:1170   */\n    tag_10:\n        /* \"#utility.yul\":900:906   */\n      0x00\n        /* \"#utility.yul\":949:951   */\n      0x20\n        /* \"#utility.yul\":937:946   */\n      dup3\n        /* \"#utility.yul\":928:935   */\n      dup5\n        /* \"#utility.yul\":924:947   */\n      sub\n        /* \"#utility.yul\":920:952   */\n      slt\n        /* \"#utility.yul\":917:1036   */\n      iszero\n      tag_150\n      jumpi\n        /* \"#utility.yul\":955:1034   */\n      tag_151\n      tag_78\n      jump\t// in\n    tag_151:\n        /* \"#utility.yul\":917:1036   */\n    tag_150:\n        /* \"#utility.yul\":1075:1076   */\n      0x00\n        /* \"#utility.yul\":1100:1153   */\n      tag_152\n        /* \"#utility.yul\":1145:1152   */\n      dup5\n        /* \"#utility.yul\":1136:1142   */\n      dup3\n        /* \"#utility.yul\":1125:1134   */\n      dup6\n        /* \"#utility.yul\":1121:1143   */\n      add\n        /* \"#utility.yul\":1100:1153   */\n      tag_83\n      jump\t// in\n    tag_152:\n        /* \"#utility.yul\":1090:1153   */\n      swap2\n      pop\n        /* \"#utility.yul\":1046:1163   */\n      pop\n        /* \"#utility.yul\":841:1170   */\n      swap3\n      swap2\n      pop\n      pop\n      jump\t// out\n        /* \"#utility.yul\":1176:1266   */\n    tag_84:\n        /* \"#utility.yul\":1210:1217   */\n      0x00\n        /* \"#utility.yul\":1253:1258   */\n      dup2\n        /* \"#utility.yul\":1246:1259   */\n      iszero\n        /* \"#utility.yul\":1239:1260   */\n      iszero\n        /* \"#utility.yul\":1228:1260   */\n      swap1\n      pop\n        /* \"#utility.yul\":1176:1266   */\n      swap2\n      swap1\n      pop\n      jump\t// out\n        /* \"#utility.yul\":1272:1381   */\n    tag_85:\n        /* \"#utility.yul\":1353:1374   */\n      tag_155\n        /* \"#utility.yul\":1368:1373   */\n      dup2\n        /* \"#utility.yul\":1353:1374   */\n      tag_84\n      jump\t// in\n    tag_155:\n        /* \"#utility.yul\":1348:1351   */\n      dup3\n        /* \"#utility.yul\":1341:1375   */\n      mstore\n        /* \"#utility.yul\":1272:1381   */\n      pop\n      pop\n      jump\t// out\n        /* \"#utility.yul\":1387:1597   */\n    tag_16:\n        /* \"#utility.yul\":1474:1478   */\n      0x00\n        /* \"#utility.yul\":1512:1514   */\n      0x20\n        /* \"#utility.yul\":1501:1510   */\n      dup3\n        /* \"#utility.yul\":1497:1515   */\n      add\n        /* \"#utility.yul\":1489:1515   */\n      swap1\n      pop\n        /* \"#utility.yul\":1525:1590   */\n      tag_157\n        /* \"#utility.yul\":1587:1588   */\n      0x00\n        /* \"#utility.yul\":1576:1585   */\n      dup4\n        /* \"#utility.yul\":1572:1589   */\n      add\n        /* \"#utility.yul\":1563:1569   */\n      dup5\n        /* \"#utility.yul\":1525:1590   */\n      tag_85\n      jump\t// in\n    tag_157:\n        /* \"#utility.yul\":1387:1597   */\n      swap3\n      swap2\n      pop\n      pop\n      jump\t// out\n        /* \"#utility.yul\":1603:1737   */\n    tag_86:\n        /* \"#utility.yul\":1690:1696   */\n      0x00\n        /* \"#utility.yul\":1724:1729   */\n      dup2\n        /* \"#utility.yul\":1718:1730   */\n      mload\n        /* \"#utility.yul\":1708:1730   */\n      swap1\n      pop\n        /* \"#utility.yul\":1603:1737   */\n      swap2\n      swap1\n      pop\n      jump\t// out\n        /* \"#utility.yul\":1743:1947   */\n    tag_87:\n        /* \"#utility.yul\":1862:1873   */\n      0x00\n        /* \"#utility.yul\":1896:1902   */\n      dup3\n        /* \"#utility.yul\":1891:1894   */\n      dup3\n        /* \"#utility.yul\":1884:1903   */\n      mstore\n        /* \"#utility.yul\":1936:1940   */\n      0x20\n        /* \"#utility.yul\":1931:1934   */\n      dup3\n        /* \"#utility.yul\":1927:1941   */\n      add\n        /* \"#utility.yul\":1912:1941   */\n      swap1\n      pop\n        /* \"#utility.yul\":1743:1947   */\n      swap3\n      swap2\n      pop\n      pop\n      jump\t// out\n        /* \"#utility.yul\":1953:2105   */\n    tag_88:\n        /* \"#utility.yul\":2040:2044   */\n      0x00\n        /* \"#utility.yul\":2063:2066   */\n      dup2\n        /* \"#utility.yul\":2055:2066   */\n      swap1\n      pop\n        /* \"#utility.yul\":2093:2097   */\n      0x20\n        /* \"#utility.yul\":2088:2091   */\n      dup3\n        /* \"#utility.yul\":2084:2098   */\n      add\n        /* \"#utility.yul\":2076:2098   */\n      swap1\n      pop\n        /* \"#utility.yul\":1953:2105   */\n      swap2\n      swap1\n      pop\n      jump\t// out\n        /* \"#utility.yul\":2111:2219   */\n    tag_89:\n        /* \"#utility.yul\":2188:2212   */\n      tag_162\n        /* \"#utility.yul\":2206:2211   */\n      dup2\n        /* \"#utility.yul\":2188:2212   */\n      tag_81\n      jump\t// in\n    tag_162:\n        /* \"#utility.yul\":2183:2186   */\n      dup3\n        /* \"#utility.yul\":2176:2213   */\n      mstore\n        /* \"#utility.yul\":2111:2219   */\n      pop\n      pop\n      jump\t// out\n        /* \"#utility.yul\":2225:2324   */\n    tag_90:\n        /* \"#utility.yul\":2277:2283   */\n      0x00\n        /* \"#utility.yul\":2311:2316   */\n      dup2\n        /* \"#utility.yul\":2305:2317   */\n      mload\n        /* \"#utility.yul\":2295:2317   */\n      swap1\n      pop\n        /* \"#utility.yul\":2225:2324   */\n      swap2\n      swap1\n      pop\n      jump\t// out\n        /* \"#utility.yul\":2330:2489   */\n    tag_91:\n        /* \"#utility.yul\":2404:2415   */\n      0x00\n        /* \"#utility.yul\":2438:2444   */\n      dup3\n        /* \"#utility.yul\":2433:2436   */\n      dup3\n        /* \"#utility.yul\":2426:2445   */\n      mstore\n        /* \"#utility.yul\":2478:2482   */\n      0x20\n        /* \"#utility.yul\":2473:2476   */\n      dup3\n        /* \"#utility.yul\":2469:2483   */\n      add\n        /* \"#utility.yul\":2454:2483   */\n      swap1\n      pop\n        /* \"#utility.yul\":2330:2489   */\n      swap3\n      swap2\n      pop\n      pop\n      jump\t// out\n        /* \"#utility.yul\":2495:2741   */\n    tag_92:\n        /* \"#utility.yul\":2576:2577   */\n      0x00\n        /* \"#utility.yul\":2586:2699   */\n    tag_166:\n        /* \"#utility.yul\":2600:2606   */\n      dup4\n        /* \"#utility.yul\":2597:2598   */\n      dup2\n        /* \"#utility.yul\":2594:2607   */\n      lt\n        /* \"#utility.yul\":2586:2699   */\n      iszero\n      tag_168\n      jumpi\n        /* \"#utility.yul\":2685:2686   */\n      dup1\n        /* \"#utility.yul\":2680:2683   */\n      dup3\n        /* \"#utility.yul\":2676:2687   */\n      add\n        /* \"#utility.yul\":2670:2688   */\n      mload\n        /* \"#utility.yul\":2666:2667   */\n      dup2\n        /* \"#utility.yul\":2661:2664   */\n      dup5\n        /* \"#utility.yul\":2657:2668   */\n      add\n        /* \"#utility.yul\":2650:2689   */\n      mstore\n        /* \"#utility.yul\":2622:2624   */\n      0x20\n        /* \"#utility.yul\":2619:2620   */\n      dup2\n        /* \"#utility.yul\":2615:2625   */\n      add\n        /* \"#utility.yul\":2610:2625   */\n      swap1\n      pop\n        /* \"#utility.yul\":2586:2699   */\n      jump(tag_166)\n    tag_168:\n        /* \"#utility.yul\":2733:2734   */\n      0x00\n        /* \"#utility.yul\":2724:2730   */\n      dup5\n        /* \"#utility.yul\":2719:2722   */\n      dup5\n        /* \"#utility.yul\":2715:2731   */\n      add\n        /* \"#utility.yul\":2708:2735   */\n      mstore\n        /* \"#utility.yul\":2557:2741   */\n      pop\n        /* \"#utility.yul\":2495:2741   */\n      pop\n      pop\n      pop\n      jump\t// out\n        /* \"#utility.yul\":2747:2849   */\n    tag_93:\n        /* \"#utility.yul\":2788:2794   */\n      0x00\n        /* \"#utility.yul\":2839:2841   */\n      0x1f\n        /* \"#utility.yul\":2835:2842   */\n      not\n        /* \"#utility.yul\":2830:2832   */\n      0x1f\n        /* \"#utility.yul\":2823:2828   */\n      dup4\n        /* \"#utility.yul\":2819:2833   */\n      add\n        /* \"#utility.yul\":2815:2843   */\n      and\n        /* \"#utility.yul\":2805:2843   */\n      swap1\n      pop\n        /* \"#utility.yul\":2747:2849   */\n      swap2\n      swap1\n      pop\n      jump\t// out\n        /* \"#utility.yul\":2855:3212   */\n    tag_94:\n        /* \"#utility.yul\":2933:2936   */\n      0x00\n        /* \"#utility.yul\":2961:3000   */\n      tag_171\n        /* \"#utility.yul\":2994:2999   */\n      dup3\n        /* \"#utility.yul\":2961:3000   */\n      tag_90\n      jump\t// in\n    tag_171:\n        /* \"#utility.yul\":3016:3077   */\n      tag_172\n        /* \"#utility.yul\":3070:3076   */\n      dup2\n        /* \"#utility.yul\":3065:3068   */\n      dup6\n        /* \"#utility.yul\":3016:3077   */\n      tag_91\n      jump\t// in\n    tag_172:\n        /* \"#utility.yul\":3009:3077   */\n      swap4\n      pop\n        /* \"#utility.yul\":3086:3151   */\n      tag_173\n        /* \"#utility.yul\":3144:3150   */\n      dup2\n        /* \"#utility.yul\":3139:3142   */\n      dup6\n        /* \"#utility.yul\":3132:3136   */\n      0x20\n        /* \"#utility.yul\":3125:3130   */\n      dup7\n        /* \"#utility.yul\":3121:3137   */\n      add\n        /* \"#utility.yul\":3086:3151   */\n      tag_92\n      jump\t// in\n    tag_173:\n        /* \"#utility.yul\":3176:3205   */\n      tag_174\n        /* \"#utility.yul\":3198:3204   */\n      dup2\n        /* \"#utility.yul\":3176:3205   */\n      tag_93\n      jump\t// in\n    tag_174:\n        /* \"#utility.yul\":3171:3174   */\n      dup5\n        /* \"#utility.yul\":3167:3206   */\n      add\n        /* \"#utility.yul\":3160:3206   */\n      swap2\n      pop\n        /* \"#utility.yul\":2937:3212   */\n      pop\n        /* \"#utility.yul\":2855:3212   */\n      swap3\n      swap2\n      pop\n      pop\n      jump\t// out\n        /* \"#utility.yul\":3288:4129   */\n    tag_95:\n        /* \"#utility.yul\":3387:3390   */\n      0x00\n        /* \"#utility.yul\":3423:3427   */\n      0x60\n        /* \"#utility.yul\":3418:3421   */\n      dup4\n        /* \"#utility.yul\":3414:3428   */\n      add\n        /* \"#utility.yul\":3509:3513   */\n      0x00\n        /* \"#utility.yul\":3502:3507   */\n      dup4\n        /* \"#utility.yul\":3498:3514   */\n      add\n        /* \"#utility.yul\":3492:3515   */\n      mload\n        /* \"#utility.yul\":3528:3591   */\n      tag_176\n        /* \"#utility.yul\":3585:3589   */\n      0x00\n        /* \"#utility.yul\":3580:3583   */\n      dup7\n        /* \"#utility.yul\":3576:3590   */\n      add\n        /* \"#utility.yul\":3562:3574   */\n      dup3\n        /* \"#utility.yul\":3528:3591   */\n      tag_89\n      jump\t// in\n    tag_176:\n        /* \"#utility.yul\":3438:3601   */\n      pop\n        /* \"#utility.yul\":3687:3691   */\n      0x20\n        /* \"#utility.yul\":3680:3685   */\n      dup4\n        /* \"#utility.yul\":3676:3692   */\n      add\n        /* \"#utility.yul\":3670:3693   */\n      mload\n        /* \"#utility.yul\":3740:3743   */\n      dup5\n        /* \"#utility.yul\":3734:3738   */\n      dup3\n        /* \"#utility.yul\":3730:3744   */\n      sub\n        /* \"#utility.yul\":3723:3727   */\n      0x20\n        /* \"#utility.yul\":3718:3721   */\n      dup7\n        /* \"#utility.yul\":3714:3728   */\n      add\n        /* \"#utility.yul\":3707:3745   */\n      mstore\n        /* \"#utility.yul\":3766:3839   */\n      tag_177\n        /* \"#utility.yul\":3834:3838   */\n      dup3\n        /* \"#utility.yul\":3820:3832   */\n      dup3\n        /* \"#utility.yul\":3766:3839   */\n      tag_94\n      jump\t// in\n    tag_177:\n        /* \"#utility.yul\":3758:3839   */\n      swap2\n      pop\n        /* \"#utility.yul\":3611:3850   */\n      pop\n        /* \"#utility.yul\":3939:3943   */\n      0x40\n        /* \"#utility.yul\":3932:3937   */\n      dup4\n        /* \"#utility.yul\":3928:3944   */\n      add\n        /* \"#utility.yul\":3922:3945   */\n      mload\n        /* \"#utility.yul\":3992:3995   */\n      dup5\n        /* \"#utility.yul\":3986:3990   */\n      dup3\n        /* \"#utility.yul\":3982:3996   */\n      sub\n        /* \"#utility.yul\":3975:3979   */\n      0x40\n        /* \"#utility.yul\":3970:3973   */\n      dup7\n        /* \"#utility.yul\":3966:3980   */\n      add\n        /* \"#utility.yul\":3959:3997   */\n      mstore\n        /* \"#utility.yul\":4018:4091   */\n      tag_178\n        /* \"#utility.yul\":4086:4090   */\n      dup3\n        /* \"#utility.yul\":4072:4084   */\n      dup3\n        /* \"#utility.yul\":4018:4091   */\n      tag_94\n      jump\t// in\n    tag_178:\n        /* \"#utility.yul\":4010:4091   */\n      swap2\n      pop\n        /* \"#utility.yul\":3860:4102   */\n      pop\n        /* \"#utility.yul\":4119:4123   */\n      dup1\n        /* \"#utility.yul\":4112:4123   */\n      swap2\n      pop\n        /* \"#utility.yul\":3392:4129   */\n      pop\n        /* \"#utility.yul\":3288:4129   */\n      swap3\n      swap2\n      pop\n      pop\n      jump\t// out\n        /* \"#utility.yul\":4135:4371   */\n    tag_96:\n        /* \"#utility.yul\":4244:4254   */\n      0x00\n        /* \"#utility.yul\":4279:4365   */\n      tag_180\n        /* \"#utility.yul\":4361:4364   */\n      dup4\n        /* \"#utility.yul\":4353:4359   */\n      dup4\n        /* \"#utility.yul\":4279:4365   */\n      tag_95\n      jump\t// in\n    tag_180:\n        /* \"#utility.yul\":4265:4365   */\n      swap1\n      pop\n        /* \"#utility.yul\":4135:4371   */\n      swap3\n      swap2\n      pop\n      pop\n      jump\t// out\n        /* \"#utility.yul\":4377:4510   */\n    tag_97:\n        /* \"#utility.yul\":4467:4471   */\n      0x00\n        /* \"#utility.yul\":4499:4503   */\n      0x20\n        /* \"#utility.yul\":4494:4497   */\n      dup3\n        /* \"#utility.yul\":4490:4504   */\n      add\n        /* \"#utility.yul\":4482:4504   */\n      swap1\n      pop\n        /* \"#utility.yul\":4377:4510   */\n      swap2\n      swap1\n      pop\n      jump\t// out\n        /* \"#utility.yul\":4590:5661   */\n    tag_98:\n        /* \"#utility.yul\":4749:4752   */\n      0x00\n        /* \"#utility.yul\":4778:4852   */\n      tag_183\n        /* \"#utility.yul\":4846:4851   */\n      dup3\n        /* \"#utility.yul\":4778:4852   */\n      tag_86\n      jump\t// in\n    tag_183:\n        /* \"#utility.yul\":4868:4974   */\n      tag_184\n        /* \"#utility.yul\":4967:4973   */\n      dup2\n        /* \"#utility.yul\":4962:4965   */\n      dup6\n        /* \"#utility.yul\":4868:4974   */\n      tag_87\n      jump\t// in\n    tag_184:\n        /* \"#utility.yul\":4861:4974   */\n      swap4\n      pop\n        /* \"#utility.yul\":5000:5003   */\n      dup4\n        /* \"#utility.yul\":5045:5049   */\n      0x20\n        /* \"#utility.yul\":5037:5043   */\n      dup3\n        /* \"#utility.yul\":5033:5050   */\n      mul\n        /* \"#utility.yul\":5028:5031   */\n      dup6\n        /* \"#utility.yul\":5024:5051   */\n      add\n        /* \"#utility.yul\":5075:5151   */\n      tag_185\n        /* \"#utility.yul\":5145:5150   */\n      dup6\n        /* \"#utility.yul\":5075:5151   */\n      tag_88\n      jump\t// in\n    tag_185:\n        /* \"#utility.yul\":5174:5181   */\n      dup1\n        /* \"#utility.yul\":5205:5206   */\n      0x00\n        /* \"#utility.yul\":5190:5616   */\n    tag_186:\n        /* \"#utility.yul\":5215:5221   */\n      dup6\n        /* \"#utility.yul\":5212:5213   */\n      dup2\n        /* \"#utility.yul\":5209:5222   */\n      lt\n        /* \"#utility.yul\":5190:5616   */\n      iszero\n      tag_188\n      jumpi\n        /* \"#utility.yul\":5286:5295   */\n      dup5\n        /* \"#utility.yul\":5280:5284   */\n      dup5\n        /* \"#utility.yul\":5276:5296   */\n      sub\n        /* \"#utility.yul\":5271:5274   */\n      dup10\n        /* \"#utility.yul\":5264:5297   */\n      mstore\n        /* \"#utility.yul\":5337:5343   */\n      dup2\n        /* \"#utility.yul\":5331:5344   */\n      mload\n        /* \"#utility.yul\":5365:5469   */\n      tag_189\n        /* \"#utility.yul\":5464:5468   */\n      dup6\n        /* \"#utility.yul\":5449:5462   */\n      dup3\n        /* \"#utility.yul\":5365:5469   */\n      tag_96\n      jump\t// in\n    tag_189:\n        /* \"#utility.yul\":5357:5469   */\n      swap5\n      pop\n        /* \"#utility.yul\":5492:5572   */\n      tag_190\n        /* \"#utility.yul\":5565:5571   */\n      dup4\n        /* \"#utility.yul\":5492:5572   */\n      tag_97\n      jump\t// in\n    tag_190:\n        /* \"#utility.yul\":5482:5572   */\n      swap3\n      pop\n        /* \"#utility.yul\":5601:5605   */\n      0x20\n        /* \"#utility.yul\":5596:5599   */\n      dup11\n        /* \"#utility.yul\":5592:5606   */\n      add\n        /* \"#utility.yul\":5585:5606   */\n      swap10\n      pop\n        /* \"#utility.yul\":5250:5616   */\n      pop\n        /* \"#utility.yul\":5237:5238   */\n      0x01\n        /* \"#utility.yul\":5234:5235   */\n      dup2\n        /* \"#utility.yul\":5230:5239   */\n      add\n        /* \"#utility.yul\":5225:5239   */\n      swap1\n      pop\n        /* \"#utility.yul\":5190:5616   */\n      jump(tag_186)\n    tag_188:\n        /* \"#utility.yul\":5194:5208   */\n      pop\n        /* \"#utility.yul\":5632:5636   */\n      dup3\n        /* \"#utility.yul\":5625:5636   */\n      swap8\n      pop\n        /* \"#utility.yul\":5652:5655   */\n      dup8\n        /* \"#utility.yul\":5645:5655   */\n      swap6\n      pop\n        /* \"#utility.yul\":4754:5661   */\n      pop\n      pop\n      pop\n      pop\n      pop\n        /* \"#utility.yul\":4590:5661   */\n      swap3\n      swap2\n      pop\n      pop\n      jump\t// out\n        /* \"#utility.yul\":5667:6120   */\n    tag_21:\n        /* \"#utility.yul\":5850:5854   */\n      0x00\n        /* \"#utility.yul\":5888:5890   */\n      0x20\n        /* \"#utility.yul\":5877:5886   */\n      dup3\n        /* \"#utility.yul\":5873:5891   */\n      add\n        /* \"#utility.yul\":5865:5891   */\n      swap1\n      pop\n        /* \"#utility.yul\":5937:5946   */\n      dup2\n        /* \"#utility.yul\":5931:5935   */\n      dup2\n        /* \"#utility.yul\":5927:5947   */\n      sub\n        /* \"#utility.yul\":5923:5924   */\n      0x00\n        /* \"#utility.yul\":5912:5921   */\n      dup4\n        /* \"#utility.yul\":5908:5925   */\n      add\n        /* \"#utility.yul\":5901:5948   */\n      mstore\n        /* \"#utility.yul\":5965:6113   */\n      tag_192\n        /* \"#utility.yul\":6108:6112   */\n      dup2\n        /* \"#utility.yul\":6099:6105   */\n      dup5\n        /* \"#utility.yul\":5965:6113   */\n      tag_98\n      jump\t// in\n    tag_192:\n        /* \"#utility.yul\":5957:6113   */\n      swap1\n      pop\n        /* \"#utility.yul\":5667:6120   */\n      swap3\n      swap2\n      pop\n      pop\n      jump\t// out\n        /* \"#utility.yul\":6126:6243   */\n    tag_99:\n        /* \"#utility.yul\":6235:6236   */\n      0x00\n        /* \"#utility.yul\":6232:6233   */\n      dup1\n        /* \"#utility.yul\":6225:6237   */\n      revert\n        /* \"#utility.yul\":6249:6429   */\n    tag_100:\n        /* \"#utility.yul\":6297:6374   */\n      0x4e487b7100000000000000000000000000000000000000000000000000000000\n        /* \"#utility.yul\":6294:6295   */\n      0x00\n        /* \"#utility.yul\":6287:6375   */\n      mstore\n        /* \"#utility.yul\":6394:6398   */\n      0x41\n        /* \"#utility.yul\":6391:6392   */\n      0x04\n        /* \"#utility.yul\":6384:6399   */\n      mstore\n        /* \"#utility.yul\":6418:6422   */\n      0x24\n        /* \"#utility.yul\":6415:6416   */\n      0x00\n        /* \"#utility.yul\":6408:6423   */\n      revert\n        /* \"#utility.yul\":6435:6716   */\n    tag_101:\n        /* \"#utility.yul\":6518:6545   */\n      tag_196\n        /* \"#utility.yul\":6540:6544   */\n      dup3\n        /* \"#utility.yul\":6518:6545   */\n      tag_93\n      jump\t// in\n    tag_196:\n        /* \"#utility.yul\":6510:6516   */\n      dup2\n        /* \"#utility.yul\":6506:6546   */\n      add\n        /* \"#utility.yul\":6648:6654   */\n      dup2\n        /* \"#utility.yul\":6636:6646   */\n      dup2\n        /* \"#utility.yul\":6633:6655   */\n      lt\n        /* \"#utility.yul\":6612:6630   */\n      0xffffffffffffffff\n        /* \"#utility.yul\":6600:6610   */\n      dup3\n        /* \"#utility.yul\":6597:6631   */\n      gt\n        /* \"#utility.yul\":6594:6656   */\n      or\n        /* \"#utility.yul\":6591:6679   */\n      iszero\n      tag_197\n      jumpi\n        /* \"#utility.yul\":6659:6677   */\n      tag_198\n      tag_100\n      jump\t// in\n    tag_198:\n        /* \"#utility.yul\":6591:6679   */\n    tag_197:\n        /* \"#utility.yul\":6699:6709   */\n      dup1\n        /* \"#utility.yul\":6695:6697   */\n      0x40\n        /* \"#utility.yul\":6688:6710   */\n      mstore\n        /* \"#utility.yul\":6478:6716   */\n      pop\n        /* \"#utility.yul\":6435:6716   */\n      pop\n      pop\n      jump\t// out\n        /* \"#utility.yul\":6722:6851   */\n    tag_102:\n        /* \"#utility.yul\":6756:6762   */\n      0x00\n        /* \"#utility.yul\":6783:6803   */\n      tag_200\n      tag_77\n      jump\t// in\n    tag_200:\n        /* \"#utility.yul\":6773:6803   */\n      swap1\n      pop\n        /* \"#utility.yul\":6812:6845   */\n      tag_201\n        /* \"#utility.yul\":6840:6844   */\n      dup3\n        /* \"#utility.yul\":6832:6838   */\n      dup3\n        /* \"#utility.yul\":6812:6845   */\n      tag_101\n      jump\t// in\n    tag_201:\n        /* \"#utility.yul\":6722:6851   */\n      swap2\n      swap1\n      pop\n      jump\t// out\n        /* \"#utility.yul\":6857:6974   */\n    tag_103:\n        /* \"#utility.yul\":6966:6967   */\n      0x00\n        /* \"#utility.yul\":6963:6964   */\n      dup1\n        /* \"#utility.yul\":6956:6968   */\n      revert\n        /* \"#utility.yul\":6980:7097   */\n    tag_104:\n        /* \"#utility.yul\":7089:7090   */\n      0x00\n        /* \"#utility.yul\":7086:7087   */\n      dup1\n        /* \"#utility.yul\":7079:7091   */\n      revert\n        /* \"#utility.yul\":7103:7220   */\n    tag_105:\n        /* \"#utility.yul\":7212:7213   */\n      0x00\n        /* \"#utility.yul\":7209:7210   */\n      dup1\n        /* \"#utility.yul\":7202:7214   */\n      revert\n        /* \"#utility.yul\":7226:7534   */\n    tag_106:\n        /* \"#utility.yul\":7288:7292   */\n      0x00\n        /* \"#utility.yul\":7378:7396   */\n      0xffffffffffffffff\n        /* \"#utility.yul\":7370:7376   */\n      dup3\n        /* \"#utility.yul\":7367:7397   */\n      gt\n        /* \"#utility.yul\":7364:7420   */\n      iszero\n      tag_206\n      jumpi\n        /* \"#utility.yul\":7400:7418   */\n      tag_207\n      tag_100\n      jump\t// in\n    tag_207:\n        /* \"#utility.yul\":7364:7420   */\n    tag_206:\n        /* \"#utility.yul\":7438:7467   */\n      tag_208\n        /* \"#utility.yul\":7460:7466   */\n      dup3\n        /* \"#utility.yul\":7438:7467   */\n      tag_93\n      jump\t// in\n    tag_208:\n        /* \"#utility.yul\":7430:7467   */\n      swap1\n      pop\n        /* \"#utility.yul\":7522:7526   */\n      0x20\n        /* \"#utility.yul\":7516:7520   */\n      dup2\n        /* \"#utility.yul\":7512:7527   */\n      add\n        /* \"#utility.yul\":7504:7527   */\n      swap1\n      pop\n        /* \"#utility.yul\":7226:7534   */\n      swap2\n      swap1\n      pop\n      jump\t// out\n        /* \"#utility.yul\":7540:7686   */\n    tag_107:\n        /* \"#utility.yul\":7637:7643   */\n      dup3\n        /* \"#utility.yul\":7632:7635   */\n      dup2\n        /* \"#utility.yul\":7627:7630   */\n      dup4\n        /* \"#utility.yul\":7614:7644   */\n      calldatacopy\n        /* \"#utility.yul\":7678:7679   */\n      0x00\n        /* \"#utility.yul\":7669:7675   */\n      dup4\n        /* \"#utility.yul\":7664:7667   */\n      dup4\n        /* \"#utility.yul\":7660:7676   */\n      add\n        /* \"#utility.yul\":7653:7680   */\n      mstore\n        /* \"#utility.yul\":7540:7686   */\n      pop\n      pop\n      pop\n      jump\t// out\n        /* \"#utility.yul\":7692:8117   */\n    tag_108:\n        /* \"#utility.yul\":7770:7775   */\n      0x00\n        /* \"#utility.yul\":7795:7861   */\n      tag_211\n        /* \"#utility.yul\":7811:7860   */\n      tag_212\n        /* \"#utility.yul\":7853:7859   */\n      dup5\n        /* \"#utility.yul\":7811:7860   */\n      tag_106\n      jump\t// in\n    tag_212:\n        /* \"#utility.yul\":7795:7861   */\n      tag_102\n      jump\t// in\n    tag_211:\n        /* \"#utility.yul\":7786:7861   */\n      swap1\n      pop\n        /* \"#utility.yul\":7884:7890   */\n      dup3\n        /* \"#utility.yul\":7877:7882   */\n      dup2\n        /* \"#utility.yul\":7870:7891   */\n      mstore\n        /* \"#utility.yul\":7922:7926   */\n      0x20\n        /* \"#utility.yul\":7915:7920   */\n      dup2\n        /* \"#utility.yul\":7911:7927   */\n      add\n        /* \"#utility.yul\":7960:7963   */\n      dup5\n        /* \"#utility.yul\":7951:7957   */\n      dup5\n        /* \"#utility.yul\":7946:7949   */\n      dup5\n        /* \"#utility.yul\":7942:7958   */\n      add\n        /* \"#utility.yul\":7939:7964   */\n      gt\n        /* \"#utility.yul\":7936:8048   */\n      iszero\n      tag_213\n      jumpi\n        /* \"#utility.yul\":7967:8046   */\n      tag_214\n      tag_105\n      jump\t// in\n    tag_214:\n        /* \"#utility.yul\":7936:8048   */\n    tag_213:\n        /* \"#utility.yul\":8057:8111   */\n      tag_215\n        /* \"#utility.yul\":8104:8110   */\n      dup5\n        /* \"#utility.yul\":8099:8102   */\n      dup3\n        /* \"#utility.yul\":8094:8097   */\n      dup6\n        /* \"#utility.yul\":8057:8111   */\n      tag_107\n      jump\t// in\n    tag_215:\n        /* \"#utility.yul\":7776:8117   */\n      pop\n        /* \"#utility.yul\":7692:8117   */\n      swap4\n      swap3\n      pop\n      pop\n      pop\n      jump\t// out\n        /* \"#utility.yul\":8137:8477   */\n    tag_109:\n        /* \"#utility.yul\":8193:8198   */\n      0x00\n        /* \"#utility.yul\":8242:8245   */\n      dup3\n        /* \"#utility.yul\":8235:8239   */\n      0x1f\n        /* \"#utility.yul\":8227:8233   */\n      dup4\n        /* \"#utility.yul\":8223:8240   */\n      add\n        /* \"#utility.yul\":8219:8246   */\n      slt\n        /* \"#utility.yul\":8209:8331   */\n      tag_217\n      jumpi\n        /* \"#utility.yul\":8250:8329   */\n      tag_218\n      tag_104\n      jump\t// in\n    tag_218:\n        /* \"#utility.yul\":8209:8331   */\n    tag_217:\n        /* \"#utility.yul\":8367:8373   */\n      dup2\n        /* \"#utility.yul\":8354:8374   */\n      calldataload\n        /* \"#utility.yul\":8392:8471   */\n      tag_219\n        /* \"#utility.yul\":8467:8470   */\n      dup5\n        /* \"#utility.yul\":8459:8465   */\n      dup3\n        /* \"#utility.yul\":8452:8456   */\n      0x20\n        /* \"#utility.yul\":8444:8450   */\n      dup7\n        /* \"#utility.yul\":8440:8457   */\n      add\n        /* \"#utility.yul\":8392:8471   */\n      tag_108\n      jump\t// in\n    tag_219:\n        /* \"#utility.yul\":8383:8471   */\n      swap2\n      pop\n        /* \"#utility.yul\":8199:8477   */\n      pop\n        /* \"#utility.yul\":8137:8477   */\n      swap3\n      swap2\n      pop\n      pop\n      jump\t// out\n        /* \"#utility.yul\":8520:9600   */\n    tag_110:\n        /* \"#utility.yul\":8589:8594   */\n      0x00\n        /* \"#utility.yul\":8633:8637   */\n      0x60\n        /* \"#utility.yul\":8621:8630   */\n      dup3\n        /* \"#utility.yul\":8616:8619   */\n      dup5\n        /* \"#utility.yul\":8612:8631   */\n      sub\n        /* \"#utility.yul\":8608:8638   */\n      slt\n        /* \"#utility.yul\":8605:8722   */\n      iszero\n      tag_221\n      jumpi\n        /* \"#utility.yul\":8641:8720   */\n      tag_222\n      tag_99\n      jump\t// in\n    tag_222:\n        /* \"#utility.yul\":8605:8722   */\n    tag_221:\n        /* \"#utility.yul\":8740:8761   */\n      tag_223\n        /* \"#utility.yul\":8756:8760   */\n      0x60\n        /* \"#utility.yul\":8740:8761   */\n      tag_102\n      jump\t// in\n    tag_223:\n        /* \"#utility.yul\":8731:8761   */\n      swap1\n      pop\n        /* \"#utility.yul\":8819:8820   */\n      0x00\n        /* \"#utility.yul\":8859:8908   */\n      tag_224\n        /* \"#utility.yul\":8904:8907   */\n      dup5\n        /* \"#utility.yul\":8895:8901   */\n      dup3\n        /* \"#utility.yul\":8884:8893   */\n      dup6\n        /* \"#utility.yul\":8880:8902   */\n      add\n        /* \"#utility.yul\":8859:8908   */\n      tag_83\n      jump\t// in\n    tag_224:\n        /* \"#utility.yul\":8852:8856   */\n      0x00\n        /* \"#utility.yul\":8845:8850   */\n      dup4\n        /* \"#utility.yul\":8841:8857   */\n      add\n        /* \"#utility.yul\":8834:8909   */\n      mstore\n        /* \"#utility.yul\":8771:8920   */\n      pop\n        /* \"#utility.yul\":9011:9013   */\n      0x20\n        /* \"#utility.yul\":9000:9009   */\n      dup3\n        /* \"#utility.yul\":8996:9014   */\n      add\n        /* \"#utility.yul\":8983:9015   */\n      calldataload\n        /* \"#utility.yul\":9042:9060   */\n      0xffffffffffffffff\n        /* \"#utility.yul\":9034:9040   */\n      dup2\n        /* \"#utility.yul\":9031:9061   */\n      gt\n        /* \"#utility.yul\":9028:9145   */\n      iszero\n      tag_225\n      jumpi\n        /* \"#utility.yul\":9064:9143   */\n      tag_226\n      tag_103\n      jump\t// in\n    tag_226:\n        /* \"#utility.yul\":9028:9145   */\n    tag_225:\n        /* \"#utility.yul\":9184:9243   */\n      tag_227\n        /* \"#utility.yul\":9239:9242   */\n      dup5\n        /* \"#utility.yul\":9230:9236   */\n      dup3\n        /* \"#utility.yul\":9219:9228   */\n      dup6\n        /* \"#utility.yul\":9215:9237   */\n      add\n        /* \"#utility.yul\":9184:9243   */\n      tag_109\n      jump\t// in\n    tag_227:\n        /* \"#utility.yul\":9177:9181   */\n      0x20\n        /* \"#utility.yul\":9170:9175   */\n      dup4\n        /* \"#utility.yul\":9166:9182   */\n      add\n        /* \"#utility.yul\":9159:9244   */\n      mstore\n        /* \"#utility.yul\":8930:9255   */\n      pop\n        /* \"#utility.yul\":9349:9351   */\n      0x40\n        /* \"#utility.yul\":9338:9347   */\n      dup3\n        /* \"#utility.yul\":9334:9352   */\n      add\n        /* \"#utility.yul\":9321:9353   */\n      calldataload\n        /* \"#utility.yul\":9380:9398   */\n      0xffffffffffffffff\n        /* \"#utility.yul\":9372:9378   */\n      dup2\n        /* \"#utility.yul\":9369:9399   */\n      gt\n        /* \"#utility.yul\":9366:9483   */\n      iszero\n      tag_228\n      jumpi\n        /* \"#utility.yul\":9402:9481   */\n      tag_229\n      tag_103\n      jump\t// in\n    tag_229:\n        /* \"#utility.yul\":9366:9483   */\n    tag_228:\n        /* \"#utility.yul\":9522:9581   */\n      tag_230\n        /* \"#utility.yul\":9577:9580   */\n      dup5\n        /* \"#utility.yul\":9568:9574   */\n      dup3\n        /* \"#utility.yul\":9557:9566   */\n      dup6\n        /* \"#utility.yul\":9553:9575   */\n      add\n        /* \"#utility.yul\":9522:9581   */\n      tag_109\n      jump\t// in\n    tag_230:\n        /* \"#utility.yul\":9515:9519   */\n      0x40\n        /* \"#utility.yul\":9508:9513   */\n      dup4\n        /* \"#utility.yul\":9504:9520   */\n      add\n        /* \"#utility.yul\":9497:9582   */\n      mstore\n        /* \"#utility.yul\":9265:9593   */\n      pop\n        /* \"#utility.yul\":8520:9600   */\n      swap3\n      swap2\n      pop\n      pop\n      jump\t// out\n        /* \"#utility.yul\":9606:10135   */\n    tag_24:\n        /* \"#utility.yul\":9685:9691   */\n      0x00\n        /* \"#utility.yul\":9734:9736   */\n      0x20\n        /* \"#utility.yul\":9722:9731   */\n      dup3\n        /* \"#utility.yul\":9713:9720   */\n      dup5\n        /* \"#utility.yul\":9709:9732   */\n      sub\n        /* \"#utility.yul\":9705:9737   */\n      slt\n        /* \"#utility.yul\":9702:9821   */\n      iszero\n      tag_232\n      jumpi\n        /* \"#utility.yul\":9740:9819   */\n      tag_233\n      tag_78\n      jump\t// in\n    tag_233:\n        /* \"#utility.yul\":9702:9821   */\n    tag_232:\n        /* \"#utility.yul\":9888:9889   */\n      0x00\n        /* \"#utility.yul\":9877:9886   */\n      dup3\n        /* \"#utility.yul\":9873:9890   */\n      add\n        /* \"#utility.yul\":9860:9891   */\n      calldataload\n        /* \"#utility.yul\":9918:9936   */\n      0xffffffffffffffff\n        /* \"#utility.yul\":9910:9916   */\n      dup2\n        /* \"#utility.yul\":9907:9937   */\n      gt\n        /* \"#utility.yul\":9904:10021   */\n      iszero\n      tag_234\n      jumpi\n        /* \"#utility.yul\":9940:10019   */\n      tag_235\n      tag_79\n      jump\t// in\n    tag_235:\n        /* \"#utility.yul\":9904:10021   */\n    tag_234:\n        /* \"#utility.yul\":10045:10118   */\n      tag_236\n        /* \"#utility.yul\":10110:10117   */\n      dup5\n        /* \"#utility.yul\":10101:10107   */\n      dup3\n        /* \"#utility.yul\":10090:10099   */\n      dup6\n        /* \"#utility.yul\":10086:10108   */\n      add\n        /* \"#utility.yul\":10045:10118   */\n      tag_110\n      jump\t// in\n    tag_236:\n        /* \"#utility.yul\":10035:10118   */\n      swap2\n      pop\n        /* \"#utility.yul\":9831:10128   */\n      pop\n        /* \"#utility.yul\":9606:10135   */\n      swap3\n      swap2\n      pop\n      pop\n      jump\t// out\n        /* \"#utility.yul\":10141:10255   */\n    tag_111:\n        /* \"#utility.yul\":10208:10214   */\n      0x00\n        /* \"#utility.yul\":10242:10247   */\n      dup2\n        /* \"#utility.yul\":10236:10248   */\n      mload\n        /* \"#utility.yul\":10226:10248   */\n      swap1\n      pop\n        /* \"#utility.yul\":10141:10255   */\n      swap2\n      swap1\n      pop\n      jump\t// out\n        /* \"#utility.yul\":10261:10445   */\n    tag_112:\n        /* \"#utility.yul\":10360:10371   */\n      0x00\n        /* \"#utility.yul\":10394:10400   */\n      dup3\n        /* \"#utility.yul\":10389:10392   */\n      dup3\n        /* \"#utility.yul\":10382:10401   */\n      mstore\n        /* \"#utility.yul\":10434:10438   */\n      0x20\n        /* \"#utility.yul\":10429:10432   */\n      dup3\n        /* \"#utility.yul\":10425:10439   */\n      add\n        /* \"#utility.yul\":10410:10439   */\n      swap1\n      pop\n        /* \"#utility.yul\":10261:10445   */\n      swap3\n      swap2\n      pop\n      pop\n      jump\t// out\n        /* \"#utility.yul\":10451:10583   */\n    tag_113:\n        /* \"#utility.yul\":10518:10522   */\n      0x00\n        /* \"#utility.yul\":10541:10544   */\n      dup2\n        /* \"#utility.yul\":10533:10544   */\n      swap1\n      pop\n        /* \"#utility.yul\":10571:10575   */\n      0x20\n        /* \"#utility.yul\":10566:10569   */\n      dup3\n        /* \"#utility.yul\":10562:10576   */\n      add\n        /* \"#utility.yul\":10554:10576   */\n      swap1\n      pop\n        /* \"#utility.yul\":10451:10583   */\n      swap2\n      swap1\n      pop\n      jump\t// out\n        /* \"#utility.yul\":10589:10768   */\n    tag_114:\n        /* \"#utility.yul\":10658:10668   */\n      0x00\n        /* \"#utility.yul\":10679:10725   */\n      tag_241\n        /* \"#utility.yul\":10721:10724   */\n      dup4\n        /* \"#utility.yul\":10713:10719   */\n      dup4\n        /* \"#utility.yul\":10679:10725   */\n      tag_89\n      jump\t// in\n    tag_241:\n        /* \"#utility.yul\":10757:10761   */\n      0x20\n        /* \"#utility.yul\":10752:10755   */\n      dup4\n        /* \"#utility.yul\":10748:10762   */\n      add\n        /* \"#utility.yul\":10734:10762   */\n      swap1\n      pop\n        /* \"#utility.yul\":10589:10768   */\n      swap3\n      swap2\n      pop\n      pop\n      jump\t// out\n        /* \"#utility.yul\":10774:10887   */\n    tag_115:\n        /* \"#utility.yul\":10844:10848   */\n      0x00\n        /* \"#utility.yul\":10876:10880   */\n      0x20\n        /* \"#utility.yul\":10871:10874   */\n      dup3\n        /* \"#utility.yul\":10867:10881   */\n      add\n        /* \"#utility.yul\":10859:10881   */\n      swap1\n      pop\n        /* \"#utility.yul\":10774:10887   */\n      swap2\n      swap1\n      pop\n      jump\t// out\n        /* \"#utility.yul\":10923:11655   */\n    tag_116:\n        /* \"#utility.yul\":11042:11045   */\n      0x00\n        /* \"#utility.yul\":11071:11125   */\n      tag_244\n        /* \"#utility.yul\":11119:11124   */\n      dup3\n        /* \"#utility.yul\":11071:11125   */\n      tag_111\n      jump\t// in\n    tag_244:\n        /* \"#utility.yul\":11141:11227   */\n      tag_245\n        /* \"#utility.yul\":11220:11226   */\n      dup2\n        /* \"#utility.yul\":11215:11218   */\n      dup6\n        /* \"#utility.yul\":11141:11227   */\n      tag_112\n      jump\t// in\n    tag_245:\n        /* \"#utility.yul\":11134:11227   */\n      swap4\n      pop\n        /* \"#utility.yul\":11251:11307   */\n      tag_246\n        /* \"#utility.yul\":11301:11306   */\n      dup4\n        /* \"#utility.yul\":11251:11307   */\n      tag_113\n      jump\t// in\n    tag_246:\n        /* \"#utility.yul\":11330:11337   */\n      dup1\n        /* \"#utility.yul\":11361:11362   */\n      0x00\n        /* \"#utility.yul\":11346:11630   */\n    tag_247:\n        /* \"#utility.yul\":11371:11377   */\n      dup4\n        /* \"#utility.yul\":11368:11369   */\n      dup2\n        /* \"#utility.yul\":11365:11378   */\n      lt\n        /* \"#utility.yul\":11346:11630   */\n      iszero\n      tag_249\n      jumpi\n        /* \"#utility.yul\":11447:11453   */\n      dup2\n        /* \"#utility.yul\":11441:11454   */\n      mload\n        /* \"#utility.yul\":11474:11537   */\n      tag_250\n        /* \"#utility.yul\":11533:11536   */\n      dup9\n        /* \"#utility.yul\":11518:11531   */\n      dup3\n        /* \"#utility.yul\":11474:11537   */\n      tag_114\n      jump\t// in\n    tag_250:\n        /* \"#utility.yul\":11467:11537   */\n      swap8\n      pop\n        /* \"#utility.yul\":11560:11620   */\n      tag_251\n        /* \"#utility.yul\":11613:11619   */\n      dup4\n        /* \"#utility.yul\":11560:11620   */\n      tag_115\n      jump\t// in\n    tag_251:\n        /* \"#utility.yul\":11550:11620   */\n      swap3\n      pop\n        /* \"#utility.yul\":11406:11630   */\n      pop\n        /* \"#utility.yul\":11393:11394   */\n      0x01\n        /* \"#utility.yul\":11390:11391   */\n      dup2\n        /* \"#utility.yul\":11386:11395   */\n      add\n        /* \"#utility.yul\":11381:11395   */\n      swap1\n      pop\n        /* \"#utility.yul\":11346:11630   */\n      jump(tag_247)\n    tag_249:\n        /* \"#utility.yul\":11350:11364   */\n      pop\n        /* \"#utility.yul\":11646:11649   */\n      dup6\n        /* \"#utility.yul\":11639:11649   */\n      swap4\n      pop\n        /* \"#utility.yul\":11047:11655   */\n      pop\n      pop\n      pop\n        /* \"#utility.yul\":10923:11655   */\n      swap3\n      swap2\n      pop\n      pop\n      jump\t// out\n        /* \"#utility.yul\":11661:12034   */\n    tag_29:\n        /* \"#utility.yul\":11804:11808   */\n      0x00\n        /* \"#utility.yul\":11842:11844   */\n      0x20\n        /* \"#utility.yul\":11831:11840   */\n      dup3\n        /* \"#utility.yul\":11827:11845   */\n      add\n        /* \"#utility.yul\":11819:11845   */\n      swap1\n      pop\n        /* \"#utility.yul\":11891:11900   */\n      dup2\n        /* \"#utility.yul\":11885:11889   */\n      dup2\n        /* \"#utility.yul\":11881:11901   */\n      sub\n        /* \"#utility.yul\":11877:11878   */\n      0x00\n        /* \"#utility.yul\":11866:11875   */\n      dup4\n        /* \"#utility.yul\":11862:11879   */\n      add\n        /* \"#utility.yul\":11855:11902   */\n      mstore\n        /* \"#utility.yul\":11919:12027   */\n      tag_253\n        /* \"#utility.yul\":12022:12026   */\n      dup2\n        /* \"#utility.yul\":12013:12019   */\n      dup5\n        /* \"#utility.yul\":11919:12027   */\n      tag_116\n      jump\t// in\n    tag_253:\n        /* \"#utility.yul\":11911:12027   */\n      swap1\n      pop\n        /* \"#utility.yul\":11661:12034   */\n      swap3\n      swap2\n      pop\n      pop\n      jump\t// out\n        /* \"#utility.yul\":12040:12209   */\n    tag_117:\n        /* \"#utility.yul\":12124:12135   */\n      0x00\n        /* \"#utility.yul\":12158:12164   */\n      dup3\n        /* \"#utility.yul\":12153:12156   */\n      dup3\n        /* \"#utility.yul\":12146:12165   */\n      mstore\n        /* \"#utility.yul\":12198:12202   */\n      0x20\n        /* \"#utility.yul\":12193:12196   */\n      dup3\n        /* \"#utility.yul\":12189:12203   */\n      add\n        /* \"#utility.yul\":12174:12203   */\n      swap1\n      pop\n        /* \"#utility.yul\":12040:12209   */\n      swap3\n      swap2\n      pop\n      pop\n      jump\t// out\n        /* \"#utility.yul\":12215:12379   */\n    tag_118:\n        /* \"#utility.yul\":12355:12371   */\n      0x4e6f7420417574686f72697a6564000000000000000000000000000000000000\n        /* \"#utility.yul\":12351:12352   */\n      0x00\n        /* \"#utility.yul\":12343:12349   */\n      dup3\n        /* \"#utility.yul\":12339:12353   */\n      add\n        /* \"#utility.yul\":12332:12372   */\n      mstore\n        /* \"#utility.yul\":12215:12379   */\n      pop\n      jump\t// out\n        /* \"#utility.yul\":12385:12751   */\n    tag_119:\n        /* \"#utility.yul\":12527:12530   */\n      0x00\n        /* \"#utility.yul\":12548:12615   */\n      tag_257\n        /* \"#utility.yul\":12612:12614   */\n      0x0e\n        /* \"#utility.yul\":12607:12610   */\n      dup4\n        /* \"#utility.yul\":12548:12615   */\n      tag_117\n      jump\t// in\n    tag_257:\n        /* \"#utility.yul\":12541:12615   */\n      swap2\n      pop\n        /* \"#utility.yul\":12624:12717   */\n      tag_258\n        /* \"#utility.yul\":12713:12716   */\n      dup3\n        /* \"#utility.yul\":12624:12717   */\n      tag_118\n      jump\t// in\n    tag_258:\n        /* \"#utility.yul\":12742:12744   */\n      0x20\n        /* \"#utility.yul\":12737:12740   */\n      dup3\n        /* \"#utility.yul\":12733:12745   */\n      add\n        /* \"#utility.yul\":12726:12745   */\n      swap1\n      pop\n        /* \"#utility.yul\":12385:12751   */\n      swap2\n      swap1\n      pop\n      jump\t// out\n        /* \"#utility.yul\":12757:13176   */\n    tag_33:\n        /* \"#utility.yul\":12923:12927   */\n      0x00\n        /* \"#utility.yul\":12961:12963   */\n      0x20\n        /* \"#utility.yul\":12950:12959   */\n      dup3\n        /* \"#utility.yul\":12946:12964   */\n      add\n        /* \"#utility.yul\":12938:12964   */\n      swap1\n      pop\n        /* \"#utility.yul\":13010:13019   */\n      dup2\n        /* \"#utility.yul\":13004:13008   */\n      dup2\n        /* \"#utility.yul\":13000:13020   */\n      sub\n        /* \"#utility.yul\":12996:12997   */\n      0x00\n        /* \"#utility.yul\":12985:12994   */\n      dup4\n        /* \"#utility.yul\":12981:12998   */\n      add\n        /* \"#utility.yul\":12974:13021   */\n      mstore\n        /* \"#utility.yul\":13038:13169   */\n      tag_260\n        /* \"#utility.yul\":13164:13168   */\n      dup2\n        /* \"#utility.yul\":13038:13169   */\n      tag_119\n      jump\t// in\n    tag_260:\n        /* \"#utility.yul\":13030:13169   */\n      swap1\n      pop\n        /* \"#utility.yul\":12757:13176   */\n      swap2\n      swap1\n      pop\n      jump\t// out\n        /* \"#utility.yul\":13182:13362   */\n    tag_120:\n        /* \"#utility.yul\":13230:13307   */\n      0x4e487b7100000000000000000000000000000000000000000000000000000000\n        /* \"#utility.yul\":13227:13228   */\n      0x00\n        /* \"#utility.yul\":13220:13308   */\n      mstore\n        /* \"#utility.yul\":13327:13331   */\n      0x22\n        /* \"#utility.yul\":13324:13325   */\n      0x04\n        /* \"#utility.yul\":13317:13332   */\n      mstore\n        /* \"#utility.yul\":13351:13355   */\n      0x24\n        /* \"#utility.yul\":13348:13349   */\n      0x00\n        /* \"#utility.yul\":13341:13356   */\n      revert\n        /* \"#utility.yul\":13368:13688   */\n    tag_51:\n        /* \"#utility.yul\":13412:13418   */\n      0x00\n        /* \"#utility.yul\":13449:13450   */\n      0x02\n        /* \"#utility.yul\":13443:13447   */\n      dup3\n        /* \"#utility.yul\":13439:13451   */\n      div\n        /* \"#utility.yul\":13429:13451   */\n      swap1\n      pop\n        /* \"#utility.yul\":13496:13497   */\n      0x01\n        /* \"#utility.yul\":13490:13494   */\n      dup3\n        /* \"#utility.yul\":13486:13498   */\n      and\n        /* \"#utility.yul\":13517:13535   */\n      dup1\n        /* \"#utility.yul\":13507:13588   */\n      tag_263\n      jumpi\n        /* \"#utility.yul\":13573:13577   */\n      0x7f\n        /* \"#utility.yul\":13565:13571   */\n      dup3\n        /* \"#utility.yul\":13561:13578   */\n      and\n        /* \"#utility.yul\":13551:13578   */\n      swap2\n      pop\n        /* \"#utility.yul\":13507:13588   */\n    tag_263:\n        /* \"#utility.yul\":13635:13637   */\n      0x20\n        /* \"#utility.yul\":13627:13633   */\n      dup3\n        /* \"#utility.yul\":13624:13638   */\n      lt\n        /* \"#utility.yul\":13604:13622   */\n      dup2\n        /* \"#utility.yul\":13601:13639   */\n      sub\n        /* \"#utility.yul\":13598:13682   */\n      tag_264\n      jumpi\n        /* \"#utility.yul\":13654:13672   */\n      tag_265\n      tag_120\n      jump\t// in\n    tag_265:\n        /* \"#utility.yul\":13598:13682   */\n    tag_264:\n        /* \"#utility.yul\":13419:13688   */\n      pop\n        /* \"#utility.yul\":13368:13688   */\n      swap2\n      swap1\n      pop\n      jump\t// out\n        /* \"#utility.yul\":13694:13835   */\n    tag_121:\n        /* \"#utility.yul\":13743:13747   */\n      0x00\n        /* \"#utility.yul\":13766:13769   */\n      dup2\n        /* \"#utility.yul\":13758:13769   */\n      swap1\n      pop\n        /* \"#utility.yul\":13789:13792   */\n      dup2\n        /* \"#utility.yul\":13786:13787   */\n      0x00\n        /* \"#utility.yul\":13779:13793   */\n      mstore\n        /* \"#utility.yul\":13823:13827   */\n      0x20\n        /* \"#utility.yul\":13820:13821   */\n      0x00\n        /* \"#utility.yul\":13810:13828   */\n      keccak256\n        /* \"#utility.yul\":13802:13828   */\n      swap1\n      pop\n        /* \"#utility.yul\":13694:13835   */\n      swap2\n      swap1\n      pop\n      jump\t// out\n        /* \"#utility.yul\":13841:13934   */\n    tag_122:\n        /* \"#utility.yul\":13878:13884   */\n      0x00\n        /* \"#utility.yul\":13925:13927   */\n      0x20\n        /* \"#utility.yul\":13920:13922   */\n      0x1f\n        /* \"#utility.yul\":13913:13918   */\n      dup4\n        /* \"#utility.yul\":13909:13923   */\n      add\n        /* \"#utility.yul\":13905:13928   */\n      div\n        /* \"#utility.yul\":13895:13928   */\n      swap1\n      pop\n        /* \"#utility.yul\":13841:13934   */\n      swap2\n      swap1\n      pop\n      jump\t// out\n        /* \"#utility.yul\":13940:14047   */\n    tag_123:\n        /* \"#utility.yul\":13984:13992   */\n      0x00\n        /* \"#utility.yul\":14034:14039   */\n      dup3\n        /* \"#utility.yul\":14028:14032   */\n      dup3\n        /* \"#utility.yul\":14024:14040   */\n      shl\n        /* \"#utility.yul\":14003:14040   */\n      swap1\n      pop\n        /* \"#utility.yul\":13940:14047   */\n      swap3\n      swap2\n      pop\n      pop\n      jump\t// out\n        /* \"#utility.yul\":14053:14446   */\n    tag_124:\n        /* \"#utility.yul\":14122:14128   */\n      0x00\n        /* \"#utility.yul\":14172:14173   */\n      0x08\n        /* \"#utility.yul\":14160:14170   */\n      dup4\n        /* \"#utility.yul\":14156:14174   */\n      mul\n        /* \"#utility.yul\":14195:14292   */\n      tag_270\n        /* \"#utility.yul\":14225:14291   */\n      0xffffffffffffffffffffffffffffffffffffffffffffffffffffffffffffffff\n        /* \"#utility.yul\":14214:14223   */\n      dup3\n        /* \"#utility.yul\":14195:14292   */\n      tag_123\n      jump\t// in\n    tag_270:\n        /* \"#utility.yul\":14313:14352   */\n      tag_271\n        /* \"#utility.yul\":14343:14351   */\n      dup7\n        /* \"#utility.yul\":14332:14341   */\n      dup4\n        /* \"#utility.yul\":14313:14352   */\n      tag_123\n      jump\t// in\n    tag_271:\n        /* \"#utility.yul\":14301:14352   */\n      swap6\n      pop\n        /* \"#utility.yul\":14385:14389   */\n      dup1\n        /* \"#utility.yul\":14381:14390   */\n      not\n        /* \"#utility.yul\":14374:14379   */\n      dup5\n        /* \"#utility.yul\":14370:14391   */\n      and\n        /* \"#utility.yul\":14361:14391   */\n      swap4\n      pop\n        /* \"#utility.yul\":14434:14438   */\n      dup1\n        /* \"#utility.yul\":14424:14432   */\n      dup7\n        /* \"#utility.yul\":14420:14439   */\n      and\n        /* \"#utility.yul\":14413:14418   */\n      dup5\n        /* \"#utility.yul\":14410:14440   */\n      or\n        /* \"#utility.yul\":14400:14440   */\n      swap3\n      pop\n        /* \"#utility.yul\":14129:14446   */\n      pop\n      pop\n        /* \"#utility.yul\":14053:14446   */\n      swap4\n      swap3\n      pop\n      pop\n      pop\n      jump\t// out\n        /* \"#utility.yul\":14452:14529   */\n    tag_125:\n        /* \"#utility.yul\":14489:14496   */\n      0x00\n        /* \"#utility.yul\":14518:14523   */\n      dup2\n        /* \"#utility.yul\":14507:14523   */\n      swap1\n      pop\n        /* \"#utility.yul\":14452:14529   */\n      swap2\n      swap1\n      pop\n      jump\t// out\n        /* \"#utility.yul\":14535:14595   */\n    tag_126:\n        /* \"#utility.yul\":14563:14566   */\n      0x00\n        /* \"#utility.yul\":14584:14589   */\n      dup2\n        /* \"#utility.yul\":14577:14589   */\n      swap1\n      pop\n        /* \"#utility.yul\":14535:14595   */\n      swap2\n      swap1\n      pop\n      jump\t// out\n        /* \"#utility.yul\":14601:14743   */\n    tag_127:\n        /* \"#utility.yul\":14651:14660   */\n      0x00\n        /* \"#utility.yul\":14684:14737   */\n      tag_275\n        /* \"#utility.yul\":14702:14736   */\n      tag_276\n        /* \"#utility.yul\":14711:14735   */\n      tag_277\n        /* \"#utility.yul\":14729:14734   */\n      dup5\n        /* \"#utility.yul\":14711:14735   */\n      tag_125\n      jump\t// in\n    tag_277:\n        /* \"#utility.yul\":14702:14736   */\n      tag_126\n      jump\t// in\n    tag_276:\n        /* \"#utility.yul\":14684:14737   */\n      tag_125\n      jump\t// in\n    tag_275:\n        /* \"#utility.yul\":14671:14737   */\n      swap1\n      pop\n        /* \"#utility.yul\":14601:14743   */\n      swap2\n      swap1\n      pop\n      jump\t// out\n        /* \"#utility.yul\":14749:14824   */\n    tag_128:\n        /* \"#utility.yul\":14792:14795   */\n      0x00\n        /* \"#utility.yul\":14813:14818   */\n      dup2\n        /* \"#utility.yul\":14806:14818   */\n      swap1\n      pop\n        /* \"#utility.yul\":14749:14824   */\n      swap2\n      swap1\n      pop\n      jump\t// out\n        /* \"#utility.yul\":14830:15099   */\n    tag_129:\n        /* \"#utility.yul\":14940:14979   */\n      tag_280\n        /* \"#utility.yul\":14971:14978   */\n      dup4\n        /* \"#utility.yul\":14940:14979   */\n      tag_127\n      jump\t// in\n    tag_280:\n        /* \"#utility.yul\":15001:15092   */\n      tag_281\n        /* \"#utility.yul\":15050:15091   */\n      tag_282\n        /* \"#utility.yul\":15074:15090   */\n      dup3\n        /* \"#utility.yul\":15050:15091   */\n      tag_128\n      jump\t// in\n    tag_282:\n        /* \"#utility.yul\":15042:15048   */\n      dup5\n        /* \"#utility.yul\":15035:15039   */\n      dup5\n        /* \"#utility.yul\":15029:15040   */\n      sload\n        /* \"#utility.yul\":15001:15092   */\n      tag_124\n      jump\t// in\n    tag_281:\n        /* \"#utility.yul\":14995:14999   */\n      dup3\n        /* \"#utility.yul\":14988:15093   */\n      sstore\n        /* \"#utility.yul\":14906:15099   */\n      pop\n        /* \"#utility.yul\":14830:15099   */\n      pop\n      pop\n      pop\n      jump\t// out\n        /* \"#utility.yul\":15105:15178   */\n    tag_130:\n        /* \"#utility.yul\":15150:15153   */\n      0x00\n        /* \"#utility.yul\":15105:15178   */\n      swap1\n      jump\t// out\n        /* \"#utility.yul\":15184:15373   */\n    tag_131:\n        /* \"#utility.yul\":15261:15293   */\n      tag_285\n      tag_130\n      jump\t// in\n    tag_285:\n        /* \"#utility.yul\":15302:15367   */\n      tag_286\n        /* \"#utility.yul\":15360:15366   */\n      dup2\n        /* \"#utility.yul\":15352:15358   */\n      dup5\n        /* \"#utility.yul\":15346:15350   */\n      dup5\n        /* \"#utility.yul\":15302:15367   */\n      tag_129\n      jump\t// in\n    tag_286:\n        /* \"#utility.yul\":15237:15373   */\n      pop\n        /* \"#utility.yul\":15184:15373   */\n      pop\n      pop\n      jump\t// out\n        /* \"#utility.yul\":15379:15565   */\n    tag_132:\n        /* \"#utility.yul\":15439:15559   */\n    tag_288:\n        /* \"#utility.yul\":15456:15459   */\n      dup2\n        /* \"#utility.yul\":15449:15454   */\n      dup2\n        /* \"#utility.yul\":15446:15460   */\n      lt\n        /* \"#utility.yul\":15439:15559   */\n      iszero\n      tag_290\n      jumpi\n        /* \"#utility.yul\":15510:15549   */\n      tag_291\n        /* \"#utility.yul\":15547:15548   */\n      0x00\n        /* \"#utility.yul\":15540:15545   */\n      dup3\n        /* \"#utility.yul\":15510:15549   */\n      tag_131\n      jump\t// in\n    tag_291:\n        /* \"#utility.yul\":15483:15484   */\n      0x01\n        /* \"#utility.yul\":15476:15481   */\n      dup2\n        /* \"#utility.yul\":15472:15485   */\n      add\n        /* \"#utility.yul\":15463:15485   */\n      swap1\n      pop\n        /* \"#utility.yul\":15439:15559   */\n      jump(tag_288)\n    tag_290:\n        /* \"#utility.yul\":15379:15565   */\n      pop\n      pop\n      jump\t// out\n        /* \"#utility.yul\":15571:16114   */\n    tag_133:\n        /* \"#utility.yul\":15672:15674   */\n      0x1f\n        /* \"#utility.yul\":15667:15670   */\n      dup3\n        /* \"#utility.yul\":15664:15675   */\n      gt\n        /* \"#utility.yul\":15661:16107   */\n      iszero\n      tag_293\n      jumpi\n        /* \"#utility.yul\":15706:15744   */\n      tag_294\n        /* \"#utility.yul\":15738:15743   */\n      dup2\n        /* \"#utility.yul\":15706:15744   */\n      tag_121\n      jump\t// in\n    tag_294:\n        /* \"#utility.yul\":15790:15819   */\n      tag_295\n        /* \"#utility.yul\":15808:15818   */\n      dup5\n        /* \"#utility.yul\":15790:15819   */\n      tag_122\n      jump\t// in\n    tag_295:\n        /* \"#utility.yul\":15780:15788   */\n      dup2\n        /* \"#utility.yul\":15776:15820   */\n      add\n        /* \"#utility.yul\":15973:15975   */\n      0x20\n        /* \"#utility.yul\":15961:15971   */\n      dup6\n        /* \"#utility.yul\":15958:15976   */\n      lt\n        /* \"#utility.yul\":15955:16004   */\n      iszero\n      tag_296\n      jumpi\n        /* \"#utility.yul\":15994:16002   */\n      dup2\n        /* \"#utility.yul\":15979:16002   */\n      swap1\n      pop\n        /* \"#utility.yul\":15955:16004   */\n    tag_296:\n        /* \"#utility.yul\":16017:16097   */\n      tag_297\n        /* \"#utility.yul\":16073:16095   */\n      tag_298\n        /* \"#utility.yul\":16091:16094   */\n      dup6\n        /* \"#utility.yul\":16073:16095   */\n      tag_122\n      jump\t// in\n    tag_298:\n        /* \"#utility.yul\":16063:16071   */\n      dup4\n        /* \"#utility.yul\":16059:16096   */\n      add\n        /* \"#utility.yul\":16046:16057   */\n      dup3\n        /* \"#utility.yul\":16017:16097   */\n      tag_132\n      jump\t// in\n    tag_297:\n        /* \"#utility.yul\":15676:16107   */\n      pop\n      pop\n        /* \"#utility.yul\":15661:16107   */\n    tag_293:\n        /* \"#utility.yul\":15571:16114   */\n      pop\n      pop\n      pop\n      jump\t// out\n        /* \"#utility.yul\":16120:16237   */\n    tag_134:\n        /* \"#utility.yul\":16174:16182   */\n      0x00\n        /* \"#utility.yul\":16224:16229   */\n      dup3\n        /* \"#utility.yul\":16218:16222   */\n      dup3\n        /* \"#utility.yul\":16214:16230   */\n      shr\n        /* \"#utility.yul\":16193:16230   */\n      swap1\n      pop\n        /* \"#utility.yul\":16120:16237   */\n      swap3\n      swap2\n      pop\n      pop\n      jump\t// out\n        /* \"#utility.yul\":16243:16412   */\n    tag_135:\n        /* \"#utility.yul\":16287:16293   */\n      0x00\n        /* \"#utility.yul\":16320:16371   */\n      tag_301\n        /* \"#utility.yul\":16368:16369   */\n      0x00\n        /* \"#utility.yul\":16364:16370   */\n      not\n        /* \"#utility.yul\":16356:16361   */\n      dup5\n        /* \"#utility.yul\":16353:16354   */\n      0x08\n        /* \"#utility.yul\":16349:16362   */\n      mul\n        /* \"#utility.yul\":16320:16371   */\n      tag_134\n      jump\t// in\n    tag_301:\n        /* \"#utility.yul\":16316:16372   */\n      not\n        /* \"#utility.yul\":16401:16405   */\n      dup1\n        /* \"#utility.yul\":16395:16399   */\n      dup4\n        /* \"#utility.yul\":16391:16406   */\n      and\n        /* \"#utility.yul\":16381:16406   */\n      swap2\n      pop\n        /* \"#utility.yul\":16294:16412   */\n      pop\n        /* \"#utility.yul\":16243:16412   */\n      swap3\n      swap2\n      pop\n      pop\n      jump\t// out\n        /* \"#utility.yul\":16417:16712   */\n    tag_136:\n        /* \"#utility.yul\":16493:16497   */\n      0x00\n        /* \"#utility.yul\":16639:16668   */\n      tag_303\n        /* \"#utility.yul\":16664:16667   */\n      dup4\n        /* \"#utility.yul\":16658:16662   */\n      dup4\n        /* \"#utility.yul\":16639:16668   */\n      tag_135\n      jump\t// in\n    tag_303:\n        /* \"#utility.yul\":16631:16668   */\n      swap2\n      pop\n        /* \"#utility.yul\":16701:16704   */\n      dup3\n        /* \"#utility.yul\":16698:16699   */\n      0x02\n        /* \"#utility.yul\":16694:16705   */\n      mul\n        /* \"#utility.yul\":16688:16692   */\n      dup3\n        /* \"#utility.yul\":16685:16706   */\n      or\n        /* \"#utility.yul\":16677:16706   */\n      swap1\n      pop\n        /* \"#utility.yul\":16417:16712   */\n      swap3\n      swap2\n      pop\n      pop\n      jump\t// out\n        /* \"#utility.yul\":16717:18112   */\n    tag_69:\n        /* \"#utility.yul\":16834:16871   */\n      tag_305\n        /* \"#utility.yul\":16867:16870   */\n      dup3\n        /* \"#utility.yul\":16834:16871   */\n      tag_90\n      jump\t// in\n    tag_305:\n        /* \"#utility.yul\":16936:16954   */\n      0xffffffffffffffff\n        /* \"#utility.yul\":16928:16934   */\n      dup2\n        /* \"#utility.yul\":16925:16955   */\n      gt\n        /* \"#utility.yul\":16922:16978   */\n      iszero\n      tag_306\n      jumpi\n        /* \"#utility.yul\":16958:16976   */\n      tag_307\n      tag_100\n      jump\t// in\n    tag_307:\n        /* \"#utility.yul\":16922:16978   */\n    tag_306:\n        /* \"#utility.yul\":17002:17040   */\n      tag_308\n        /* \"#utility.yul\":17034:17038   */\n      dup3\n        /* \"#utility.yul\":17028:17039   */\n      sload\n        /* \"#utility.yul\":17002:17040   */\n      tag_51\n      jump\t// in\n    tag_308:\n        /* \"#utility.yul\":17087:17154   */\n      tag_309\n        /* \"#utility.yul\":17147:17153   */\n      dup3\n        /* \"#utility.yul\":17139:17145   */\n      dup3\n        /* \"#utility.yul\":17133:17137   */\n      dup6\n        /* \"#utility.yul\":17087:17154   */\n      tag_133\n      jump\t// in\n    tag_309:\n        /* \"#utility.yul\":17181:17182   */\n      0x00\n        /* \"#utility.yul\":17205:17209   */\n      0x20\n        /* \"#utility.yul\":17192:17209   */\n      swap1\n      pop\n        /* \"#utility.yul\":17237:17239   */\n      0x1f\n        /* \"#utility.yul\":17229:17235   */\n      dup4\n        /* \"#utility.yul\":17226:17240   */\n      gt\n        /* \"#utility.yul\":17254:17255   */\n      0x01\n        /* \"#utility.yul\":17249:17867   */\n      dup2\n      eq\n      tag_311\n      jumpi\n        /* \"#utility.yul\":17911:17912   */\n      0x00\n        /* \"#utility.yul\":17928:17934   */\n      dup5\n        /* \"#utility.yul\":17925:18002   */\n      iszero\n      tag_312\n      jumpi\n        /* \"#utility.yul\":17977:17986   */\n      dup3\n        /* \"#utility.yul\":17972:17975   */\n      dup8\n        /* \"#utility.yul\":17968:17987   */\n      add\n        /* \"#utility.yul\":17962:17988   */\n      mload\n        /* \"#utility.yul\":17953:17988   */\n      swap1\n      pop\n        /* \"#utility.yul\":17925:18002   */\n    tag_312:\n        /* \"#utility.yul\":18028:18095   */\n      tag_313\n        /* \"#utility.yul\":18088:18094   */\n      dup6\n        /* \"#utility.yul\":18081:18086   */\n      dup3\n        /* \"#utility.yul\":18028:18095   */\n      tag_136\n      jump\t// in\n    tag_313:\n        /* \"#utility.yul\":18022:18026   */\n      dup7\n        /* \"#utility.yul\":18015:18096   */\n      sstore\n        /* \"#utility.yul\":17884:18106   */\n      pop\n        /* \"#utility.yul\":17219:18106   */\n      jump(tag_310)\n        /* \"#utility.yul\":17249:17867   */\n    tag_311:\n        /* \"#utility.yul\":17301:17305   */\n      0x1f\n        /* \"#utility.yul\":17297:17306   */\n      not\n        /* \"#utility.yul\":17289:17295   */\n      dup5\n        /* \"#utility.yul\":17285:17307   */\n      and\n        /* \"#utility.yul\":17335:17372   */\n      tag_314\n        /* \"#utility.yul\":17367:17371   */\n      dup7\n        /* \"#utility.yul\":17335:17372   */\n      tag_121\n      jump\t// in\n    tag_314:\n        /* \"#utility.yul\":17394:17395   */\n      0x00\n        /* \"#utility.yul\":17408:17616   */\n    tag_315:\n        /* \"#utility.yul\":17422:17429   */\n      dup3\n        /* \"#utility.yul\":17419:17420   */\n      dup2\n        /* \"#utility.yul\":17416:17430   */\n      lt\n        /* \"#utility.yul\":17408:17616   */\n      iszero\n      tag_317\n      jumpi\n        /* \"#utility.yul\":17501:17510   */\n      dup5\n        /* \"#utility.yul\":17496:17499   */\n      dup10\n        /* \"#utility.yul\":17492:17511   */\n      add\n        /* \"#utility.yul\":17486:17512   */\n      mload\n        /* \"#utility.yul\":17478:17484   */\n      dup3\n        /* \"#utility.yul\":17471:17513   */\n      sstore\n        /* \"#utility.yul\":17552:17553   */\n      0x01\n        /* \"#utility.yul\":17544:17550   */\n      dup3\n        /* \"#utility.yul\":17540:17554   */\n      add\n        /* \"#utility.yul\":17530:17554   */\n      swap2\n      pop\n        /* \"#utility.yul\":17599:17601   */\n      0x20\n        /* \"#utility.yul\":17588:17597   */\n      dup6\n        /* \"#utility.yul\":17584:17602   */\n      add\n        /* \"#utility.yul\":17571:17602   */\n      swap5\n      pop\n        /* \"#utility.yul\":17445:17449   */\n      0x20\n        /* \"#utility.yul\":17442:17443   */\n      dup2\n        /* \"#utility.yul\":17438:17450   */\n      add\n        /* \"#utility.yul\":17433:17450   */\n      swap1\n      pop\n        /* \"#utility.yul\":17408:17616   */\n      jump(tag_315)\n    tag_317:\n        /* \"#utility.yul\":17644:17650   */\n      dup7\n        /* \"#utility.yul\":17635:17642   */\n      dup4\n        /* \"#utility.yul\":17632:17651   */\n      lt\n        /* \"#utility.yul\":17629:17808   */\n      iszero\n      tag_318\n      jumpi\n        /* \"#utility.yul\":17702:17711   */\n      dup5\n        /* \"#utility.yul\":17697:17700   */\n      dup10\n        /* \"#utility.yul\":17693:17712   */\n      add\n        /* \"#utility.yul\":17687:17713   */\n      mload\n        /* \"#utility.yul\":17745:17793   */\n      tag_319\n        /* \"#utility.yul\":17787:17791   */\n      0x1f\n        /* \"#utility.yul\":17779:17785   */\n      dup10\n        /* \"#utility.yul\":17775:17792   */\n      and\n        /* \"#utility.yul\":17764:17773   */\n      dup3\n        /* \"#utility.yul\":17745:17793   */\n      tag_135\n      jump\t// in\n    tag_319:\n        /* \"#utility.yul\":17737:17743   */\n      dup4\n        /* \"#utility.yul\":17730:17794   */\n      sstore\n        /* \"#utility.yul\":17652:17808   */\n      pop\n        /* \"#utility.yul\":17629:17808   */\n    tag_318:\n        /* \"#utility.yul\":17854:17855   */\n      0x01\n        /* \"#utility.yul\":17850:17851   */\n      0x02\n        /* \"#utility.yul\":17842:17848   */\n      dup9\n        /* \"#utility.yul\":17838:17852   */\n      mul\n        /* \"#utility.yul\":17834:17856   */\n      add\n        /* \"#utility.yul\":17828:17832   */\n      dup9\n        /* \"#utility.yul\":17821:17857   */\n      sstore\n        /* \"#utility.yul\":17256:17867   */\n      pop\n      pop\n      pop\n        /* \"#utility.yul\":17219:18106   */\n    tag_310:\n      pop\n        /* \"#utility.yul\":16809:18112   */\n      pop\n      pop\n      pop\n        /* \"#utility.yul\":16717:18112   */\n      pop\n      pop\n      jump\t// out\n\n    auxdata: 0xa264697066735822122074b23c4c921d7cc0b14e34f97f1c4551bb15d5831b3e533dd532261d381661ee64736f6c63430008110033\n}\n","bytecode":{"linkReferences":{},"object":"608060405234801561001057600080fd5b50336000806101000a81548173ffffffffffffffffffffffffffffffffffffffff021916908373ffffffffffffffffffffffffffffffffffffffff1602179055506112b5806100606000396000f3fe608060405234801561001057600080fd5b50600436106100575760003560e01c80634780468f1461005c57806363a9c3d714610078578063a12cfd2e146100a8578063e8dea6ae146100d8578063f0d95090146100f4575b600080fd5b610076600480360381019061007191906109e8565b610112565b005b610092600480360381019061008d91906109e8565b6102b5565b60405161009f9190610a30565b60405180910390f35b6100c260048036038101906100bd91906109e8565b6103ab565b6040516100cf9190610c03565b60405180910390f35b6100f260048036038101906100ed9190610e00565b610651565b005b6100fc610823565b6040516101099190610ef8565b60405180910390f35b60008054906101000a900473ffffffffffffffffffffffffffffffffffffffff1673ffffffffffffffffffffffffffffffffffffffff163373ffffffffffffffffffffffffffffffffffffffff16146101a0576040517f08c379a000000000000000000000000000000000000000000000000000000000815260040161019790610f77565b60405180910390fd5b600260008273ffffffffffffffffffffffffffffffffffffffff1673ffffffffffffffffffffffffffffffffffffffff16815260200190815260200160002060009054906101000a900460ff16156101f757600080fd5b6001600260008373ffffffffffffffffffffffffffffffffffffffff1673ffffffffffffffffffffffffffffffffffffffff16815260200190815260200160002060006101000a81548160ff0219169083151502179055506001819080600181540180825580915050600190039060005260206000200160009091909190916101000a81548173ffffffffffffffffffffffffffffffffffffffff021916908373ffffffffffffffffffffffffffffffffffffffff16021790555050565b60008060009054906101000a900473ffffffffffffffffffffffffffffffffffffffff1673ffffffffffffffffffffffffffffffffffffffff163373ffffffffffffffffffffffffffffffffffffffff1614610346576040517f08c379a000000000000000000000000000000000000000000000000000000000815260040161033d90610f77565b60405180910390fd5b600260008373ffffffffffffffffffffffffffffffffffffffff1673ffffffffffffffffffffffffffffffffffffffff16815260200190815260200160002060009054906101000a900460ff16156103a157600190506103a6565b600090505b919050565b606060008054906101000a900473ffffffffffffffffffffffffffffffffffffffff1673ffffffffffffffffffffffffffffffffffffffff163373ffffffffffffffffffffffffffffffffffffffff161461043b576040517f08c379a000000000000000000000000000000000000000000000000000000000815260040161043290610f77565b60405180910390fd5b600360008373ffffffffffffffffffffffffffffffffffffffff1673ffffffffffffffffffffffffffffffffffffffff168152602001908152602001600020805480602002602001604051908101604052809291908181526020016000905b8282101561064657838290600052602060002090600302016040518060600160405290816000820160009054906101000a900473ffffffffffffffffffffffffffffffffffffffff1673ffffffffffffffffffffffffffffffffffffffff1673ffffffffffffffffffffffffffffffffffffffff16815260200160018201805461052390610fc6565b80601f016020809104026020016040519081016040528092919081815260200182805461054f90610fc6565b801561059c5780601f106105715761010080835404028352916020019161059c565b820191906000526020600020905b81548152906001019060200180831161057f57829003601f168201915b505050505081526020016002820180546105b590610fc6565b80601f01602080910402602001604051908101604052809291908181526020018280546105e190610fc6565b801561062e5780601f106106035761010080835404028352916020019161062e565b820191906000526020600020905b81548152906001019060200180831161061157829003601f168201915b5050505050815250508152602001906001019061049a565b505050509050919050565b60008054906101000a900473ffffffffffffffffffffffffffffffffffffffff1673ffffffffffffffffffffffffffffffffffffffff163373ffffffffffffffffffffffffffffffffffffffff16146106df576040517f08c379a00000000000000000000000000000000000000000000000000000000081526004016106d690610f77565b60405180910390fd5b6106e761093f565b8160000151816000019073ffffffffffffffffffffffffffffffffffffffff16908173ffffffffffffffffffffffffffffffffffffffff1681525050816020015181602001819052508160400151816040018190525060036000836000015173ffffffffffffffffffffffffffffffffffffffff1673ffffffffffffffffffffffffffffffffffffffff16815260200190815260200160002081908060018154018082558091505060019003906000526020600020906003020160009091909190915060008201518160000160006101000a81548173ffffffffffffffffffffffffffffffffffffffff021916908373ffffffffffffffffffffffffffffffffffffffff160217905550602082015181600101908161080691906111ad565b50604082015181600201908161081c91906111ad565b5050505050565b606060008054906101000a900473ffffffffffffffffffffffffffffffffffffffff1673ffffffffffffffffffffffffffffffffffffffff163373ffffffffffffffffffffffffffffffffffffffff16146108b3576040517f08c379a00000000000000000000000000000000000000000000000000000000081526004016108aa90610f77565b60405180910390fd5b600180548060200260200160405190810160405280929190818152602001828054801561093557602002820191906000526020600020905b8160009054906101000a900473ffffffffffffffffffffffffffffffffffffffff1673ffffffffffffffffffffffffffffffffffffffff16815260200190600101908083116108eb575b5050505050905090565b6040518060600160405280600073ffffffffffffffffffffffffffffffffffffffff16815260200160608152602001606081525090565b6000604051905090565b600080fd5b600080fd5b600073ffffffffffffffffffffffffffffffffffffffff82169050919050565b60006109b58261098a565b9050919050565b6109c5816109aa565b81146109d057600080fd5b50565b6000813590506109e2816109bc565b92915050565b6000602082840312156109fe576109fd610980565b5b6000610a0c848285016109d3565b91505092915050565b60008115159050919050565b610a2a81610a15565b82525050565b6000602082019050610a456000830184610a21565b92915050565b600081519050919050565b600082825260208201905092915050565b6000819050602082019050919050565b610a80816109aa565b82525050565b600081519050919050565b600082825260208201905092915050565b60005b83811015610ac0578082015181840152602081019050610aa5565b60008484015250505050565b6000601f19601f8301169050919050565b6000610ae882610a86565b610af28185610a91565b9350610b02818560208601610aa2565b610b0b81610acc565b840191505092915050565b6000606083016000830151610b2e6000860182610a77565b5060208301518482036020860152610b468282610add565b91505060408301518482036040860152610b608282610add565b9150508091505092915050565b6000610b798383610b16565b905092915050565b6000602082019050919050565b6000610b9982610a4b565b610ba38185610a56565b935083602082028501610bb585610a67565b8060005b85811015610bf15784840389528151610bd28582610b6d565b9450610bdd83610b81565b925060208a01995050600181019050610bb9565b50829750879550505050505092915050565b60006020820190508181036000830152610c1d8184610b8e565b905092915050565b600080fd5b7f4e487b7100000000000000000000000000000000000000000000000000000000600052604160045260246000fd5b610c6282610acc565b810181811067ffffffffffffffff82111715610c8157610c80610c2a565b5b80604052505050565b6000610c94610976565b9050610ca08282610c59565b919050565b600080fd5b600080fd5b600080fd5b600067ffffffffffffffff821115610ccf57610cce610c2a565b5b610cd882610acc565b9050602081019050919050565b82818337600083830152505050565b6000610d07610d0284610cb4565b610c8a565b905082815260208101848484011115610d2357610d22610caf565b5b610d2e848285610ce5565b509392505050565b600082601f830112610d4b57610d4a610caa565b5b8135610d5b848260208601610cf4565b91505092915050565b600060608284031215610d7a57610d79610c25565b5b610d846060610c8a565b90506000610d94848285016109d3565b600083015250602082013567ffffffffffffffff811115610db857610db7610ca5565b5b610dc484828501610d36565b602083015250604082013567ffffffffffffffff811115610de857610de7610ca5565b5b610df484828501610d36565b60408301525092915050565b600060208284031215610e1657610e15610980565b5b600082013567ffffffffffffffff811115610e3457610e33610985565b5b610e4084828501610d64565b91505092915050565b600081519050919050565b600082825260208201905092915050565b6000819050602082019050919050565b6000610e818383610a77565b60208301905092915050565b6000602082019050919050565b6000610ea582610e49565b610eaf8185610e54565b9350610eba83610e65565b8060005b83811015610eeb578151610ed28882610e75565b9750610edd83610e8d565b925050600181019050610ebe565b5085935050505092915050565b60006020820190508181036000830152610f128184610e9a565b905092915050565b600082825260208201905092915050565b7f4e6f7420417574686f72697a6564000000000000000000000000000000000000600082015250565b6000610f61600e83610f1a565b9150610f6c82610f2b565b602082019050919050565b60006020820190508181036000830152610f9081610f54565b9050919050565b7f4e487b7100000000000000000000000000000000000000000000000000000000600052602260045260246000fd5b60006002820490506001821680610fde57607f821691505b602082108103610ff157610ff0610f97565b5b50919050565b60008190508160005260206000209050919050565b60006020601f8301049050919050565b600082821b905092915050565b6000600883026110597fffffffffffffffffffffffffffffffffffffffffffffffffffffffffffffffff8261101c565b611063868361101c565b95508019841693508086168417925050509392505050565b6000819050919050565b6000819050919050565b60006110aa6110a56110a08461107b565b611085565b61107b565b9050919050565b6000819050919050565b6110c48361108f565b6110d86110d0826110b1565b848454611029565b825550505050565b600090565b6110ed6110e0565b6110f88184846110bb565b505050565b5b8181101561111c576111116000826110e5565b6001810190506110fe565b5050565b601f8211156111615761113281610ff7565b61113b8461100c565b8101602085101561114a578190505b61115e6111568561100c565b8301826110fd565b50505b505050565b600082821c905092915050565b600061118460001984600802611166565b1980831691505092915050565b600061119d8383611173565b9150826002028217905092915050565b6111b682610a86565b67ffffffffffffffff8111156111cf576111ce610c2a565b5b6111d98254610fc6565b6111e4828285611120565b600060209050601f8311600181146112175760008415611205578287015190505b61120f8582611191565b865550611277565b601f19841661122586610ff7565b60005b8281101561124d57848901518255600182019150602085019450602081019050611228565b8683101561126a5784890151611266601f891682611173565b8355505b6001600288020188555050505b50505050505056fea264697066735822122074b23c4c921d7cc0b14e34f97f1c4551bb15d5831b3e533dd532261d381661ee64736f6c63430008110033","opcodes":"PUSH1 0x80 PUSH1 0x40 MSTORE CALLVALUE DUP1 ISZERO PUSH2 0x10 JUMPI PUSH1 0x0 DUP1 REVERT JUMPDEST POP CALLER PUSH1 0x0 DUP1 PUSH2 0x100 EXP DUP2 SLOAD DUP2 PUSH20 0xFFFFFFFFFFFFFFFFFFFFFFFFFFFFFFFFFFFFFFFF MUL NOT AND SWAP1 DUP4 PUSH20 0xFFFFFFFFFFFFFFFFFFFFFFFFFFFFFFFFFFFFFFFF AND MUL OR SWAP1 SSTORE POP PUSH2 0x12B5 DUP1 PUSH2 0x60 PUSH1 0x0 CODECOPY PUSH1 0x0 RETURN INVALID PUSH1 0x80 PUSH1 0x40 MSTORE CALLVALUE DUP1 ISZERO PUSH2 0x10 JUMPI PUSH1 0x0 DUP1 REVERT JUMPDEST POP PUSH1 0x4 CALLDATASIZE LT PUSH2 0x57 JUMPI PUSH1 0x0 CALLDATALOAD PUSH1 0xE0 SHR DUP1 PUSH4 0x4780468F EQ PUSH2 0x5C JUMPI DUP1 PUSH4 0x63A9C3D7 EQ PUSH2 0x78 JUMPI DUP1 PUSH4 0xA12CFD2E EQ PUSH2 0xA8 JUMPI DUP1 PUSH4 0xE8DEA6AE EQ PUSH2 0xD8 JUMPI DUP1 PUSH4 0xF0D95090 EQ PUSH2 0xF4 JUMPI JUMPDEST PUSH1 0x0 DUP1 REVERT JUMPDEST PUSH2 0x76 PUSH1 0x4 DUP1 CALLDATASIZE SUB DUP2 ADD SWAP1 PUSH2 0x71 SWAP2 SWAP1 PUSH2 0x9E8 JUMP JUMPDEST PUSH2 0x112 JUMP JUMPDEST STOP JUMPDEST PUSH2 0x92 PUSH1 0x4 DUP1 CALLDATASIZE SUB DUP2 ADD SWAP1 PUSH2 0x8D SWAP2 SWAP1 PUSH2 0x9E8 JUMP JUMPDEST PUSH2 0x2B5 JUMP JUMPDEST PUSH1 0x40 MLOAD PUSH2 0x9F SWAP2 SWAP1 PUSH2 0xA30 JUMP JUMPDEST PUSH1 0x40 MLOAD DUP1 SWAP2 SUB SWAP1 RETURN JUMPDEST PUSH2 0xC2 PUSH1 0x4 DUP1 CALLDATASIZE SUB DUP2 ADD SWAP1 PUSH2 0xBD SWAP2 SWAP1 PUSH2 0x9E8 JUMP JUMPDEST PUSH2 0x3AB JUMP JUMPDEST PUSH1 0x40 MLOAD PUSH2 0xCF SWAP2 SWAP1 PUSH2 0xC03 JUMP JUMPDEST PUSH1 0x40 MLOAD DUP1 SWAP2 SUB SWAP1 RETURN JUMPDEST PUSH2 0xF2 PUSH1 0x4 DUP1 CALLDATASIZE SUB DUP2 ADD SWAP1 PUSH2 0xED SWAP2 SWAP1 PUSH2 0xE00 JUMP JUMPDEST PUSH2 0x651 JUMP JUMPDEST STOP JUMPDEST PUSH2 0xFC PUSH2 0x823 JUMP JUMPDEST PUSH1 0x40 MLOAD PUSH2 0x109 SWAP2 SWAP1 PUSH2 0xEF8 JUMP JUMPDEST PUSH1 0x40 MLOAD DUP1 SWAP2 SUB SWAP1 RETURN JUMPDEST PUSH1 0x0 DUP1 SLOAD SWAP1 PUSH2 0x100 EXP SWAP1 DIV PUSH20 0xFFFFFFFFFFFFFFFFFFFFFFFFFFFFFFFFFFFFFFFF AND PUSH20 0xFFFFFFFFFFFFFFFFFFFFFFFFFFFFFFFFFFFFFFFF AND CALLER PUSH20 0xFFFFFFFFFFFFFFFFFFFFFFFFFFFFFFFFFFFFFFFF AND EQ PUSH2 0x1A0 JUMPI PUSH1 0x40 MLOAD PUSH32 0x8C379A000000000000000000000000000000000000000000000000000000000 DUP2 MSTORE PUSH1 0x4 ADD PUSH2 0x197 SWAP1 PUSH2 0xF77 JUMP JUMPDEST PUSH1 0x40 MLOAD DUP1 SWAP2 SUB SWAP1 REVERT JUMPDEST PUSH1 0x2 PUSH1 0x0 DUP3 PUSH20 0xFFFFFFFFFFFFFFFFFFFFFFFFFFFFFFFFFFFFFFFF AND PUSH20 0xFFFFFFFFFFFFFFFFFFFFFFFFFFFFFFFFFFFFFFFF AND DUP2 MSTORE PUSH1 0x20 ADD SWAP1 DUP2 MSTORE PUSH1 0x20 ADD PUSH1 0x0 KECCAK256 PUSH1 0x0 SWAP1 SLOAD SWAP1 PUSH2 0x100 EXP SWAP1 DIV PUSH1 0xFF AND ISZERO PUSH2 0x1F7 JUMPI PUSH1 0x0 DUP1 REVERT JUMPDEST PUSH1 0x1 PUSH1 0x2 PUSH1 0x0 DUP4 PUSH20 0xFFFFFFFFFFFFFFFFFFFFFFFFFFFFFFFFFFFFFFFF AND PUSH20 0xFFFFFFFFFFFFFFFFFFFFFFFFFFFFFFFFFFFFFFFF AND DUP2 MSTORE PUSH1 0x20 ADD SWAP1 DUP2 MSTORE PUSH1 0x20 ADD PUSH1 0x0 KECCAK256 PUSH1 0x0 PUSH2 0x100 EXP DUP2 SLOAD DUP2 PUSH1 0xFF MUL NOT AND SWAP1 DUP4 ISZERO ISZERO MUL OR SWAP1 SSTORE POP PUSH1 0x1 DUP2 SWAP1 DUP1 PUSH1 0x1 DUP2 SLOAD ADD DUP1 DUP3 SSTORE DUP1 SWAP2 POP POP PUSH1 0x1 SWAP1 SUB SWAP1 PUSH1 0x0 MSTORE PUSH1 0x20 PUSH1 0x0 KECCAK256 ADD PUSH1 0x0 SWAP1 SWAP2 SWAP1 SWAP2 SWAP1 SWAP2 PUSH2 0x100 EXP DUP2 SLOAD DUP2 PUSH20 0xFFFFFFFFFFFFFFFFFFFFFFFFFFFFFFFFFFFFFFFF MUL NOT AND SWAP1 DUP4 PUSH20 0xFFFFFFFFFFFFFFFFFFFFFFFFFFFFFFFFFFFFFFFF AND MUL OR SWAP1 SSTORE POP POP JUMP JUMPDEST PUSH1 0x0 DUP1 PUSH1 0x0 SWAP1 SLOAD SWAP1 PUSH2 0x100 EXP SWAP1 DIV PUSH20 0xFFFFFFFFFFFFFFFFFFFFFFFFFFFFFFFFFFFFFFFF AND PUSH20 0xFFFFFFFFFFFFFFFFFFFFFFFFFFFFFFFFFFFFFFFF AND CALLER PUSH20 0xFFFFFFFFFFFFFFFFFFFFFFFFFFFFFFFFFFFFFFFF AND EQ PUSH2 0x346 JUMPI PUSH1 0x40 MLOAD PUSH32 0x8C379A000000000000000000000000000000000000000000000000000000000 DUP2 MSTORE PUSH1 0x4 ADD PUSH2 0x33D SWAP1 PUSH2 0xF77 JUMP JUMPDEST PUSH1 0x40 MLOAD DUP1 SWAP2 SUB SWAP1 REVERT JUMPDEST PUSH1 0x2 PUSH1 0x0 DUP4 PUSH20 0xFFFFFFFFFFFFFFFFFFFFFFFFFFFFFFFFFFFFFFFF AND PUSH20 0xFFFFFFFFFFFFFFFFFFFFFFFFFFFFFFFFFFFFFFFF AND DUP2 MSTORE PUSH1 0x20 ADD SWAP1 DUP2 MSTORE PUSH1 0x20 ADD PUSH1 0x0 KECCAK256 PUSH1 0x0 SWAP1 SLOAD SWAP1 PUSH2 0x100 EXP SWAP1 DIV PUSH1 0xFF AND ISZERO PUSH2 0x3A1 JUMPI PUSH1 0x1 SWAP1 POP PUSH2 0x3A6 JUMP JUMPDEST PUSH1 0x0 SWAP1 POP JUMPDEST SWAP2 SWAP1 POP JUMP JUMPDEST PUSH1 0x60 PUSH1 0x0 DUP1 SLOAD SWAP1 PUSH2 0x100 EXP SWAP1 DIV PUSH20 0xFFFFFFFFFFFFFFFFFFFFFFFFFFFFFFFFFFFFFFFF AND PUSH20 0xFFFFFFFFFFFFFFFFFFFFFFFFFFFFFFFFFFFFFFFF AND CALLER PUSH20 0xFFFFFFFFFFFFFFFFFFFFFFFFFFFFFFFFFFFFFFFF AND EQ PUSH2 0x43B JUMPI PUSH1 0x40 MLOAD PUSH32 0x8C379A000000000000000000000000000000000000000000000000000000000 DUP2 MSTORE PUSH1 0x4 ADD PUSH2 0x432 SWAP1 PUSH2 0xF77 JUMP JUMPDEST PUSH1 0x40 MLOAD DUP1 SWAP2 SUB SWAP1 REVERT JUMPDEST PUSH1 0x3 PUSH1 0x0 DUP4 PUSH20 0xFFFFFFFFFFFFFFFFFFFFFFFFFFFFFFFFFFFFFFFF AND PUSH20 0xFFFFFFFFFFFFFFFFFFFFFFFFFFFFFFFFFFFFFFFF AND DUP2 MSTORE PUSH1 0x20 ADD SWAP1 DUP2 MSTORE PUSH1 0x20 ADD PUSH1 0x0 KECCAK256 DUP1 SLOAD DUP1 PUSH1 0x20 MUL PUSH1 0x20 ADD PUSH1 0x40 MLOAD SWAP1 DUP2 ADD PUSH1 0x40 MSTORE DUP1 SWAP3 SWAP2 SWAP1 DUP2 DUP2 MSTORE PUSH1 0x20 ADD PUSH1 0x0 SWAP1 JUMPDEST DUP3 DUP3 LT ISZERO PUSH2 0x646 JUMPI DUP4 DUP3 SWAP1 PUSH1 0x0 MSTORE PUSH1 0x20 PUSH1 0x0 KECCAK256 SWAP1 PUSH1 0x3 MUL ADD PUSH1 0x40 MLOAD DUP1 PUSH1 0x60 ADD PUSH1 0x40 MSTORE SWAP1 DUP2 PUSH1 0x0 DUP3 ADD PUSH1 0x0 SWAP1 SLOAD SWAP1 PUSH2 0x100 EXP SWAP1 DIV PUSH20 0xFFFFFFFFFFFFFFFFFFFFFFFFFFFFFFFFFFFFFFFF AND PUSH20 0xFFFFFFFFFFFFFFFFFFFFFFFFFFFFFFFFFFFFFFFF AND PUSH20 0xFFFFFFFFFFFFFFFFFFFFFFFFFFFFFFFFFFFFFFFF AND DUP2 MSTORE PUSH1 0x20 ADD PUSH1 0x1 DUP3 ADD DUP1 SLOAD PUSH2 0x523 SWAP1 PUSH2 0xFC6 JUMP JUMPDEST DUP1 PUSH1 0x1F ADD PUSH1 0x20 DUP1 SWAP2 DIV MUL PUSH1 0x20 ADD PUSH1 0x40 MLOAD SWAP1 DUP2 ADD PUSH1 0x40 MSTORE DUP1 SWAP3 SWAP2 SWAP1 DUP2 DUP2 MSTORE PUSH1 0x20 ADD DUP3 DUP1 SLOAD PUSH2 0x54F SWAP1 PUSH2 0xFC6 JUMP JUMPDEST DUP1 ISZERO PUSH2 0x59C JUMPI DUP1 PUSH1 0x1F LT PUSH2 0x571 JUMPI PUSH2 0x100 DUP1 DUP4 SLOAD DIV MUL DUP4 MSTORE SWAP2 PUSH1 0x20 ADD SWAP2 PUSH2 0x59C JUMP JUMPDEST DUP3 ADD SWAP2 SWAP1 PUSH1 0x0 MSTORE PUSH1 0x20 PUSH1 0x0 KECCAK256 SWAP1 JUMPDEST DUP2 SLOAD DUP2 MSTORE SWAP1 PUSH1 0x1 ADD SWAP1 PUSH1 0x20 ADD DUP1 DUP4 GT PUSH2 0x57F JUMPI DUP3 SWAP1 SUB PUSH1 0x1F AND DUP3 ADD SWAP2 JUMPDEST POP POP POP POP POP DUP2 MSTORE PUSH1 0x20 ADD PUSH1 0x2 DUP3 ADD DUP1 SLOAD PUSH2 0x5B5 SWAP1 PUSH2 0xFC6 JUMP JUMPDEST DUP1 PUSH1 0x1F ADD PUSH1 0x20 DUP1 SWAP2 DIV MUL PUSH1 0x20 ADD PUSH1 0x40 MLOAD SWAP1 DUP2 ADD PUSH1 0x40 MSTORE DUP1 SWAP3 SWAP2 SWAP1 DUP2 DUP2 MSTORE PUSH1 0x20 ADD DUP3 DUP1 SLOAD PUSH2 0x5E1 SWAP1 PUSH2 0xFC6 JUMP JUMPDEST DUP1 ISZERO PUSH2 0x62E JUMPI DUP1 PUSH1 0x1F LT PUSH2 0x603 JUMPI PUSH2 0x100 DUP1 DUP4 SLOAD DIV MUL DUP4 MSTORE SWAP2 PUSH1 0x20 ADD SWAP2 PUSH2 0x62E JUMP JUMPDEST DUP3 ADD SWAP2 SWAP1 PUSH1 0x0 MSTORE PUSH1 0x20 PUSH1 0x0 KECCAK256 SWAP1 JUMPDEST DUP2 SLOAD DUP2 MSTORE SWAP1 PUSH1 0x1 ADD SWAP1 PUSH1 0x20 ADD DUP1 DUP4 GT PUSH2 0x611 JUMPI DUP3 SWAP1 SUB PUSH1 0x1F AND DUP3 ADD SWAP2 JUMPDEST POP POP POP POP POP DUP2 MSTORE POP POP DUP2 MSTORE PUSH1 0x20 ADD SWAP1 PUSH1 0x1 ADD SWAP1 PUSH2 0x49A JUMP JUMPDEST POP POP POP POP SWAP1 POP SWAP2 SWAP1 POP JUMP JUMPDEST PUSH1 0x0 DUP1 SLOAD SWAP1 PUSH2 0x100 EXP SWAP1 DIV PUSH20 0xFFFFFFFFFFFFFFFFFFFFFFFFFFFFFFFFFFFFFFFF AND PUSH20 0xFFFFFFFFFFFFFFFFFFFFFFFFFFFFFFFFFFFFFFFF AND CALLER PUSH20 0xFFFFFFFFFFFFFFFFFFFFFFFFFFFFFFFFFFFFFFFF AND EQ PUSH2 0x6DF JUMPI PUSH1 0x40 MLOAD PUSH32 0x8C379A000000000000000000000000000000000000000000000000000000000 DUP2 MSTORE PUSH1 0x4 ADD PUSH2 0x6D6 SWAP1 PUSH2 0xF77 JUMP JUMPDEST PUSH1 0x40 MLOAD DUP1 SWAP2 SUB SWAP1 REVERT JUMPDEST PUSH2 0x6E7 PUSH2 0x93F JUMP JUMPDEST DUP2 PUSH1 0x0 ADD MLOAD DUP2 PUSH1 0x0 ADD SWAP1 PUSH20 0xFFFFFFFFFFFFFFFFFFFFFFFFFFFFFFFFFFFFFFFF AND SWAP1 DUP2 PUSH20 0xFFFFFFFFFFFFFFFFFFFFFFFFFFFFFFFFFFFFFFFF AND DUP2 MSTORE POP POP DUP2 PUSH1 0x20 ADD MLOAD DUP2 PUSH1 0x20 ADD DUP2 SWAP1 MSTORE POP DUP2 PUSH1 0x40 ADD MLOAD DUP2 PUSH1 0x40 ADD DUP2 SWAP1 MSTORE POP PUSH1 0x3 PUSH1 0x0 DUP4 PUSH1 0x0 ADD MLOAD PUSH20 0xFFFFFFFFFFFFFFFFFFFFFFFFFFFFFFFFFFFFFFFF AND PUSH20 0xFFFFFFFFFFFFFFFFFFFFFFFFFFFFFFFFFFFFFFFF AND DUP2 MSTORE PUSH1 0x20 ADD SWAP1 DUP2 MSTORE PUSH1 0x20 ADD PUSH1 0x0 KECCAK256 DUP2 SWAP1 DUP1 PUSH1 0x1 DUP2 SLOAD ADD DUP1 DUP3 SSTORE DUP1 SWAP2 POP POP PUSH1 0x1 SWAP1 SUB SWAP1 PUSH1 0x0 MSTORE PUSH1 0x20 PUSH1 0x0 KECCAK256 SWAP1 PUSH1 0x3 MUL ADD PUSH1 0x0 SWAP1 SWAP2 SWAP1 SWAP2 SWAP1 SWAP2 POP PUSH1 0x0 DUP3 ADD MLOAD DUP2 PUSH1 0x0 ADD PUSH1 0x0 PUSH2 0x100 EXP DUP2 SLOAD DUP2 PUSH20 0xFFFFFFFFFFFFFFFFFFFFFFFFFFFFFFFFFFFFFFFF MUL NOT AND SWAP1 DUP4 PUSH20 0xFFFFFFFFFFFFFFFFFFFFFFFFFFFFFFFFFFFFFFFF AND MUL OR SWAP1 SSTORE POP PUSH1 0x20 DUP3 ADD MLOAD DUP2 PUSH1 0x1 ADD SWAP1 DUP2 PUSH2 0x806 SWAP2 SWAP1 PUSH2 0x11AD JUMP JUMPDEST POP PUSH1 0x40 DUP3 ADD MLOAD DUP2 PUSH1 0x2 ADD SWAP1 DUP2 PUSH2 0x81C SWAP2 SWAP1 PUSH2 0x11AD JUMP JUMPDEST POP POP POP POP POP JUMP JUMPDEST PUSH1 0x60 PUSH1 0x0 DUP1 SLOAD SWAP1 PUSH2 0x100 EXP SWAP1 DIV PUSH20 0xFFFFFFFFFFFFFFFFFFFFFFFFFFFFFFFFFFFFFFFF AND PUSH20 0xFFFFFFFFFFFFFFFFFFFFFFFFFFFFFFFFFFFFFFFF AND CALLER PUSH20 0xFFFFFFFFFFFFFFFFFFFFFFFFFFFFFFFFFFFFFFFF AND EQ PUSH2 0x8B3 JUMPI PUSH1 0x40 MLOAD PUSH32 0x8C379A000000000000000000000000000000000000000000000000000000000 DUP2 MSTORE PUSH1 0x4 ADD PUSH2 0x8AA SWAP1 PUSH2 0xF77 JUMP JUMPDEST PUSH1 0x40 MLOAD DUP1 SWAP2 SUB SWAP1 REVERT JUMPDEST PUSH1 0x1 DUP1 SLOAD DUP1 PUSH1 0x20 MUL PUSH1 0x20 ADD PUSH1 0x40 MLOAD SWAP1 DUP2 ADD PUSH1 0x40 MSTORE DUP1 SWAP3 SWAP2 SWAP1 DUP2 DUP2 MSTORE PUSH1 0x20 ADD DUP3 DUP1 SLOAD DUP1 ISZERO PUSH2 0x935 JUMPI PUSH1 0x20 MUL DUP3 ADD SWAP2 SWAP1 PUSH1 0x0 MSTORE PUSH1 0x20 PUSH1 0x0 KECCAK256 SWAP1 JUMPDEST DUP2 PUSH1 0x0 SWAP1 SLOAD SWAP1 PUSH2 0x100 EXP SWAP1 DIV PUSH20 0xFFFFFFFFFFFFFFFFFFFFFFFFFFFFFFFFFFFFFFFF AND PUSH20 0xFFFFFFFFFFFFFFFFFFFFFFFFFFFFFFFFFFFFFFFF AND DUP2 MSTORE PUSH1 0x20 ADD SWAP1 PUSH1 0x1 ADD SWAP1 DUP1 DUP4 GT PUSH2 0x8EB JUMPI JUMPDEST POP POP POP POP POP SWAP1 POP SWAP1 JUMP JUMPDEST PUSH1 0x40 MLOAD DUP1 PUSH1 0x60 ADD PUSH1 0x40 MSTORE DUP1 PUSH1 0x0 PUSH20 0xFFFFFFFFFFFFFFFFFFFFFFFFFFFFFFFFFFFFFFFF AND DUP2 MSTORE PUSH1 0x20 ADD PUSH1 0x60 DUP2 MSTORE PUSH1 0x20 ADD PUSH1 0x60 DUP2 MSTORE POP SWAP1 JUMP JUMPDEST PUSH1 0x0 PUSH1 0x40 MLOAD SWAP1 POP SWAP1 JUMP JUMPDEST PUSH1 0x0 DUP1 REVERT JUMPDEST PUSH1 0x0 DUP1 REVERT JUMPDEST PUSH1 0x0 PUSH20 0xFFFFFFFFFFFFFFFFFFFFFFFFFFFFFFFFFFFFFFFF DUP3 AND SWAP1 POP SWAP2 SWAP1 POP JUMP JUMPDEST PUSH1 0x0 PUSH2 0x9B5 DUP3 PUSH2 0x98A JUMP JUMPDEST SWAP1 POP SWAP2 SWAP1 POP JUMP JUMPDEST PUSH2 0x9C5 DUP2 PUSH2 0x9AA JUMP JUMPDEST DUP2 EQ PUSH2 0x9D0 JUMPI PUSH1 0x0 DUP1 REVERT JUMPDEST POP JUMP JUMPDEST PUSH1 0x0 DUP2 CALLDATALOAD SWAP1 POP PUSH2 0x9E2 DUP2 PUSH2 0x9BC JUMP JUMPDEST SWAP3 SWAP2 POP POP JUMP JUMPDEST PUSH1 0x0 PUSH1 0x20 DUP3 DUP5 SUB SLT ISZERO PUSH2 0x9FE JUMPI PUSH2 0x9FD PUSH2 0x980 JUMP JUMPDEST JUMPDEST PUSH1 0x0 PUSH2 0xA0C DUP5 DUP3 DUP6 ADD PUSH2 0x9D3 JUMP JUMPDEST SWAP2 POP POP SWAP3 SWAP2 POP POP JUMP JUMPDEST PUSH1 0x0 DUP2 ISZERO ISZERO SWAP1 POP SWAP2 SWAP1 POP JUMP JUMPDEST PUSH2 0xA2A DUP2 PUSH2 0xA15 JUMP JUMPDEST DUP3 MSTORE POP POP JUMP JUMPDEST PUSH1 0x0 PUSH1 0x20 DUP3 ADD SWAP1 POP PUSH2 0xA45 PUSH1 0x0 DUP4 ADD DUP5 PUSH2 0xA21 JUMP JUMPDEST SWAP3 SWAP2 POP POP JUMP JUMPDEST PUSH1 0x0 DUP2 MLOAD SWAP1 POP SWAP2 SWAP1 POP JUMP JUMPDEST PUSH1 0x0 DUP3 DUP3 MSTORE PUSH1 0x20 DUP3 ADD SWAP1 POP SWAP3 SWAP2 POP POP JUMP JUMPDEST PUSH1 0x0 DUP2 SWAP1 POP PUSH1 0x20 DUP3 ADD SWAP1 POP SWAP2 SWAP1 POP JUMP JUMPDEST PUSH2 0xA80 DUP2 PUSH2 0x9AA JUMP JUMPDEST DUP3 MSTORE POP POP JUMP JUMPDEST PUSH1 0x0 DUP2 MLOAD SWAP1 POP SWAP2 SWAP1 POP JUMP JUMPDEST PUSH1 0x0 DUP3 DUP3 MSTORE PUSH1 0x20 DUP3 ADD SWAP1 POP SWAP3 SWAP2 POP POP JUMP JUMPDEST PUSH1 0x0 JUMPDEST DUP4 DUP2 LT ISZERO PUSH2 0xAC0 JUMPI DUP1 DUP3 ADD MLOAD DUP2 DUP5 ADD MSTORE PUSH1 0x20 DUP2 ADD SWAP1 POP PUSH2 0xAA5 JUMP JUMPDEST PUSH1 0x0 DUP5 DUP5 ADD MSTORE POP POP POP POP JUMP JUMPDEST PUSH1 0x0 PUSH1 0x1F NOT PUSH1 0x1F DUP4 ADD AND SWAP1 POP SWAP2 SWAP1 POP JUMP JUMPDEST PUSH1 0x0 PUSH2 0xAE8 DUP3 PUSH2 0xA86 JUMP JUMPDEST PUSH2 0xAF2 DUP2 DUP6 PUSH2 0xA91 JUMP JUMPDEST SWAP4 POP PUSH2 0xB02 DUP2 DUP6 PUSH1 0x20 DUP7 ADD PUSH2 0xAA2 JUMP JUMPDEST PUSH2 0xB0B DUP2 PUSH2 0xACC JUMP JUMPDEST DUP5 ADD SWAP2 POP POP SWAP3 SWAP2 POP POP JUMP JUMPDEST PUSH1 0x0 PUSH1 0x60 DUP4 ADD PUSH1 0x0 DUP4 ADD MLOAD PUSH2 0xB2E PUSH1 0x0 DUP7 ADD DUP3 PUSH2 0xA77 JUMP JUMPDEST POP PUSH1 0x20 DUP4 ADD MLOAD DUP5 DUP3 SUB PUSH1 0x20 DUP7 ADD MSTORE PUSH2 0xB46 DUP3 DUP3 PUSH2 0xADD JUMP JUMPDEST SWAP2 POP POP PUSH1 0x40 DUP4 ADD MLOAD DUP5 DUP3 SUB PUSH1 0x40 DUP7 ADD MSTORE PUSH2 0xB60 DUP3 DUP3 PUSH2 0xADD JUMP JUMPDEST SWAP2 POP POP DUP1 SWAP2 POP POP SWAP3 SWAP2 POP POP JUMP JUMPDEST PUSH1 0x0 PUSH2 0xB79 DUP4 DUP4 PUSH2 0xB16 JUMP JUMPDEST SWAP1 POP SWAP3 SWAP2 POP POP JUMP JUMPDEST PUSH1 0x0 PUSH1 0x20 DUP3 ADD SWAP1 POP SWAP2 SWAP1 POP JUMP JUMPDEST PUSH1 0x0 PUSH2 0xB99 DUP3 PUSH2 0xA4B JUMP JUMPDEST PUSH2 0xBA3 DUP2 DUP6 PUSH2 0xA56 JUMP JUMPDEST SWAP4 POP DUP4 PUSH1 0x20 DUP3 MUL DUP6 ADD PUSH2 0xBB5 DUP6 PUSH2 0xA67 JUMP JUMPDEST DUP1 PUSH1 0x0 JUMPDEST DUP6 DUP2 LT ISZERO PUSH2 0xBF1 JUMPI DUP5 DUP5 SUB DUP10 MSTORE DUP2 MLOAD PUSH2 0xBD2 DUP6 DUP3 PUSH2 0xB6D JUMP JUMPDEST SWAP5 POP PUSH2 0xBDD DUP4 PUSH2 0xB81 JUMP JUMPDEST SWAP3 POP PUSH1 0x20 DUP11 ADD SWAP10 POP POP PUSH1 0x1 DUP2 ADD SWAP1 POP PUSH2 0xBB9 JUMP JUMPDEST POP DUP3 SWAP8 POP DUP8 SWAP6 POP POP POP POP POP POP SWAP3 SWAP2 POP POP JUMP JUMPDEST PUSH1 0x0 PUSH1 0x20 DUP3 ADD SWAP1 POP DUP2 DUP2 SUB PUSH1 0x0 DUP4 ADD MSTORE PUSH2 0xC1D DUP2 DUP5 PUSH2 0xB8E JUMP JUMPDEST SWAP1 POP SWAP3 SWAP2 POP POP JUMP JUMPDEST PUSH1 0x0 DUP1 REVERT JUMPDEST PUSH32 0x4E487B7100000000000000000000000000000000000000000000000000000000 PUSH1 0x0 MSTORE PUSH1 0x41 PUSH1 0x4 MSTORE PUSH1 0x24 PUSH1 0x0 REVERT JUMPDEST PUSH2 0xC62 DUP3 PUSH2 0xACC JUMP JUMPDEST DUP2 ADD DUP2 DUP2 LT PUSH8 0xFFFFFFFFFFFFFFFF DUP3 GT OR ISZERO PUSH2 0xC81 JUMPI PUSH2 0xC80 PUSH2 0xC2A JUMP JUMPDEST JUMPDEST DUP1 PUSH1 0x40 MSTORE POP POP POP JUMP JUMPDEST PUSH1 0x0 PUSH2 0xC94 PUSH2 0x976 JUMP JUMPDEST SWAP1 POP PUSH2 0xCA0 DUP3 DUP3 PUSH2 0xC59 JUMP JUMPDEST SWAP2 SWAP1 POP JUMP JUMPDEST PUSH1 0x0 DUP1 REVERT JUMPDEST PUSH1 0x0 DUP1 REVERT JUMPDEST PUSH1 0x0 DUP1 REVERT JUMPDEST PUSH1 0x0 PUSH8 0xFFFFFFFFFFFFFFFF DUP3 GT ISZERO PUSH2 0xCCF JUMPI PUSH2 0xCCE PUSH2 0xC2A JUMP JUMPDEST JUMPDEST PUSH2 0xCD8 DUP3 PUSH2 0xACC JUMP JUMPDEST SWAP1 POP PUSH1 0x20 DUP2 ADD SWAP1 POP SWAP2 SWAP1 POP JUMP JUMPDEST DUP3 DUP2 DUP4 CALLDATACOPY PUSH1 0x0 DUP4 DUP4 ADD MSTORE POP POP POP JUMP JUMPDEST PUSH1 0x0 PUSH2 0xD07 PUSH2 0xD02 DUP5 PUSH2 0xCB4 JUMP JUMPDEST PUSH2 0xC8A JUMP JUMPDEST SWAP1 POP DUP3 DUP2 MSTORE PUSH1 0x20 DUP2 ADD DUP5 DUP5 DUP5 ADD GT ISZERO PUSH2 0xD23 JUMPI PUSH2 0xD22 PUSH2 0xCAF JUMP JUMPDEST JUMPDEST PUSH2 0xD2E DUP5 DUP3 DUP6 PUSH2 0xCE5 JUMP JUMPDEST POP SWAP4 SWAP3 POP POP POP JUMP JUMPDEST PUSH1 0x0 DUP3 PUSH1 0x1F DUP4 ADD SLT PUSH2 0xD4B JUMPI PUSH2 0xD4A PUSH2 0xCAA JUMP JUMPDEST JUMPDEST DUP2 CALLDATALOAD PUSH2 0xD5B DUP5 DUP3 PUSH1 0x20 DUP7 ADD PUSH2 0xCF4 JUMP JUMPDEST SWAP2 POP POP SWAP3 SWAP2 POP POP JUMP JUMPDEST PUSH1 0x0 PUSH1 0x60 DUP3 DUP5 SUB SLT ISZERO PUSH2 0xD7A JUMPI PUSH2 0xD79 PUSH2 0xC25 JUMP JUMPDEST JUMPDEST PUSH2 0xD84 PUSH1 0x60 PUSH2 0xC8A JUMP JUMPDEST SWAP1 POP PUSH1 0x0 PUSH2 0xD94 DUP5 DUP3 DUP6 ADD PUSH2 0x9D3 JUMP JUMPDEST PUSH1 0x0 DUP4 ADD MSTORE POP PUSH1 0x20 DUP3 ADD CALLDATALOAD PUSH8 0xFFFFFFFFFFFFFFFF DUP2 GT ISZERO PUSH2 0xDB8 JUMPI PUSH2 0xDB7 PUSH2 0xCA5 JUMP JUMPDEST JUMPDEST PUSH2 0xDC4 DUP5 DUP3 DUP6 ADD PUSH2 0xD36 JUMP JUMPDEST PUSH1 0x20 DUP4 ADD MSTORE POP PUSH1 0x40 DUP3 ADD CALLDATALOAD PUSH8 0xFFFFFFFFFFFFFFFF DUP2 GT ISZERO PUSH2 0xDE8 JUMPI PUSH2 0xDE7 PUSH2 0xCA5 JUMP JUMPDEST JUMPDEST PUSH2 0xDF4 DUP5 DUP3 DUP6 ADD PUSH2 0xD36 JUMP JUMPDEST PUSH1 0x40 DUP4 ADD MSTORE POP SWAP3 SWAP2 POP POP JUMP JUMPDEST PUSH1 0x0 PUSH1 0x20 DUP3 DUP5 SUB SLT ISZERO PUSH2 0xE16 JUMPI PUSH2 0xE15 PUSH2 0x980 JUMP JUMPDEST JUMPDEST PUSH1 0x0 DUP3 ADD CALLDATALOAD PUSH8 0xFFFFFFFFFFFFFFFF DUP2 GT ISZERO PUSH2 0xE34 JUMPI PUSH2 0xE33 PUSH2 0x985 JUMP JUMPDEST JUMPDEST PUSH2 0xE40 DUP5 DUP3 DUP6 ADD PUSH2 0xD64 JUMP JUMPDEST SWAP2 POP POP SWAP3 SWAP2 POP POP JUMP JUMPDEST PUSH1 0x0 DUP2 MLOAD SWAP1 POP SWAP2 SWAP1 POP JUMP JUMPDEST PUSH1 0x0 DUP3 DUP3 MSTORE PUSH1 0x20 DUP3 ADD SWAP1 POP SWAP3 SWAP2 POP POP JUMP JUMPDEST PUSH1 0x0 DUP2 SWAP1 POP PUSH1 0x20 DUP3 ADD SWAP1 POP SWAP2 SWAP1 POP JUMP JUMPDEST PUSH1 0x0 PUSH2 0xE81 DUP4 DUP4 PUSH2 0xA77 JUMP JUMPDEST PUSH1 0x20 DUP4 ADD SWAP1 POP SWAP3 SWAP2 POP POP JUMP JUMPDEST PUSH1 0x0 PUSH1 0x20 DUP3 ADD SWAP1 POP SWAP2 SWAP1 POP JUMP JUMPDEST PUSH1 0x0 PUSH2 0xEA5 DUP3 PUSH2 0xE49 JUMP JUMPDEST PUSH2 0xEAF DUP2 DUP6 PUSH2 0xE54 JUMP JUMPDEST SWAP4 POP PUSH2 0xEBA DUP4 PUSH2 0xE65 JUMP JUMPDEST DUP1 PUSH1 0x0 JUMPDEST DUP4 DUP2 LT ISZERO PUSH2 0xEEB JUMPI DUP2 MLOAD PUSH2 0xED2 DUP9 DUP3 PUSH2 0xE75 JUMP JUMPDEST SWAP8 POP PUSH2 0xEDD DUP4 PUSH2 0xE8D JUMP JUMPDEST SWAP3 POP POP PUSH1 0x1 DUP2 ADD SWAP1 POP PUSH2 0xEBE JUMP JUMPDEST POP DUP6 SWAP4 POP POP POP POP SWAP3 SWAP2 POP POP JUMP JUMPDEST PUSH1 0x0 PUSH1 0x20 DUP3 ADD SWAP1 POP DUP2 DUP2 SUB PUSH1 0x0 DUP4 ADD MSTORE PUSH2 0xF12 DUP2 DUP5 PUSH2 0xE9A JUMP JUMPDEST SWAP1 POP SWAP3 SWAP2 POP POP JUMP JUMPDEST PUSH1 0x0 DUP3 DUP3 MSTORE PUSH1 0x20 DUP3 ADD SWAP1 POP SWAP3 SWAP2 POP POP JUMP JUMPDEST PUSH32 0x4E6F7420417574686F72697A6564000000000000000000000000000000000000 PUSH1 0x0 DUP3 ADD MSTORE POP JUMP JUMPDEST PUSH1 0x0 PUSH2 0xF61 PUSH1 0xE DUP4 PUSH2 0xF1A JUMP JUMPDEST SWAP2 POP PUSH2 0xF6C DUP3 PUSH2 0xF2B JUMP JUMPDEST PUSH1 0x20 DUP3 ADD SWAP1 POP SWAP2 SWAP1 POP JUMP JUMPDEST PUSH1 0x0 PUSH1 0x20 DUP3 ADD SWAP1 POP DUP2 DUP2 SUB PUSH1 0x0 DUP4 ADD MSTORE PUSH2 0xF90 DUP2 PUSH2 0xF54 JUMP JUMPDEST SWAP1 POP SWAP2 SWAP1 POP JUMP JUMPDEST PUSH32 0x4E487B7100000000000000000000000000000000000000000000000000000000 PUSH1 0x0 MSTORE PUSH1 0x22 PUSH1 0x4 MSTORE PUSH1 0x24 PUSH1 0x0 REVERT JUMPDEST PUSH1 0x0 PUSH1 0x2 DUP3 DIV SWAP1 POP PUSH1 0x1 DUP3 AND DUP1 PUSH2 0xFDE JUMPI PUSH1 0x7F DUP3 AND SWAP2 POP JUMPDEST PUSH1 0x20 DUP3 LT DUP2 SUB PUSH2 0xFF1 JUMPI PUSH2 0xFF0 PUSH2 0xF97 JUMP JUMPDEST JUMPDEST POP SWAP2 SWAP1 POP JUMP JUMPDEST PUSH1 0x0 DUP2 SWAP1 POP DUP2 PUSH1 0x0 MSTORE PUSH1 0x20 PUSH1 0x0 KECCAK256 SWAP1 POP SWAP2 SWAP1 POP JUMP JUMPDEST PUSH1 0x0 PUSH1 0x20 PUSH1 0x1F DUP4 ADD DIV SWAP1 POP SWAP2 SWAP1 POP JUMP JUMPDEST PUSH1 0x0 DUP3 DUP3 SHL SWAP1 POP SWAP3 SWAP2 POP POP JUMP JUMPDEST PUSH1 0x0 PUSH1 0x8 DUP4 MUL PUSH2 0x1059 PUSH32 0xFFFFFFFFFFFFFFFFFFFFFFFFFFFFFFFFFFFFFFFFFFFFFFFFFFFFFFFFFFFFFFFF DUP3 PUSH2 0x101C JUMP JUMPDEST PUSH2 0x1063 DUP7 DUP4 PUSH2 0x101C JUMP JUMPDEST SWAP6 POP DUP1 NOT DUP5 AND SWAP4 POP DUP1 DUP7 AND DUP5 OR SWAP3 POP POP POP SWAP4 SWAP3 POP POP POP JUMP JUMPDEST PUSH1 0x0 DUP2 SWAP1 POP SWAP2 SWAP1 POP JUMP JUMPDEST PUSH1 0x0 DUP2 SWAP1 POP SWAP2 SWAP1 POP JUMP JUMPDEST PUSH1 0x0 PUSH2 0x10AA PUSH2 0x10A5 PUSH2 0x10A0 DUP5 PUSH2 0x107B JUMP JUMPDEST PUSH2 0x1085 JUMP JUMPDEST PUSH2 0x107B JUMP JUMPDEST SWAP1 POP SWAP2 SWAP1 POP JUMP JUMPDEST PUSH1 0x0 DUP2 SWAP1 POP SWAP2 SWAP1 POP JUMP JUMPDEST PUSH2 0x10C4 DUP4 PUSH2 0x108F JUMP JUMPDEST PUSH2 0x10D8 PUSH2 0x10D0 DUP3 PUSH2 0x10B1 JUMP JUMPDEST DUP5 DUP5 SLOAD PUSH2 0x1029 JUMP JUMPDEST DUP3 SSTORE POP POP POP POP JUMP JUMPDEST PUSH1 0x0 SWAP1 JUMP JUMPDEST PUSH2 0x10ED PUSH2 0x10E0 JUMP JUMPDEST PUSH2 0x10F8 DUP2 DUP5 DUP5 PUSH2 0x10BB JUMP JUMPDEST POP POP POP JUMP JUMPDEST JUMPDEST DUP2 DUP2 LT ISZERO PUSH2 0x111C JUMPI PUSH2 0x1111 PUSH1 0x0 DUP3 PUSH2 0x10E5 JUMP JUMPDEST PUSH1 0x1 DUP2 ADD SWAP1 POP PUSH2 0x10FE JUMP JUMPDEST POP POP JUMP JUMPDEST PUSH1 0x1F DUP3 GT ISZERO PUSH2 0x1161 JUMPI PUSH2 0x1132 DUP2 PUSH2 0xFF7 JUMP JUMPDEST PUSH2 0x113B DUP5 PUSH2 0x100C JUMP JUMPDEST DUP2 ADD PUSH1 0x20 DUP6 LT ISZERO PUSH2 0x114A JUMPI DUP2 SWAP1 POP JUMPDEST PUSH2 0x115E PUSH2 0x1156 DUP6 PUSH2 0x100C JUMP JUMPDEST DUP4 ADD DUP3 PUSH2 0x10FD JUMP JUMPDEST POP POP JUMPDEST POP POP POP JUMP JUMPDEST PUSH1 0x0 DUP3 DUP3 SHR SWAP1 POP SWAP3 SWAP2 POP POP JUMP JUMPDEST PUSH1 0x0 PUSH2 0x1184 PUSH1 0x0 NOT DUP5 PUSH1 0x8 MUL PUSH2 0x1166 JUMP JUMPDEST NOT DUP1 DUP4 AND SWAP2 POP POP SWAP3 SWAP2 POP POP JUMP JUMPDEST PUSH1 0x0 PUSH2 0x119D DUP4 DUP4 PUSH2 0x1173 JUMP JUMPDEST SWAP2 POP DUP3 PUSH1 0x2 MUL DUP3 OR SWAP1 POP SWAP3 SWAP2 POP POP JUMP JUMPDEST PUSH2 0x11B6 DUP3 PUSH2 0xA86 JUMP JUMPDEST PUSH8 0xFFFFFFFFFFFFFFFF DUP2 GT ISZERO PUSH2 0x11CF JUMPI PUSH2 0x11CE PUSH2 0xC2A JUMP JUMPDEST JUMPDEST PUSH2 0x11D9 DUP3 SLOAD PUSH2 0xFC6 JUMP JUMPDEST PUSH2 0x11E4 DUP3 DUP3 DUP6 PUSH2 0x1120 JUMP JUMPDEST PUSH1 0x0 PUSH1 0x20 SWAP1 POP PUSH1 0x1F DUP4 GT PUSH1 0x1 DUP2 EQ PUSH2 0x1217 JUMPI PUSH1 0x0 DUP5 ISZERO PUSH2 0x1205 JUMPI DUP3 DUP8 ADD MLOAD SWAP1 POP JUMPDEST PUSH2 0x120F DUP6 DUP3 PUSH2 0x1191 JUMP JUMPDEST DUP7 SSTORE POP PUSH2 0x1277 JUMP JUMPDEST PUSH1 0x1F NOT DUP5 AND PUSH2 0x1225 DUP7 PUSH2 0xFF7 JUMP JUMPDEST PUSH1 0x0 JUMPDEST DUP3 DUP2 LT ISZERO PUSH2 0x124D JUMPI DUP5 DUP10 ADD MLOAD DUP3 SSTORE PUSH1 0x1 DUP3 ADD SWAP2 POP PUSH1 0x20 DUP6 ADD SWAP5 POP PUSH1 0x20 DUP2 ADD SWAP1 POP PUSH2 0x1228 JUMP JUMPDEST DUP7 DUP4 LT ISZERO PUSH2 0x126A JUMPI DUP5 DUP10 ADD MLOAD PUSH2 0x1266 PUSH1 0x1F DUP10 AND DUP3 PUSH2 0x1173 JUMP JUMPDEST DUP4 SSTORE POP JUMPDEST PUSH1 0x1 PUSH1 0x2 DUP9 MUL ADD DUP9 SSTORE POP POP POP JUMPDEST POP POP POP POP POP POP JUMP INVALID LOG2 PUSH5 0x6970667358 0x22 SLT KECCAK256 PUSH21 0xB23C4C921D7CC0B14E34F97F1C4551BB15D5831B3E MSTORE8 RETURNDATASIZE 0xD5 ORIGIN 0x26 SAR CODESIZE AND PUSH2 0xEE64 PUSH20 0x6F6C634300081100330000000000000000000000 "},"gasEstimates":{"creation":{"codeDepositCost":"957800","executionCost":"25260","totalCost":"983060"},"external":{"addDoctor(address)":"77782","getAddressLogs(address)":"infinite","getAllDoctors()":"infinite","logThis((address,string,string))":"infinite","verify(address)":"5084"}},"methodIdentifiers":{"addDoctor(address)":"4780468f","getAddressLogs(address)":"a12cfd2e","getAllDoctors()":"f0d95090","logThis((address,string,string))":"e8dea6ae","verify(address)":"63a9c3d7"}},"storageLayout":{"storage":[{"astId":97,"contract":"AccessControl.sol:DoctorVerificator","label":"admin","offset":0,"slot":"0","type":"t_address"},{"astId":100,"contract":"AccessControl.sol:DoctorVerificator","label":"doctors","offset":0,"slot":"1","type":"t_array(t_address)dyn_storage"},{"astId":104,"contract":"AccessControl.sol:DoctorVerificator","label":"doctor","offset":0,"slot":"2","type":"t_mapping(t_address,t_bool)"},{"astId":110,"contract":"AccessControl.sol:DoctorVerificator","label":"logs","offset":0,"slot":"3","type":"t_mapping(t_address,t_array(t_struct(Logs)95_storage)dyn_storage)"}],"types":{"t_address":{"encoding":"inplace","label":"address","numberOfBytes":"20"},"t_array(t_address)dyn_storage":{"base":"t_address","encoding":"dynamic_array","label":"address[]","numberOfBytes":"32"},"t_array(t_struct(Logs)95_storage)dyn_storage":{"base":"t_struct(Logs)95_storage","encoding":"dynamic_array","label":"struct DoctorVerificator.Logs[]","numberOfBytes":"32"},"t_bool":{"encoding":"inplace","label":"bool","numberOfBytes":"1"},"t_mapping(t_address,t_array(t_struct(Logs)95_storage)dyn_storage)":{"encoding":"mapping","key":"t_address","label":"mapping(address => struct DoctorVerificator.Logs[])","numberOfBytes":"32","value":"t_array(t_struct(Logs)95_storage)dyn_storage"},"t_mapping(t_address,t_bool)":{"encoding":"mapping","key":"t_address","label":"mapping(address => bool)","numberOfBytes":"32","value":"t_bool"},"t_string_storage":{"encoding":"bytes","label":"string","numberOfBytes":"32"},"t_struct(Logs)95_storage":{"encoding":"inplace","label":"struct DoctorVerificator.Logs","members":[{"astId":90,"contract":"AccessControl.sol:DoctorVerificator","label":"add","offset":0,"slot":"0","type":"t_address"},{"astId":92,"contract":"AccessControl.sol:DoctorVerificator","label":"activity","offset":0,"slot":"1","type":"t_string_storage"},{"astId":94,"contract":"AccessControl.sol:DoctorVerificator","label":"dateAndTime","offset":0,"slot":"2","type":"t_string_storage"}],"numberOfBytes":"96"}}},"userdoc":{"kind":"user","methods":{},"version":1}}