{"abi":[{"inputs":[],"stateMutability":"nonpayable","type":"constructor"},{"inputs":[{"internalType":"address","name":"_address","type":"address"}],"name":"addDoctor","outputs":[],"stateMutability":"nonpayable","type":"function"},{"inputs":[],"name":"getAllDoctors","outputs":[{"internalType":"address[]","name":"_address","type":"address[]"}],"stateMutability":"view","type":"function"},{"inputs":[{"components":[{"internalType":"address","name":"add","type":"address"},{"internalType":"string","name":"activity","type":"string"},{"internalType":"string","name":"dateAndTime","type":"string"}],"internalType":"struct DoctorVerificator.Logs","name":"_logs","type":"tuple"}],"name":"logThis","outputs":[],"stateMutability":"nonpayable","type":"function"},{"inputs":[{"internalType":"address","name":"_address","type":"address"}],"name":"verify","outputs":[{"internalType":"bool","name":"_bool","type":"bool"}],"stateMutability":"view","type":"function"}],"devdoc":{"kind":"dev","methods":{},"version":1},"evm":{"assembly":"    /* \"AccessControl.sol\":878:2241  contract DoctorVerificator {... */\n  mstore(0x40, 0x80)\n    /* \"AccessControl.sol\":1185:1236  constructor() {... */\n  callvalue\n  dup1\n  iszero\n  tag_1\n  jumpi\n  0x00\n  dup1\n  revert\ntag_1:\n  pop\n    /* \"AccessControl.sol\":1218:1228  msg.sender */\n  caller\n    /* \"AccessControl.sol\":1210:1215  admin */\n  0x00\n  dup1\n    /* \"AccessControl.sol\":1210:1228  admin = msg.sender */\n  0x0100\n  exp\n  dup2\n  sload\n  dup2\n  0xffffffffffffffffffffffffffffffffffffffff\n  mul\n  not\n  and\n  swap1\n  dup4\n  0xffffffffffffffffffffffffffffffffffffffff\n  and\n  mul\n  or\n  swap1\n  sstore\n  pop\n    /* \"AccessControl.sol\":878:2241  contract DoctorVerificator {... */\n  dataSize(sub_0)\n  dup1\n  dataOffset(sub_0)\n  0x00\n  codecopy\n  0x00\n  return\nstop\n\nsub_0: assembly {\n        /* \"AccessControl.sol\":878:2241  contract DoctorVerificator {... */\n      mstore(0x40, 0x80)\n      callvalue\n      dup1\n      iszero\n      tag_1\n      jumpi\n      0x00\n      dup1\n      revert\n    tag_1:\n      pop\n      jumpi(tag_2, lt(calldatasize, 0x04))\n      shr(0xe0, calldataload(0x00))\n      dup1\n      0x4780468f\n      eq\n      tag_3\n      jumpi\n      dup1\n      0x63a9c3d7\n      eq\n      tag_4\n      jumpi\n      dup1\n      0xe8dea6ae\n      eq\n      tag_5\n      jumpi\n      dup1\n      0xf0d95090\n      eq\n      tag_6\n      jumpi\n    tag_2:\n      0x00\n      dup1\n      revert\n        /* \"AccessControl.sol\":1244:1422  function addDoctor(address _address) onlyAdmin public {... */\n    tag_3:\n      tag_7\n      0x04\n      dup1\n      calldatasize\n      sub\n      dup2\n      add\n      swap1\n      tag_8\n      swap2\n      swap1\n      tag_9\n      jump\t// in\n    tag_8:\n      tag_10\n      jump\t// in\n    tag_7:\n      stop\n        /* \"AccessControl.sol\":1430:1628  function verify(address _address) onlyAdmin public view returns(bool _bool) {... */\n    tag_4:\n      tag_11\n      0x04\n      dup1\n      calldatasize\n      sub\n      dup2\n      add\n      swap1\n      tag_12\n      swap2\n      swap1\n      tag_9\n      jump\t// in\n    tag_12:\n      tag_13\n      jump\t// in\n    tag_11:\n      mload(0x40)\n      tag_14\n      swap2\n      swap1\n      tag_15\n      jump\t// in\n    tag_14:\n      mload(0x40)\n      dup1\n      swap2\n      sub\n      swap1\n      return\n        /* \"AccessControl.sol\":1636:2009  function logThis(Logs memory _logs) onlyAdmin public {... */\n    tag_5:\n      tag_16\n      0x04\n      dup1\n      calldatasize\n      sub\n      dup2\n      add\n      swap1\n      tag_17\n      swap2\n      swap1\n      tag_18\n      jump\t// in\n    tag_17:\n      tag_19\n      jump\t// in\n    tag_16:\n      stop\n        /* \"AccessControl.sol\":2017:2132  function getAllDoctors() onlyAdmin public view returns(address[] memory _address) {... */\n    tag_6:\n      tag_20\n      tag_21\n      jump\t// in\n    tag_20:\n      mload(0x40)\n      tag_22\n      swap2\n      swap1\n      tag_23\n      jump\t// in\n    tag_22:\n      mload(0x40)\n      dup1\n      swap2\n      sub\n      swap1\n      return\n        /* \"AccessControl.sol\":1244:1422  function addDoctor(address _address) onlyAdmin public {... */\n    tag_10:\n        /* \"AccessControl.sol\":2194:2199  admin */\n      0x00\n      dup1\n      sload\n      swap1\n      0x0100\n      exp\n      swap1\n      div\n      0xffffffffffffffffffffffffffffffffffffffff\n      and\n        /* \"AccessControl.sol\":2180:2199  msg.sender == admin */\n      0xffffffffffffffffffffffffffffffffffffffff\n      and\n        /* \"AccessControl.sol\":2180:2190  msg.sender */\n      caller\n        /* \"AccessControl.sol\":2180:2199  msg.sender == admin */\n      0xffffffffffffffffffffffffffffffffffffffff\n      and\n      eq\n        /* \"AccessControl.sol\":2172:2218  require(msg.sender == admin, \"Not Authorized\") */\n      tag_25\n      jumpi\n      mload(0x40)\n      0x08c379a000000000000000000000000000000000000000000000000000000000\n      dup2\n      mstore\n      0x04\n      add\n      tag_26\n      swap1\n      tag_27\n      jump\t// in\n    tag_26:\n      mload(0x40)\n      dup1\n      swap2\n      sub\n      swap1\n      revert\n    tag_25:\n        /* \"AccessControl.sol\":1318:1324  doctor */\n      0x02\n        /* \"AccessControl.sol\":1318:1334  doctor[_address] */\n      0x00\n        /* \"AccessControl.sol\":1325:1333  _address */\n      dup3\n        /* \"AccessControl.sol\":1318:1334  doctor[_address] */\n      0xffffffffffffffffffffffffffffffffffffffff\n      and\n      0xffffffffffffffffffffffffffffffffffffffff\n      and\n      dup2\n      mstore\n      0x20\n      add\n      swap1\n      dup2\n      mstore\n      0x20\n      add\n      0x00\n      keccak256\n      0x00\n      swap1\n      sload\n      swap1\n      0x0100\n      exp\n      swap1\n      div\n      0xff\n      and\n        /* \"AccessControl.sol\":1317:1334  !doctor[_address] */\n      iszero\n        /* \"AccessControl.sol\":1309:1335  require(!doctor[_address]) */\n      tag_29\n      jumpi\n      0x00\n      dup1\n      revert\n    tag_29:\n        /* \"AccessControl.sol\":1371:1375  true */\n      0x01\n        /* \"AccessControl.sol\":1352:1358  doctor */\n      0x02\n        /* \"AccessControl.sol\":1352:1368  doctor[_address] */\n      0x00\n        /* \"AccessControl.sol\":1359:1367  _address */\n      dup4\n        /* \"AccessControl.sol\":1352:1368  doctor[_address] */\n      0xffffffffffffffffffffffffffffffffffffffff\n      and\n      0xffffffffffffffffffffffffffffffffffffffff\n      and\n      dup2\n      mstore\n      0x20\n      add\n      swap1\n      dup2\n      mstore\n      0x20\n      add\n      0x00\n      keccak256\n      0x00\n        /* \"AccessControl.sol\":1352:1375  doctor[_address] = true */\n      0x0100\n      exp\n      dup2\n      sload\n      dup2\n      0xff\n      mul\n      not\n      and\n      swap1\n      dup4\n      iszero\n      iszero\n      mul\n      or\n      swap1\n      sstore\n      pop\n        /* \"AccessControl.sol\":1386:1393  doctors */\n      0x01\n        /* \"AccessControl.sol\":1399:1407  _address */\n      dup2\n        /* \"AccessControl.sol\":1386:1408  doctors.push(_address) */\n      swap1\n      dup1\n      0x01\n      dup2\n      sload\n      add\n      dup1\n      dup3\n      sstore\n      dup1\n      swap2\n      pop\n      pop\n      0x01\n      swap1\n      sub\n      swap1\n      0x00\n      mstore\n      keccak256(0x00, 0x20)\n      add\n      0x00\n      swap1\n      swap2\n      swap1\n      swap2\n      swap1\n      swap2\n      0x0100\n      exp\n      dup2\n      sload\n      dup2\n      0xffffffffffffffffffffffffffffffffffffffff\n      mul\n      not\n      and\n      swap1\n      dup4\n      0xffffffffffffffffffffffffffffffffffffffff\n      and\n      mul\n      or\n      swap1\n      sstore\n      pop\n        /* \"AccessControl.sol\":1244:1422  function addDoctor(address _address) onlyAdmin public {... */\n      pop\n      jump\t// out\n        /* \"AccessControl.sol\":1430:1628  function verify(address _address) onlyAdmin public view returns(bool _bool) {... */\n    tag_13:\n        /* \"AccessControl.sol\":1494:1504  bool _bool */\n      0x00\n        /* \"AccessControl.sol\":2194:2199  admin */\n      dup1\n      0x00\n      swap1\n      sload\n      swap1\n      0x0100\n      exp\n      swap1\n      div\n      0xffffffffffffffffffffffffffffffffffffffff\n      and\n        /* \"AccessControl.sol\":2180:2199  msg.sender == admin */\n      0xffffffffffffffffffffffffffffffffffffffff\n      and\n        /* \"AccessControl.sol\":2180:2190  msg.sender */\n      caller\n        /* \"AccessControl.sol\":2180:2199  msg.sender == admin */\n      0xffffffffffffffffffffffffffffffffffffffff\n      and\n      eq\n        /* \"AccessControl.sol\":2172:2218  require(msg.sender == admin, \"Not Authorized\") */\n      tag_32\n      jumpi\n      mload(0x40)\n      0x08c379a000000000000000000000000000000000000000000000000000000000\n      dup2\n      mstore\n      0x04\n      add\n      tag_33\n      swap1\n      tag_27\n      jump\t// in\n    tag_33:\n      mload(0x40)\n      dup1\n      swap2\n      sub\n      swap1\n      revert\n    tag_32:\n        /* \"AccessControl.sol\":1520:1526  doctor */\n      0x02\n        /* \"AccessControl.sol\":1520:1536  doctor[_address] */\n      0x00\n        /* \"AccessControl.sol\":1527:1535  _address */\n      dup4\n        /* \"AccessControl.sol\":1520:1536  doctor[_address] */\n      0xffffffffffffffffffffffffffffffffffffffff\n      and\n      0xffffffffffffffffffffffffffffffffffffffff\n      and\n      dup2\n      mstore\n      0x20\n      add\n      swap1\n      dup2\n      mstore\n      0x20\n      add\n      0x00\n      keccak256\n      0x00\n      swap1\n      sload\n      swap1\n      0x0100\n      exp\n      swap1\n      div\n      0xff\n      and\n        /* \"AccessControl.sol\":1517:1621  if(doctor[_address]) {... */\n      iszero\n      tag_35\n      jumpi\n        /* \"AccessControl.sol\":1560:1564  true */\n      0x01\n        /* \"AccessControl.sol\":1553:1564  return true */\n      swap1\n      pop\n      jump(tag_34)\n        /* \"AccessControl.sol\":1517:1621  if(doctor[_address]) {... */\n    tag_35:\n        /* \"AccessControl.sol\":1604:1609  false */\n      0x00\n        /* \"AccessControl.sol\":1597:1609  return false */\n      swap1\n      pop\n        /* \"AccessControl.sol\":2229:2230  _ */\n    tag_34:\n        /* \"AccessControl.sol\":1430:1628  function verify(address _address) onlyAdmin public view returns(bool _bool) {... */\n      swap2\n      swap1\n      pop\n      jump\t// out\n        /* \"AccessControl.sol\":1636:2009  function logThis(Logs memory _logs) onlyAdmin public {... */\n    tag_19:\n        /* \"AccessControl.sol\":2194:2199  admin */\n      0x00\n      dup1\n      sload\n      swap1\n      0x0100\n      exp\n      swap1\n      div\n      0xffffffffffffffffffffffffffffffffffffffff\n      and\n        /* \"AccessControl.sol\":2180:2199  msg.sender == admin */\n      0xffffffffffffffffffffffffffffffffffffffff\n      and\n        /* \"AccessControl.sol\":2180:2190  msg.sender */\n      caller\n        /* \"AccessControl.sol\":2180:2199  msg.sender == admin */\n      0xffffffffffffffffffffffffffffffffffffffff\n      and\n      eq\n        /* \"AccessControl.sol\":2172:2218  require(msg.sender == admin, \"Not Authorized\") */\n      tag_38\n      jumpi\n      mload(0x40)\n      0x08c379a000000000000000000000000000000000000000000000000000000000\n      dup2\n      mstore\n      0x04\n      add\n      tag_39\n      swap1\n      tag_27\n      jump\t// in\n    tag_39:\n      mload(0x40)\n      dup1\n      swap2\n      sub\n      swap1\n      revert\n    tag_38:\n        /* \"AccessControl.sol\":1808:1828  Logs memory activity */\n      tag_41\n      tag_42\n      jump\t// in\n    tag_41:\n        /* \"AccessControl.sol\":1854:1859  _logs */\n      dup2\n        /* \"AccessControl.sol\":1854:1863  _logs.add */\n      0x00\n      add\n      mload\n        /* \"AccessControl.sol\":1839:1847  activity */\n      dup2\n        /* \"AccessControl.sol\":1839:1851  activity.add */\n      0x00\n      add\n        /* \"AccessControl.sol\":1839:1863  activity.add = _logs.add */\n      swap1\n      0xffffffffffffffffffffffffffffffffffffffff\n      and\n      swap1\n      dup2\n      0xffffffffffffffffffffffffffffffffffffffff\n      and\n      dup2\n      mstore\n      pop\n      pop\n        /* \"AccessControl.sol\":1894:1899  _logs */\n      dup2\n        /* \"AccessControl.sol\":1894:1908  _logs.activity */\n      0x20\n      add\n      mload\n        /* \"AccessControl.sol\":1874:1882  activity */\n      dup2\n        /* \"AccessControl.sol\":1874:1891  activity.activity */\n      0x20\n      add\n        /* \"AccessControl.sol\":1874:1908  activity.activity = _logs.activity */\n      dup2\n      swap1\n      mstore\n      pop\n        /* \"AccessControl.sol\":1942:1947  _logs */\n      dup2\n        /* \"AccessControl.sol\":1942:1959  _logs.dateAndTime */\n      0x40\n      add\n      mload\n        /* \"AccessControl.sol\":1919:1927  activity */\n      dup2\n        /* \"AccessControl.sol\":1919:1939  activity.dateAndTime */\n      0x40\n      add\n        /* \"AccessControl.sol\":1919:1959  activity.dateAndTime = _logs.dateAndTime */\n      dup2\n      swap1\n      mstore\n      pop\n        /* \"AccessControl.sol\":1970:1974  logs */\n      0x03\n        /* \"AccessControl.sol\":1970:1986  logs[msg.sender] */\n      0x00\n        /* \"AccessControl.sol\":1975:1985  msg.sender */\n      caller\n        /* \"AccessControl.sol\":1970:1986  logs[msg.sender] */\n      0xffffffffffffffffffffffffffffffffffffffff\n      and\n      0xffffffffffffffffffffffffffffffffffffffff\n      and\n      dup2\n      mstore\n      0x20\n      add\n      swap1\n      dup2\n      mstore\n      0x20\n      add\n      0x00\n      keccak256\n        /* \"AccessControl.sol\":1992:2000  activity */\n      dup2\n        /* \"AccessControl.sol\":1970:2001  logs[msg.sender].push(activity) */\n      swap1\n      dup1\n      0x01\n      dup2\n      sload\n      add\n      dup1\n      dup3\n      sstore\n      dup1\n      swap2\n      pop\n      pop\n      0x01\n      swap1\n      sub\n      swap1\n      0x00\n      mstore\n      keccak256(0x00, 0x20)\n      swap1\n      0x03\n      mul\n      add\n      0x00\n      swap1\n      swap2\n      swap1\n      swap2\n      swap1\n      swap2\n      pop\n      0x00\n      dup3\n      add\n      mload\n      dup2\n      0x00\n      add\n      exp(0x0100, 0x00)\n      dup2\n      sload\n      dup2\n      0xffffffffffffffffffffffffffffffffffffffff\n      mul\n      not\n      and\n      swap1\n      dup4\n      0xffffffffffffffffffffffffffffffffffffffff\n      and\n      mul\n      or\n      swap1\n      sstore\n      pop\n      0x20\n      dup3\n      add\n      mload\n      dup2\n      0x01\n      add\n      swap1\n      dup2\n      tag_44\n      swap2\n      swap1\n      tag_45\n      jump\t// in\n    tag_44:\n      pop\n      0x40\n      dup3\n      add\n      mload\n      dup2\n      0x02\n      add\n      swap1\n      dup2\n      tag_46\n      swap2\n      swap1\n      tag_45\n      jump\t// in\n    tag_46:\n      pop\n      pop\n      pop\n        /* \"AccessControl.sol\":1689:2009  {... */\n      pop\n        /* \"AccessControl.sol\":1636:2009  function logThis(Logs memory _logs) onlyAdmin public {... */\n      pop\n      jump\t// out\n        /* \"AccessControl.sol\":2017:2132  function getAllDoctors() onlyAdmin public view returns(address[] memory _address) {... */\n    tag_21:\n        /* \"AccessControl.sol\":2072:2097  address[] memory _address */\n      0x60\n        /* \"AccessControl.sol\":2194:2199  admin */\n      0x00\n      dup1\n      sload\n      swap1\n      0x0100\n      exp\n      swap1\n      div\n      0xffffffffffffffffffffffffffffffffffffffff\n      and\n        /* \"AccessControl.sol\":2180:2199  msg.sender == admin */\n      0xffffffffffffffffffffffffffffffffffffffff\n      and\n        /* \"AccessControl.sol\":2180:2190  msg.sender */\n      caller\n        /* \"AccessControl.sol\":2180:2199  msg.sender == admin */\n      0xffffffffffffffffffffffffffffffffffffffff\n      and\n      eq\n        /* \"AccessControl.sol\":2172:2218  require(msg.sender == admin, \"Not Authorized\") */\n      tag_48\n      jumpi\n      mload(0x40)\n      0x08c379a000000000000000000000000000000000000000000000000000000000\n      dup2\n      mstore\n      0x04\n      add\n      tag_49\n      swap1\n      tag_27\n      jump\t// in\n    tag_49:\n      mload(0x40)\n      dup1\n      swap2\n      sub\n      swap1\n      revert\n    tag_48:\n        /* \"AccessControl.sol\":2117:2124  doctors */\n      0x01\n        /* \"AccessControl.sol\":2110:2124  return doctors */\n      dup1\n      sload\n      dup1\n      0x20\n      mul\n      0x20\n      add\n      mload(0x40)\n      swap1\n      dup2\n      add\n      0x40\n      mstore\n      dup1\n      swap3\n      swap2\n      swap1\n      dup2\n      dup2\n      mstore\n      0x20\n      add\n      dup3\n      dup1\n      sload\n      dup1\n      iszero\n      tag_51\n      jumpi\n      0x20\n      mul\n      dup3\n      add\n      swap2\n      swap1\n      0x00\n      mstore\n      keccak256(0x00, 0x20)\n      swap1\n    tag_52:\n      dup2\n      0x00\n      swap1\n      sload\n      swap1\n      0x0100\n      exp\n      swap1\n      div\n      0xffffffffffffffffffffffffffffffffffffffff\n      and\n      0xffffffffffffffffffffffffffffffffffffffff\n      and\n      dup2\n      mstore\n      0x20\n      add\n      swap1\n      0x01\n      add\n      swap1\n      dup1\n      dup4\n      gt\n      tag_52\n      jumpi\n    tag_51:\n      pop\n      pop\n      pop\n      pop\n      pop\n      swap1\n      pop\n        /* \"AccessControl.sol\":2017:2132  function getAllDoctors() onlyAdmin public view returns(address[] memory _address) {... */\n      swap1\n      jump\t// out\n    tag_42:\n      mload(0x40)\n      dup1\n      0x60\n      add\n      0x40\n      mstore\n      dup1\n      and(0xffffffffffffffffffffffffffffffffffffffff, 0x00)\n      dup2\n      mstore\n      0x20\n      add\n      0x60\n      dup2\n      mstore\n      0x20\n      add\n      0x60\n      dup2\n      mstore\n      pop\n      swap1\n      jump\t// out\n        /* \"#utility.yul\":7:82   */\n    tag_53:\n        /* \"#utility.yul\":40:46   */\n      0x00\n        /* \"#utility.yul\":73:75   */\n      0x40\n        /* \"#utility.yul\":67:76   */\n      mload\n        /* \"#utility.yul\":57:76   */\n      swap1\n      pop\n        /* \"#utility.yul\":7:82   */\n      swap1\n      jump\t// out\n        /* \"#utility.yul\":88:205   */\n    tag_54:\n        /* \"#utility.yul\":197:198   */\n      0x00\n        /* \"#utility.yul\":194:195   */\n      dup1\n        /* \"#utility.yul\":187:199   */\n      revert\n        /* \"#utility.yul\":211:328   */\n    tag_55:\n        /* \"#utility.yul\":320:321   */\n      0x00\n        /* \"#utility.yul\":317:318   */\n      dup1\n        /* \"#utility.yul\":310:322   */\n      revert\n        /* \"#utility.yul\":334:460   */\n    tag_56:\n        /* \"#utility.yul\":371:378   */\n      0x00\n        /* \"#utility.yul\":411:453   */\n      0xffffffffffffffffffffffffffffffffffffffff\n        /* \"#utility.yul\":404:409   */\n      dup3\n        /* \"#utility.yul\":400:454   */\n      and\n        /* \"#utility.yul\":389:454   */\n      swap1\n      pop\n        /* \"#utility.yul\":334:460   */\n      swap2\n      swap1\n      pop\n      jump\t// out\n        /* \"#utility.yul\":466:562   */\n    tag_57:\n        /* \"#utility.yul\":503:510   */\n      0x00\n        /* \"#utility.yul\":532:556   */\n      tag_110\n        /* \"#utility.yul\":550:555   */\n      dup3\n        /* \"#utility.yul\":532:556   */\n      tag_56\n      jump\t// in\n    tag_110:\n        /* \"#utility.yul\":521:556   */\n      swap1\n      pop\n        /* \"#utility.yul\":466:562   */\n      swap2\n      swap1\n      pop\n      jump\t// out\n        /* \"#utility.yul\":568:690   */\n    tag_58:\n        /* \"#utility.yul\":641:665   */\n      tag_112\n        /* \"#utility.yul\":659:664   */\n      dup2\n        /* \"#utility.yul\":641:665   */\n      tag_57\n      jump\t// in\n    tag_112:\n        /* \"#utility.yul\":634:639   */\n      dup2\n        /* \"#utility.yul\":631:666   */\n      eq\n        /* \"#utility.yul\":621:684   */\n      tag_113\n      jumpi\n        /* \"#utility.yul\":680:681   */\n      0x00\n        /* \"#utility.yul\":677:678   */\n      dup1\n        /* \"#utility.yul\":670:682   */\n      revert\n        /* \"#utility.yul\":621:684   */\n    tag_113:\n        /* \"#utility.yul\":568:690   */\n      pop\n      jump\t// out\n        /* \"#utility.yul\":696:835   */\n    tag_59:\n        /* \"#utility.yul\":742:747   */\n      0x00\n        /* \"#utility.yul\":780:786   */\n      dup2\n        /* \"#utility.yul\":767:787   */\n      calldataload\n        /* \"#utility.yul\":758:787   */\n      swap1\n      pop\n        /* \"#utility.yul\":796:829   */\n      tag_115\n        /* \"#utility.yul\":823:828   */\n      dup2\n        /* \"#utility.yul\":796:829   */\n      tag_58\n      jump\t// in\n    tag_115:\n        /* \"#utility.yul\":696:835   */\n      swap3\n      swap2\n      pop\n      pop\n      jump\t// out\n        /* \"#utility.yul\":841:1170   */\n    tag_9:\n        /* \"#utility.yul\":900:906   */\n      0x00\n        /* \"#utility.yul\":949:951   */\n      0x20\n        /* \"#utility.yul\":937:946   */\n      dup3\n        /* \"#utility.yul\":928:935   */\n      dup5\n        /* \"#utility.yul\":924:947   */\n      sub\n        /* \"#utility.yul\":920:952   */\n      slt\n        /* \"#utility.yul\":917:1036   */\n      iszero\n      tag_117\n      jumpi\n        /* \"#utility.yul\":955:1034   */\n      tag_118\n      tag_54\n      jump\t// in\n    tag_118:\n        /* \"#utility.yul\":917:1036   */\n    tag_117:\n        /* \"#utility.yul\":1075:1076   */\n      0x00\n        /* \"#utility.yul\":1100:1153   */\n      tag_119\n        /* \"#utility.yul\":1145:1152   */\n      dup5\n        /* \"#utility.yul\":1136:1142   */\n      dup3\n        /* \"#utility.yul\":1125:1134   */\n      dup6\n        /* \"#utility.yul\":1121:1143   */\n      add\n        /* \"#utility.yul\":1100:1153   */\n      tag_59\n      jump\t// in\n    tag_119:\n        /* \"#utility.yul\":1090:1153   */\n      swap2\n      pop\n        /* \"#utility.yul\":1046:1163   */\n      pop\n        /* \"#utility.yul\":841:1170   */\n      swap3\n      swap2\n      pop\n      pop\n      jump\t// out\n        /* \"#utility.yul\":1176:1266   */\n    tag_60:\n        /* \"#utility.yul\":1210:1217   */\n      0x00\n        /* \"#utility.yul\":1253:1258   */\n      dup2\n        /* \"#utility.yul\":1246:1259   */\n      iszero\n        /* \"#utility.yul\":1239:1260   */\n      iszero\n        /* \"#utility.yul\":1228:1260   */\n      swap1\n      pop\n        /* \"#utility.yul\":1176:1266   */\n      swap2\n      swap1\n      pop\n      jump\t// out\n        /* \"#utility.yul\":1272:1381   */\n    tag_61:\n        /* \"#utility.yul\":1353:1374   */\n      tag_122\n        /* \"#utility.yul\":1368:1373   */\n      dup2\n        /* \"#utility.yul\":1353:1374   */\n      tag_60\n      jump\t// in\n    tag_122:\n        /* \"#utility.yul\":1348:1351   */\n      dup3\n        /* \"#utility.yul\":1341:1375   */\n      mstore\n        /* \"#utility.yul\":1272:1381   */\n      pop\n      pop\n      jump\t// out\n        /* \"#utility.yul\":1387:1597   */\n    tag_15:\n        /* \"#utility.yul\":1474:1478   */\n      0x00\n        /* \"#utility.yul\":1512:1514   */\n      0x20\n        /* \"#utility.yul\":1501:1510   */\n      dup3\n        /* \"#utility.yul\":1497:1515   */\n      add\n        /* \"#utility.yul\":1489:1515   */\n      swap1\n      pop\n        /* \"#utility.yul\":1525:1590   */\n      tag_124\n        /* \"#utility.yul\":1587:1588   */\n      0x00\n        /* \"#utility.yul\":1576:1585   */\n      dup4\n        /* \"#utility.yul\":1572:1589   */\n      add\n        /* \"#utility.yul\":1563:1569   */\n      dup5\n        /* \"#utility.yul\":1525:1590   */\n      tag_61\n      jump\t// in\n    tag_124:\n        /* \"#utility.yul\":1387:1597   */\n      swap3\n      swap2\n      pop\n      pop\n      jump\t// out\n        /* \"#utility.yul\":1603:1720   */\n    tag_62:\n        /* \"#utility.yul\":1712:1713   */\n      0x00\n        /* \"#utility.yul\":1709:1710   */\n      dup1\n        /* \"#utility.yul\":1702:1714   */\n      revert\n        /* \"#utility.yul\":1726:1828   */\n    tag_63:\n        /* \"#utility.yul\":1767:1773   */\n      0x00\n        /* \"#utility.yul\":1818:1820   */\n      0x1f\n        /* \"#utility.yul\":1814:1821   */\n      not\n        /* \"#utility.yul\":1809:1811   */\n      0x1f\n        /* \"#utility.yul\":1802:1807   */\n      dup4\n        /* \"#utility.yul\":1798:1812   */\n      add\n        /* \"#utility.yul\":1794:1822   */\n      and\n        /* \"#utility.yul\":1784:1822   */\n      swap1\n      pop\n        /* \"#utility.yul\":1726:1828   */\n      swap2\n      swap1\n      pop\n      jump\t// out\n        /* \"#utility.yul\":1834:2014   */\n    tag_64:\n        /* \"#utility.yul\":1882:1959   */\n      0x4e487b7100000000000000000000000000000000000000000000000000000000\n        /* \"#utility.yul\":1879:1880   */\n      0x00\n        /* \"#utility.yul\":1872:1960   */\n      mstore\n        /* \"#utility.yul\":1979:1983   */\n      0x41\n        /* \"#utility.yul\":1976:1977   */\n      0x04\n        /* \"#utility.yul\":1969:1984   */\n      mstore\n        /* \"#utility.yul\":2003:2007   */\n      0x24\n        /* \"#utility.yul\":2000:2001   */\n      0x00\n        /* \"#utility.yul\":1993:2008   */\n      revert\n        /* \"#utility.yul\":2020:2301   */\n    tag_65:\n        /* \"#utility.yul\":2103:2130   */\n      tag_129\n        /* \"#utility.yul\":2125:2129   */\n      dup3\n        /* \"#utility.yul\":2103:2130   */\n      tag_63\n      jump\t// in\n    tag_129:\n        /* \"#utility.yul\":2095:2101   */\n      dup2\n        /* \"#utility.yul\":2091:2131   */\n      add\n        /* \"#utility.yul\":2233:2239   */\n      dup2\n        /* \"#utility.yul\":2221:2231   */\n      dup2\n        /* \"#utility.yul\":2218:2240   */\n      lt\n        /* \"#utility.yul\":2197:2215   */\n      0xffffffffffffffff\n        /* \"#utility.yul\":2185:2195   */\n      dup3\n        /* \"#utility.yul\":2182:2216   */\n      gt\n        /* \"#utility.yul\":2179:2241   */\n      or\n        /* \"#utility.yul\":2176:2264   */\n      iszero\n      tag_130\n      jumpi\n        /* \"#utility.yul\":2244:2262   */\n      tag_131\n      tag_64\n      jump\t// in\n    tag_131:\n        /* \"#utility.yul\":2176:2264   */\n    tag_130:\n        /* \"#utility.yul\":2284:2294   */\n      dup1\n        /* \"#utility.yul\":2280:2282   */\n      0x40\n        /* \"#utility.yul\":2273:2295   */\n      mstore\n        /* \"#utility.yul\":2063:2301   */\n      pop\n        /* \"#utility.yul\":2020:2301   */\n      pop\n      pop\n      jump\t// out\n        /* \"#utility.yul\":2307:2436   */\n    tag_66:\n        /* \"#utility.yul\":2341:2347   */\n      0x00\n        /* \"#utility.yul\":2368:2388   */\n      tag_133\n      tag_53\n      jump\t// in\n    tag_133:\n        /* \"#utility.yul\":2358:2388   */\n      swap1\n      pop\n        /* \"#utility.yul\":2397:2430   */\n      tag_134\n        /* \"#utility.yul\":2425:2429   */\n      dup3\n        /* \"#utility.yul\":2417:2423   */\n      dup3\n        /* \"#utility.yul\":2397:2430   */\n      tag_65\n      jump\t// in\n    tag_134:\n        /* \"#utility.yul\":2307:2436   */\n      swap2\n      swap1\n      pop\n      jump\t// out\n        /* \"#utility.yul\":2442:2559   */\n    tag_67:\n        /* \"#utility.yul\":2551:2552   */\n      0x00\n        /* \"#utility.yul\":2548:2549   */\n      dup1\n        /* \"#utility.yul\":2541:2553   */\n      revert\n        /* \"#utility.yul\":2565:2682   */\n    tag_68:\n        /* \"#utility.yul\":2674:2675   */\n      0x00\n        /* \"#utility.yul\":2671:2672   */\n      dup1\n        /* \"#utility.yul\":2664:2676   */\n      revert\n        /* \"#utility.yul\":2688:2805   */\n    tag_69:\n        /* \"#utility.yul\":2797:2798   */\n      0x00\n        /* \"#utility.yul\":2794:2795   */\n      dup1\n        /* \"#utility.yul\":2787:2799   */\n      revert\n        /* \"#utility.yul\":2811:3119   */\n    tag_70:\n        /* \"#utility.yul\":2873:2877   */\n      0x00\n        /* \"#utility.yul\":2963:2981   */\n      0xffffffffffffffff\n        /* \"#utility.yul\":2955:2961   */\n      dup3\n        /* \"#utility.yul\":2952:2982   */\n      gt\n        /* \"#utility.yul\":2949:3005   */\n      iszero\n      tag_139\n      jumpi\n        /* \"#utility.yul\":2985:3003   */\n      tag_140\n      tag_64\n      jump\t// in\n    tag_140:\n        /* \"#utility.yul\":2949:3005   */\n    tag_139:\n        /* \"#utility.yul\":3023:3052   */\n      tag_141\n        /* \"#utility.yul\":3045:3051   */\n      dup3\n        /* \"#utility.yul\":3023:3052   */\n      tag_63\n      jump\t// in\n    tag_141:\n        /* \"#utility.yul\":3015:3052   */\n      swap1\n      pop\n        /* \"#utility.yul\":3107:3111   */\n      0x20\n        /* \"#utility.yul\":3101:3105   */\n      dup2\n        /* \"#utility.yul\":3097:3112   */\n      add\n        /* \"#utility.yul\":3089:3112   */\n      swap1\n      pop\n        /* \"#utility.yul\":2811:3119   */\n      swap2\n      swap1\n      pop\n      jump\t// out\n        /* \"#utility.yul\":3125:3271   */\n    tag_71:\n        /* \"#utility.yul\":3222:3228   */\n      dup3\n        /* \"#utility.yul\":3217:3220   */\n      dup2\n        /* \"#utility.yul\":3212:3215   */\n      dup4\n        /* \"#utility.yul\":3199:3229   */\n      calldatacopy\n        /* \"#utility.yul\":3263:3264   */\n      0x00\n        /* \"#utility.yul\":3254:3260   */\n      dup4\n        /* \"#utility.yul\":3249:3252   */\n      dup4\n        /* \"#utility.yul\":3245:3261   */\n      add\n        /* \"#utility.yul\":3238:3265   */\n      mstore\n        /* \"#utility.yul\":3125:3271   */\n      pop\n      pop\n      pop\n      jump\t// out\n        /* \"#utility.yul\":3277:3702   */\n    tag_72:\n        /* \"#utility.yul\":3355:3360   */\n      0x00\n        /* \"#utility.yul\":3380:3446   */\n      tag_144\n        /* \"#utility.yul\":3396:3445   */\n      tag_145\n        /* \"#utility.yul\":3438:3444   */\n      dup5\n        /* \"#utility.yul\":3396:3445   */\n      tag_70\n      jump\t// in\n    tag_145:\n        /* \"#utility.yul\":3380:3446   */\n      tag_66\n      jump\t// in\n    tag_144:\n        /* \"#utility.yul\":3371:3446   */\n      swap1\n      pop\n        /* \"#utility.yul\":3469:3475   */\n      dup3\n        /* \"#utility.yul\":3462:3467   */\n      dup2\n        /* \"#utility.yul\":3455:3476   */\n      mstore\n        /* \"#utility.yul\":3507:3511   */\n      0x20\n        /* \"#utility.yul\":3500:3505   */\n      dup2\n        /* \"#utility.yul\":3496:3512   */\n      add\n        /* \"#utility.yul\":3545:3548   */\n      dup5\n        /* \"#utility.yul\":3536:3542   */\n      dup5\n        /* \"#utility.yul\":3531:3534   */\n      dup5\n        /* \"#utility.yul\":3527:3543   */\n      add\n        /* \"#utility.yul\":3524:3549   */\n      gt\n        /* \"#utility.yul\":3521:3633   */\n      iszero\n      tag_146\n      jumpi\n        /* \"#utility.yul\":3552:3631   */\n      tag_147\n      tag_69\n      jump\t// in\n    tag_147:\n        /* \"#utility.yul\":3521:3633   */\n    tag_146:\n        /* \"#utility.yul\":3642:3696   */\n      tag_148\n        /* \"#utility.yul\":3689:3695   */\n      dup5\n        /* \"#utility.yul\":3684:3687   */\n      dup3\n        /* \"#utility.yul\":3679:3682   */\n      dup6\n        /* \"#utility.yul\":3642:3696   */\n      tag_71\n      jump\t// in\n    tag_148:\n        /* \"#utility.yul\":3361:3702   */\n      pop\n        /* \"#utility.yul\":3277:3702   */\n      swap4\n      swap3\n      pop\n      pop\n      pop\n      jump\t// out\n        /* \"#utility.yul\":3722:4062   */\n    tag_73:\n        /* \"#utility.yul\":3778:3783   */\n      0x00\n        /* \"#utility.yul\":3827:3830   */\n      dup3\n        /* \"#utility.yul\":3820:3824   */\n      0x1f\n        /* \"#utility.yul\":3812:3818   */\n      dup4\n        /* \"#utility.yul\":3808:3825   */\n      add\n        /* \"#utility.yul\":3804:3831   */\n      slt\n        /* \"#utility.yul\":3794:3916   */\n      tag_150\n      jumpi\n        /* \"#utility.yul\":3835:3914   */\n      tag_151\n      tag_68\n      jump\t// in\n    tag_151:\n        /* \"#utility.yul\":3794:3916   */\n    tag_150:\n        /* \"#utility.yul\":3952:3958   */\n      dup2\n        /* \"#utility.yul\":3939:3959   */\n      calldataload\n        /* \"#utility.yul\":3977:4056   */\n      tag_152\n        /* \"#utility.yul\":4052:4055   */\n      dup5\n        /* \"#utility.yul\":4044:4050   */\n      dup3\n        /* \"#utility.yul\":4037:4041   */\n      0x20\n        /* \"#utility.yul\":4029:4035   */\n      dup7\n        /* \"#utility.yul\":4025:4042   */\n      add\n        /* \"#utility.yul\":3977:4056   */\n      tag_72\n      jump\t// in\n    tag_152:\n        /* \"#utility.yul\":3968:4056   */\n      swap2\n      pop\n        /* \"#utility.yul\":3784:4062   */\n      pop\n        /* \"#utility.yul\":3722:4062   */\n      swap3\n      swap2\n      pop\n      pop\n      jump\t// out\n        /* \"#utility.yul\":4105:5185   */\n    tag_74:\n        /* \"#utility.yul\":4174:4179   */\n      0x00\n        /* \"#utility.yul\":4218:4222   */\n      0x60\n        /* \"#utility.yul\":4206:4215   */\n      dup3\n        /* \"#utility.yul\":4201:4204   */\n      dup5\n        /* \"#utility.yul\":4197:4216   */\n      sub\n        /* \"#utility.yul\":4193:4223   */\n      slt\n        /* \"#utility.yul\":4190:4307   */\n      iszero\n      tag_154\n      jumpi\n        /* \"#utility.yul\":4226:4305   */\n      tag_155\n      tag_62\n      jump\t// in\n    tag_155:\n        /* \"#utility.yul\":4190:4307   */\n    tag_154:\n        /* \"#utility.yul\":4325:4346   */\n      tag_156\n        /* \"#utility.yul\":4341:4345   */\n      0x60\n        /* \"#utility.yul\":4325:4346   */\n      tag_66\n      jump\t// in\n    tag_156:\n        /* \"#utility.yul\":4316:4346   */\n      swap1\n      pop\n        /* \"#utility.yul\":4404:4405   */\n      0x00\n        /* \"#utility.yul\":4444:4493   */\n      tag_157\n        /* \"#utility.yul\":4489:4492   */\n      dup5\n        /* \"#utility.yul\":4480:4486   */\n      dup3\n        /* \"#utility.yul\":4469:4478   */\n      dup6\n        /* \"#utility.yul\":4465:4487   */\n      add\n        /* \"#utility.yul\":4444:4493   */\n      tag_59\n      jump\t// in\n    tag_157:\n        /* \"#utility.yul\":4437:4441   */\n      0x00\n        /* \"#utility.yul\":4430:4435   */\n      dup4\n        /* \"#utility.yul\":4426:4442   */\n      add\n        /* \"#utility.yul\":4419:4494   */\n      mstore\n        /* \"#utility.yul\":4356:4505   */\n      pop\n        /* \"#utility.yul\":4596:4598   */\n      0x20\n        /* \"#utility.yul\":4585:4594   */\n      dup3\n        /* \"#utility.yul\":4581:4599   */\n      add\n        /* \"#utility.yul\":4568:4600   */\n      calldataload\n        /* \"#utility.yul\":4627:4645   */\n      0xffffffffffffffff\n        /* \"#utility.yul\":4619:4625   */\n      dup2\n        /* \"#utility.yul\":4616:4646   */\n      gt\n        /* \"#utility.yul\":4613:4730   */\n      iszero\n      tag_158\n      jumpi\n        /* \"#utility.yul\":4649:4728   */\n      tag_159\n      tag_67\n      jump\t// in\n    tag_159:\n        /* \"#utility.yul\":4613:4730   */\n    tag_158:\n        /* \"#utility.yul\":4769:4828   */\n      tag_160\n        /* \"#utility.yul\":4824:4827   */\n      dup5\n        /* \"#utility.yul\":4815:4821   */\n      dup3\n        /* \"#utility.yul\":4804:4813   */\n      dup6\n        /* \"#utility.yul\":4800:4822   */\n      add\n        /* \"#utility.yul\":4769:4828   */\n      tag_73\n      jump\t// in\n    tag_160:\n        /* \"#utility.yul\":4762:4766   */\n      0x20\n        /* \"#utility.yul\":4755:4760   */\n      dup4\n        /* \"#utility.yul\":4751:4767   */\n      add\n        /* \"#utility.yul\":4744:4829   */\n      mstore\n        /* \"#utility.yul\":4515:4840   */\n      pop\n        /* \"#utility.yul\":4934:4936   */\n      0x40\n        /* \"#utility.yul\":4923:4932   */\n      dup3\n        /* \"#utility.yul\":4919:4937   */\n      add\n        /* \"#utility.yul\":4906:4938   */\n      calldataload\n        /* \"#utility.yul\":4965:4983   */\n      0xffffffffffffffff\n        /* \"#utility.yul\":4957:4963   */\n      dup2\n        /* \"#utility.yul\":4954:4984   */\n      gt\n        /* \"#utility.yul\":4951:5068   */\n      iszero\n      tag_161\n      jumpi\n        /* \"#utility.yul\":4987:5066   */\n      tag_162\n      tag_67\n      jump\t// in\n    tag_162:\n        /* \"#utility.yul\":4951:5068   */\n    tag_161:\n        /* \"#utility.yul\":5107:5166   */\n      tag_163\n        /* \"#utility.yul\":5162:5165   */\n      dup5\n        /* \"#utility.yul\":5153:5159   */\n      dup3\n        /* \"#utility.yul\":5142:5151   */\n      dup6\n        /* \"#utility.yul\":5138:5160   */\n      add\n        /* \"#utility.yul\":5107:5166   */\n      tag_73\n      jump\t// in\n    tag_163:\n        /* \"#utility.yul\":5100:5104   */\n      0x40\n        /* \"#utility.yul\":5093:5098   */\n      dup4\n        /* \"#utility.yul\":5089:5105   */\n      add\n        /* \"#utility.yul\":5082:5167   */\n      mstore\n        /* \"#utility.yul\":4850:5178   */\n      pop\n        /* \"#utility.yul\":4105:5185   */\n      swap3\n      swap2\n      pop\n      pop\n      jump\t// out\n        /* \"#utility.yul\":5191:5720   */\n    tag_18:\n        /* \"#utility.yul\":5270:5276   */\n      0x00\n        /* \"#utility.yul\":5319:5321   */\n      0x20\n        /* \"#utility.yul\":5307:5316   */\n      dup3\n        /* \"#utility.yul\":5298:5305   */\n      dup5\n        /* \"#utility.yul\":5294:5317   */\n      sub\n        /* \"#utility.yul\":5290:5322   */\n      slt\n        /* \"#utility.yul\":5287:5406   */\n      iszero\n      tag_165\n      jumpi\n        /* \"#utility.yul\":5325:5404   */\n      tag_166\n      tag_54\n      jump\t// in\n    tag_166:\n        /* \"#utility.yul\":5287:5406   */\n    tag_165:\n        /* \"#utility.yul\":5473:5474   */\n      0x00\n        /* \"#utility.yul\":5462:5471   */\n      dup3\n        /* \"#utility.yul\":5458:5475   */\n      add\n        /* \"#utility.yul\":5445:5476   */\n      calldataload\n        /* \"#utility.yul\":5503:5521   */\n      0xffffffffffffffff\n        /* \"#utility.yul\":5495:5501   */\n      dup2\n        /* \"#utility.yul\":5492:5522   */\n      gt\n        /* \"#utility.yul\":5489:5606   */\n      iszero\n      tag_167\n      jumpi\n        /* \"#utility.yul\":5525:5604   */\n      tag_168\n      tag_55\n      jump\t// in\n    tag_168:\n        /* \"#utility.yul\":5489:5606   */\n    tag_167:\n        /* \"#utility.yul\":5630:5703   */\n      tag_169\n        /* \"#utility.yul\":5695:5702   */\n      dup5\n        /* \"#utility.yul\":5686:5692   */\n      dup3\n        /* \"#utility.yul\":5675:5684   */\n      dup6\n        /* \"#utility.yul\":5671:5693   */\n      add\n        /* \"#utility.yul\":5630:5703   */\n      tag_74\n      jump\t// in\n    tag_169:\n        /* \"#utility.yul\":5620:5703   */\n      swap2\n      pop\n        /* \"#utility.yul\":5416:5713   */\n      pop\n        /* \"#utility.yul\":5191:5720   */\n      swap3\n      swap2\n      pop\n      pop\n      jump\t// out\n        /* \"#utility.yul\":5726:5840   */\n    tag_75:\n        /* \"#utility.yul\":5793:5799   */\n      0x00\n        /* \"#utility.yul\":5827:5832   */\n      dup2\n        /* \"#utility.yul\":5821:5833   */\n      mload\n        /* \"#utility.yul\":5811:5833   */\n      swap1\n      pop\n        /* \"#utility.yul\":5726:5840   */\n      swap2\n      swap1\n      pop\n      jump\t// out\n        /* \"#utility.yul\":5846:6030   */\n    tag_76:\n        /* \"#utility.yul\":5945:5956   */\n      0x00\n        /* \"#utility.yul\":5979:5985   */\n      dup3\n        /* \"#utility.yul\":5974:5977   */\n      dup3\n        /* \"#utility.yul\":5967:5986   */\n      mstore\n        /* \"#utility.yul\":6019:6023   */\n      0x20\n        /* \"#utility.yul\":6014:6017   */\n      dup3\n        /* \"#utility.yul\":6010:6024   */\n      add\n        /* \"#utility.yul\":5995:6024   */\n      swap1\n      pop\n        /* \"#utility.yul\":5846:6030   */\n      swap3\n      swap2\n      pop\n      pop\n      jump\t// out\n        /* \"#utility.yul\":6036:6168   */\n    tag_77:\n        /* \"#utility.yul\":6103:6107   */\n      0x00\n        /* \"#utility.yul\":6126:6129   */\n      dup2\n        /* \"#utility.yul\":6118:6129   */\n      swap1\n      pop\n        /* \"#utility.yul\":6156:6160   */\n      0x20\n        /* \"#utility.yul\":6151:6154   */\n      dup3\n        /* \"#utility.yul\":6147:6161   */\n      add\n        /* \"#utility.yul\":6139:6161   */\n      swap1\n      pop\n        /* \"#utility.yul\":6036:6168   */\n      swap2\n      swap1\n      pop\n      jump\t// out\n        /* \"#utility.yul\":6174:6282   */\n    tag_78:\n        /* \"#utility.yul\":6251:6275   */\n      tag_174\n        /* \"#utility.yul\":6269:6274   */\n      dup2\n        /* \"#utility.yul\":6251:6275   */\n      tag_57\n      jump\t// in\n    tag_174:\n        /* \"#utility.yul\":6246:6249   */\n      dup3\n        /* \"#utility.yul\":6239:6276   */\n      mstore\n        /* \"#utility.yul\":6174:6282   */\n      pop\n      pop\n      jump\t// out\n        /* \"#utility.yul\":6288:6467   */\n    tag_79:\n        /* \"#utility.yul\":6357:6367   */\n      0x00\n        /* \"#utility.yul\":6378:6424   */\n      tag_176\n        /* \"#utility.yul\":6420:6423   */\n      dup4\n        /* \"#utility.yul\":6412:6418   */\n      dup4\n        /* \"#utility.yul\":6378:6424   */\n      tag_78\n      jump\t// in\n    tag_176:\n        /* \"#utility.yul\":6456:6460   */\n      0x20\n        /* \"#utility.yul\":6451:6454   */\n      dup4\n        /* \"#utility.yul\":6447:6461   */\n      add\n        /* \"#utility.yul\":6433:6461   */\n      swap1\n      pop\n        /* \"#utility.yul\":6288:6467   */\n      swap3\n      swap2\n      pop\n      pop\n      jump\t// out\n        /* \"#utility.yul\":6473:6586   */\n    tag_80:\n        /* \"#utility.yul\":6543:6547   */\n      0x00\n        /* \"#utility.yul\":6575:6579   */\n      0x20\n        /* \"#utility.yul\":6570:6573   */\n      dup3\n        /* \"#utility.yul\":6566:6580   */\n      add\n        /* \"#utility.yul\":6558:6580   */\n      swap1\n      pop\n        /* \"#utility.yul\":6473:6586   */\n      swap2\n      swap1\n      pop\n      jump\t// out\n        /* \"#utility.yul\":6622:7354   */\n    tag_81:\n        /* \"#utility.yul\":6741:6744   */\n      0x00\n        /* \"#utility.yul\":6770:6824   */\n      tag_179\n        /* \"#utility.yul\":6818:6823   */\n      dup3\n        /* \"#utility.yul\":6770:6824   */\n      tag_75\n      jump\t// in\n    tag_179:\n        /* \"#utility.yul\":6840:6926   */\n      tag_180\n        /* \"#utility.yul\":6919:6925   */\n      dup2\n        /* \"#utility.yul\":6914:6917   */\n      dup6\n        /* \"#utility.yul\":6840:6926   */\n      tag_76\n      jump\t// in\n    tag_180:\n        /* \"#utility.yul\":6833:6926   */\n      swap4\n      pop\n        /* \"#utility.yul\":6950:7006   */\n      tag_181\n        /* \"#utility.yul\":7000:7005   */\n      dup4\n        /* \"#utility.yul\":6950:7006   */\n      tag_77\n      jump\t// in\n    tag_181:\n        /* \"#utility.yul\":7029:7036   */\n      dup1\n        /* \"#utility.yul\":7060:7061   */\n      0x00\n        /* \"#utility.yul\":7045:7329   */\n    tag_182:\n        /* \"#utility.yul\":7070:7076   */\n      dup4\n        /* \"#utility.yul\":7067:7068   */\n      dup2\n        /* \"#utility.yul\":7064:7077   */\n      lt\n        /* \"#utility.yul\":7045:7329   */\n      iszero\n      tag_184\n      jumpi\n        /* \"#utility.yul\":7146:7152   */\n      dup2\n        /* \"#utility.yul\":7140:7153   */\n      mload\n        /* \"#utility.yul\":7173:7236   */\n      tag_185\n        /* \"#utility.yul\":7232:7235   */\n      dup9\n        /* \"#utility.yul\":7217:7230   */\n      dup3\n        /* \"#utility.yul\":7173:7236   */\n      tag_79\n      jump\t// in\n    tag_185:\n        /* \"#utility.yul\":7166:7236   */\n      swap8\n      pop\n        /* \"#utility.yul\":7259:7319   */\n      tag_186\n        /* \"#utility.yul\":7312:7318   */\n      dup4\n        /* \"#utility.yul\":7259:7319   */\n      tag_80\n      jump\t// in\n    tag_186:\n        /* \"#utility.yul\":7249:7319   */\n      swap3\n      pop\n        /* \"#utility.yul\":7105:7329   */\n      pop\n        /* \"#utility.yul\":7092:7093   */\n      0x01\n        /* \"#utility.yul\":7089:7090   */\n      dup2\n        /* \"#utility.yul\":7085:7094   */\n      add\n        /* \"#utility.yul\":7080:7094   */\n      swap1\n      pop\n        /* \"#utility.yul\":7045:7329   */\n      jump(tag_182)\n    tag_184:\n        /* \"#utility.yul\":7049:7063   */\n      pop\n        /* \"#utility.yul\":7345:7348   */\n      dup6\n        /* \"#utility.yul\":7338:7348   */\n      swap4\n      pop\n        /* \"#utility.yul\":6746:7354   */\n      pop\n      pop\n      pop\n        /* \"#utility.yul\":6622:7354   */\n      swap3\n      swap2\n      pop\n      pop\n      jump\t// out\n        /* \"#utility.yul\":7360:7733   */\n    tag_23:\n        /* \"#utility.yul\":7503:7507   */\n      0x00\n        /* \"#utility.yul\":7541:7543   */\n      0x20\n        /* \"#utility.yul\":7530:7539   */\n      dup3\n        /* \"#utility.yul\":7526:7544   */\n      add\n        /* \"#utility.yul\":7518:7544   */\n      swap1\n      pop\n        /* \"#utility.yul\":7590:7599   */\n      dup2\n        /* \"#utility.yul\":7584:7588   */\n      dup2\n        /* \"#utility.yul\":7580:7600   */\n      sub\n        /* \"#utility.yul\":7576:7577   */\n      0x00\n        /* \"#utility.yul\":7565:7574   */\n      dup4\n        /* \"#utility.yul\":7561:7578   */\n      add\n        /* \"#utility.yul\":7554:7601   */\n      mstore\n        /* \"#utility.yul\":7618:7726   */\n      tag_188\n        /* \"#utility.yul\":7721:7725   */\n      dup2\n        /* \"#utility.yul\":7712:7718   */\n      dup5\n        /* \"#utility.yul\":7618:7726   */\n      tag_81\n      jump\t// in\n    tag_188:\n        /* \"#utility.yul\":7610:7726   */\n      swap1\n      pop\n        /* \"#utility.yul\":7360:7733   */\n      swap3\n      swap2\n      pop\n      pop\n      jump\t// out\n        /* \"#utility.yul\":7739:7908   */\n    tag_82:\n        /* \"#utility.yul\":7823:7834   */\n      0x00\n        /* \"#utility.yul\":7857:7863   */\n      dup3\n        /* \"#utility.yul\":7852:7855   */\n      dup3\n        /* \"#utility.yul\":7845:7864   */\n      mstore\n        /* \"#utility.yul\":7897:7901   */\n      0x20\n        /* \"#utility.yul\":7892:7895   */\n      dup3\n        /* \"#utility.yul\":7888:7902   */\n      add\n        /* \"#utility.yul\":7873:7902   */\n      swap1\n      pop\n        /* \"#utility.yul\":7739:7908   */\n      swap3\n      swap2\n      pop\n      pop\n      jump\t// out\n        /* \"#utility.yul\":7914:8078   */\n    tag_83:\n        /* \"#utility.yul\":8054:8070   */\n      0x4e6f7420417574686f72697a6564000000000000000000000000000000000000\n        /* \"#utility.yul\":8050:8051   */\n      0x00\n        /* \"#utility.yul\":8042:8048   */\n      dup3\n        /* \"#utility.yul\":8038:8052   */\n      add\n        /* \"#utility.yul\":8031:8071   */\n      mstore\n        /* \"#utility.yul\":7914:8078   */\n      pop\n      jump\t// out\n        /* \"#utility.yul\":8084:8450   */\n    tag_84:\n        /* \"#utility.yul\":8226:8229   */\n      0x00\n        /* \"#utility.yul\":8247:8314   */\n      tag_192\n        /* \"#utility.yul\":8311:8313   */\n      0x0e\n        /* \"#utility.yul\":8306:8309   */\n      dup4\n        /* \"#utility.yul\":8247:8314   */\n      tag_82\n      jump\t// in\n    tag_192:\n        /* \"#utility.yul\":8240:8314   */\n      swap2\n      pop\n        /* \"#utility.yul\":8323:8416   */\n      tag_193\n        /* \"#utility.yul\":8412:8415   */\n      dup3\n        /* \"#utility.yul\":8323:8416   */\n      tag_83\n      jump\t// in\n    tag_193:\n        /* \"#utility.yul\":8441:8443   */\n      0x20\n        /* \"#utility.yul\":8436:8439   */\n      dup3\n        /* \"#utility.yul\":8432:8444   */\n      add\n        /* \"#utility.yul\":8425:8444   */\n      swap1\n      pop\n        /* \"#utility.yul\":8084:8450   */\n      swap2\n      swap1\n      pop\n      jump\t// out\n        /* \"#utility.yul\":8456:8875   */\n    tag_27:\n        /* \"#utility.yul\":8622:8626   */\n      0x00\n        /* \"#utility.yul\":8660:8662   */\n      0x20\n        /* \"#utility.yul\":8649:8658   */\n      dup3\n        /* \"#utility.yul\":8645:8663   */\n      add\n        /* \"#utility.yul\":8637:8663   */\n      swap1\n      pop\n        /* \"#utility.yul\":8709:8718   */\n      dup2\n        /* \"#utility.yul\":8703:8707   */\n      dup2\n        /* \"#utility.yul\":8699:8719   */\n      sub\n        /* \"#utility.yul\":8695:8696   */\n      0x00\n        /* \"#utility.yul\":8684:8693   */\n      dup4\n        /* \"#utility.yul\":8680:8697   */\n      add\n        /* \"#utility.yul\":8673:8720   */\n      mstore\n        /* \"#utility.yul\":8737:8868   */\n      tag_195\n        /* \"#utility.yul\":8863:8867   */\n      dup2\n        /* \"#utility.yul\":8737:8868   */\n      tag_84\n      jump\t// in\n    tag_195:\n        /* \"#utility.yul\":8729:8868   */\n      swap1\n      pop\n        /* \"#utility.yul\":8456:8875   */\n      swap2\n      swap1\n      pop\n      jump\t// out\n        /* \"#utility.yul\":8881:8980   */\n    tag_85:\n        /* \"#utility.yul\":8933:8939   */\n      0x00\n        /* \"#utility.yul\":8967:8972   */\n      dup2\n        /* \"#utility.yul\":8961:8973   */\n      mload\n        /* \"#utility.yul\":8951:8973   */\n      swap1\n      pop\n        /* \"#utility.yul\":8881:8980   */\n      swap2\n      swap1\n      pop\n      jump\t// out\n        /* \"#utility.yul\":8986:9166   */\n    tag_86:\n        /* \"#utility.yul\":9034:9111   */\n      0x4e487b7100000000000000000000000000000000000000000000000000000000\n        /* \"#utility.yul\":9031:9032   */\n      0x00\n        /* \"#utility.yul\":9024:9112   */\n      mstore\n        /* \"#utility.yul\":9131:9135   */\n      0x22\n        /* \"#utility.yul\":9128:9129   */\n      0x04\n        /* \"#utility.yul\":9121:9136   */\n      mstore\n        /* \"#utility.yul\":9155:9159   */\n      0x24\n        /* \"#utility.yul\":9152:9153   */\n      0x00\n        /* \"#utility.yul\":9145:9160   */\n      revert\n        /* \"#utility.yul\":9172:9492   */\n    tag_87:\n        /* \"#utility.yul\":9216:9222   */\n      0x00\n        /* \"#utility.yul\":9253:9254   */\n      0x02\n        /* \"#utility.yul\":9247:9251   */\n      dup3\n        /* \"#utility.yul\":9243:9255   */\n      div\n        /* \"#utility.yul\":9233:9255   */\n      swap1\n      pop\n        /* \"#utility.yul\":9300:9301   */\n      0x01\n        /* \"#utility.yul\":9294:9298   */\n      dup3\n        /* \"#utility.yul\":9290:9302   */\n      and\n        /* \"#utility.yul\":9321:9339   */\n      dup1\n        /* \"#utility.yul\":9311:9392   */\n      tag_199\n      jumpi\n        /* \"#utility.yul\":9377:9381   */\n      0x7f\n        /* \"#utility.yul\":9369:9375   */\n      dup3\n        /* \"#utility.yul\":9365:9382   */\n      and\n        /* \"#utility.yul\":9355:9382   */\n      swap2\n      pop\n        /* \"#utility.yul\":9311:9392   */\n    tag_199:\n        /* \"#utility.yul\":9439:9441   */\n      0x20\n        /* \"#utility.yul\":9431:9437   */\n      dup3\n        /* \"#utility.yul\":9428:9442   */\n      lt\n        /* \"#utility.yul\":9408:9426   */\n      dup2\n        /* \"#utility.yul\":9405:9443   */\n      sub\n        /* \"#utility.yul\":9402:9486   */\n      tag_200\n      jumpi\n        /* \"#utility.yul\":9458:9476   */\n      tag_201\n      tag_86\n      jump\t// in\n    tag_201:\n        /* \"#utility.yul\":9402:9486   */\n    tag_200:\n        /* \"#utility.yul\":9223:9492   */\n      pop\n        /* \"#utility.yul\":9172:9492   */\n      swap2\n      swap1\n      pop\n      jump\t// out\n        /* \"#utility.yul\":9498:9639   */\n    tag_88:\n        /* \"#utility.yul\":9547:9551   */\n      0x00\n        /* \"#utility.yul\":9570:9573   */\n      dup2\n        /* \"#utility.yul\":9562:9573   */\n      swap1\n      pop\n        /* \"#utility.yul\":9593:9596   */\n      dup2\n        /* \"#utility.yul\":9590:9591   */\n      0x00\n        /* \"#utility.yul\":9583:9597   */\n      mstore\n        /* \"#utility.yul\":9627:9631   */\n      0x20\n        /* \"#utility.yul\":9624:9625   */\n      0x00\n        /* \"#utility.yul\":9614:9632   */\n      keccak256\n        /* \"#utility.yul\":9606:9632   */\n      swap1\n      pop\n        /* \"#utility.yul\":9498:9639   */\n      swap2\n      swap1\n      pop\n      jump\t// out\n        /* \"#utility.yul\":9645:9738   */\n    tag_89:\n        /* \"#utility.yul\":9682:9688   */\n      0x00\n        /* \"#utility.yul\":9729:9731   */\n      0x20\n        /* \"#utility.yul\":9724:9726   */\n      0x1f\n        /* \"#utility.yul\":9717:9722   */\n      dup4\n        /* \"#utility.yul\":9713:9727   */\n      add\n        /* \"#utility.yul\":9709:9732   */\n      div\n        /* \"#utility.yul\":9699:9732   */\n      swap1\n      pop\n        /* \"#utility.yul\":9645:9738   */\n      swap2\n      swap1\n      pop\n      jump\t// out\n        /* \"#utility.yul\":9744:9851   */\n    tag_90:\n        /* \"#utility.yul\":9788:9796   */\n      0x00\n        /* \"#utility.yul\":9838:9843   */\n      dup3\n        /* \"#utility.yul\":9832:9836   */\n      dup3\n        /* \"#utility.yul\":9828:9844   */\n      shl\n        /* \"#utility.yul\":9807:9844   */\n      swap1\n      pop\n        /* \"#utility.yul\":9744:9851   */\n      swap3\n      swap2\n      pop\n      pop\n      jump\t// out\n        /* \"#utility.yul\":9857:10250   */\n    tag_91:\n        /* \"#utility.yul\":9926:9932   */\n      0x00\n        /* \"#utility.yul\":9976:9977   */\n      0x08\n        /* \"#utility.yul\":9964:9974   */\n      dup4\n        /* \"#utility.yul\":9960:9978   */\n      mul\n        /* \"#utility.yul\":9999:10096   */\n      tag_206\n        /* \"#utility.yul\":10029:10095   */\n      0xffffffffffffffffffffffffffffffffffffffffffffffffffffffffffffffff\n        /* \"#utility.yul\":10018:10027   */\n      dup3\n        /* \"#utility.yul\":9999:10096   */\n      tag_90\n      jump\t// in\n    tag_206:\n        /* \"#utility.yul\":10117:10156   */\n      tag_207\n        /* \"#utility.yul\":10147:10155   */\n      dup7\n        /* \"#utility.yul\":10136:10145   */\n      dup4\n        /* \"#utility.yul\":10117:10156   */\n      tag_90\n      jump\t// in\n    tag_207:\n        /* \"#utility.yul\":10105:10156   */\n      swap6\n      pop\n        /* \"#utility.yul\":10189:10193   */\n      dup1\n        /* \"#utility.yul\":10185:10194   */\n      not\n        /* \"#utility.yul\":10178:10183   */\n      dup5\n        /* \"#utility.yul\":10174:10195   */\n      and\n        /* \"#utility.yul\":10165:10195   */\n      swap4\n      pop\n        /* \"#utility.yul\":10238:10242   */\n      dup1\n        /* \"#utility.yul\":10228:10236   */\n      dup7\n        /* \"#utility.yul\":10224:10243   */\n      and\n        /* \"#utility.yul\":10217:10222   */\n      dup5\n        /* \"#utility.yul\":10214:10244   */\n      or\n        /* \"#utility.yul\":10204:10244   */\n      swap3\n      pop\n        /* \"#utility.yul\":9933:10250   */\n      pop\n      pop\n        /* \"#utility.yul\":9857:10250   */\n      swap4\n      swap3\n      pop\n      pop\n      pop\n      jump\t// out\n        /* \"#utility.yul\":10256:10333   */\n    tag_92:\n        /* \"#utility.yul\":10293:10300   */\n      0x00\n        /* \"#utility.yul\":10322:10327   */\n      dup2\n        /* \"#utility.yul\":10311:10327   */\n      swap1\n      pop\n        /* \"#utility.yul\":10256:10333   */\n      swap2\n      swap1\n      pop\n      jump\t// out\n        /* \"#utility.yul\":10339:10399   */\n    tag_93:\n        /* \"#utility.yul\":10367:10370   */\n      0x00\n        /* \"#utility.yul\":10388:10393   */\n      dup2\n        /* \"#utility.yul\":10381:10393   */\n      swap1\n      pop\n        /* \"#utility.yul\":10339:10399   */\n      swap2\n      swap1\n      pop\n      jump\t// out\n        /* \"#utility.yul\":10405:10547   */\n    tag_94:\n        /* \"#utility.yul\":10455:10464   */\n      0x00\n        /* \"#utility.yul\":10488:10541   */\n      tag_211\n        /* \"#utility.yul\":10506:10540   */\n      tag_212\n        /* \"#utility.yul\":10515:10539   */\n      tag_213\n        /* \"#utility.yul\":10533:10538   */\n      dup5\n        /* \"#utility.yul\":10515:10539   */\n      tag_92\n      jump\t// in\n    tag_213:\n        /* \"#utility.yul\":10506:10540   */\n      tag_93\n      jump\t// in\n    tag_212:\n        /* \"#utility.yul\":10488:10541   */\n      tag_92\n      jump\t// in\n    tag_211:\n        /* \"#utility.yul\":10475:10541   */\n      swap1\n      pop\n        /* \"#utility.yul\":10405:10547   */\n      swap2\n      swap1\n      pop\n      jump\t// out\n        /* \"#utility.yul\":10553:10628   */\n    tag_95:\n        /* \"#utility.yul\":10596:10599   */\n      0x00\n        /* \"#utility.yul\":10617:10622   */\n      dup2\n        /* \"#utility.yul\":10610:10622   */\n      swap1\n      pop\n        /* \"#utility.yul\":10553:10628   */\n      swap2\n      swap1\n      pop\n      jump\t// out\n        /* \"#utility.yul\":10634:10903   */\n    tag_96:\n        /* \"#utility.yul\":10744:10783   */\n      tag_216\n        /* \"#utility.yul\":10775:10782   */\n      dup4\n        /* \"#utility.yul\":10744:10783   */\n      tag_94\n      jump\t// in\n    tag_216:\n        /* \"#utility.yul\":10805:10896   */\n      tag_217\n        /* \"#utility.yul\":10854:10895   */\n      tag_218\n        /* \"#utility.yul\":10878:10894   */\n      dup3\n        /* \"#utility.yul\":10854:10895   */\n      tag_95\n      jump\t// in\n    tag_218:\n        /* \"#utility.yul\":10846:10852   */\n      dup5\n        /* \"#utility.yul\":10839:10843   */\n      dup5\n        /* \"#utility.yul\":10833:10844   */\n      sload\n        /* \"#utility.yul\":10805:10896   */\n      tag_91\n      jump\t// in\n    tag_217:\n        /* \"#utility.yul\":10799:10803   */\n      dup3\n        /* \"#utility.yul\":10792:10897   */\n      sstore\n        /* \"#utility.yul\":10710:10903   */\n      pop\n        /* \"#utility.yul\":10634:10903   */\n      pop\n      pop\n      pop\n      jump\t// out\n        /* \"#utility.yul\":10909:10982   */\n    tag_97:\n        /* \"#utility.yul\":10954:10957   */\n      0x00\n        /* \"#utility.yul\":10909:10982   */\n      swap1\n      jump\t// out\n        /* \"#utility.yul\":10988:11177   */\n    tag_98:\n        /* \"#utility.yul\":11065:11097   */\n      tag_221\n      tag_97\n      jump\t// in\n    tag_221:\n        /* \"#utility.yul\":11106:11171   */\n      tag_222\n        /* \"#utility.yul\":11164:11170   */\n      dup2\n        /* \"#utility.yul\":11156:11162   */\n      dup5\n        /* \"#utility.yul\":11150:11154   */\n      dup5\n        /* \"#utility.yul\":11106:11171   */\n      tag_96\n      jump\t// in\n    tag_222:\n        /* \"#utility.yul\":11041:11177   */\n      pop\n        /* \"#utility.yul\":10988:11177   */\n      pop\n      pop\n      jump\t// out\n        /* \"#utility.yul\":11183:11369   */\n    tag_99:\n        /* \"#utility.yul\":11243:11363   */\n    tag_224:\n        /* \"#utility.yul\":11260:11263   */\n      dup2\n        /* \"#utility.yul\":11253:11258   */\n      dup2\n        /* \"#utility.yul\":11250:11264   */\n      lt\n        /* \"#utility.yul\":11243:11363   */\n      iszero\n      tag_226\n      jumpi\n        /* \"#utility.yul\":11314:11353   */\n      tag_227\n        /* \"#utility.yul\":11351:11352   */\n      0x00\n        /* \"#utility.yul\":11344:11349   */\n      dup3\n        /* \"#utility.yul\":11314:11353   */\n      tag_98\n      jump\t// in\n    tag_227:\n        /* \"#utility.yul\":11287:11288   */\n      0x01\n        /* \"#utility.yul\":11280:11285   */\n      dup2\n        /* \"#utility.yul\":11276:11289   */\n      add\n        /* \"#utility.yul\":11267:11289   */\n      swap1\n      pop\n        /* \"#utility.yul\":11243:11363   */\n      jump(tag_224)\n    tag_226:\n        /* \"#utility.yul\":11183:11369   */\n      pop\n      pop\n      jump\t// out\n        /* \"#utility.yul\":11375:11918   */\n    tag_100:\n        /* \"#utility.yul\":11476:11478   */\n      0x1f\n        /* \"#utility.yul\":11471:11474   */\n      dup3\n        /* \"#utility.yul\":11468:11479   */\n      gt\n        /* \"#utility.yul\":11465:11911   */\n      iszero\n      tag_229\n      jumpi\n        /* \"#utility.yul\":11510:11548   */\n      tag_230\n        /* \"#utility.yul\":11542:11547   */\n      dup2\n        /* \"#utility.yul\":11510:11548   */\n      tag_88\n      jump\t// in\n    tag_230:\n        /* \"#utility.yul\":11594:11623   */\n      tag_231\n        /* \"#utility.yul\":11612:11622   */\n      dup5\n        /* \"#utility.yul\":11594:11623   */\n      tag_89\n      jump\t// in\n    tag_231:\n        /* \"#utility.yul\":11584:11592   */\n      dup2\n        /* \"#utility.yul\":11580:11624   */\n      add\n        /* \"#utility.yul\":11777:11779   */\n      0x20\n        /* \"#utility.yul\":11765:11775   */\n      dup6\n        /* \"#utility.yul\":11762:11780   */\n      lt\n        /* \"#utility.yul\":11759:11808   */\n      iszero\n      tag_232\n      jumpi\n        /* \"#utility.yul\":11798:11806   */\n      dup2\n        /* \"#utility.yul\":11783:11806   */\n      swap1\n      pop\n        /* \"#utility.yul\":11759:11808   */\n    tag_232:\n        /* \"#utility.yul\":11821:11901   */\n      tag_233\n        /* \"#utility.yul\":11877:11899   */\n      tag_234\n        /* \"#utility.yul\":11895:11898   */\n      dup6\n        /* \"#utility.yul\":11877:11899   */\n      tag_89\n      jump\t// in\n    tag_234:\n        /* \"#utility.yul\":11867:11875   */\n      dup4\n        /* \"#utility.yul\":11863:11900   */\n      add\n        /* \"#utility.yul\":11850:11861   */\n      dup3\n        /* \"#utility.yul\":11821:11901   */\n      tag_99\n      jump\t// in\n    tag_233:\n        /* \"#utility.yul\":11480:11911   */\n      pop\n      pop\n        /* \"#utility.yul\":11465:11911   */\n    tag_229:\n        /* \"#utility.yul\":11375:11918   */\n      pop\n      pop\n      pop\n      jump\t// out\n        /* \"#utility.yul\":11924:12041   */\n    tag_101:\n        /* \"#utility.yul\":11978:11986   */\n      0x00\n        /* \"#utility.yul\":12028:12033   */\n      dup3\n        /* \"#utility.yul\":12022:12026   */\n      dup3\n        /* \"#utility.yul\":12018:12034   */\n      shr\n        /* \"#utility.yul\":11997:12034   */\n      swap1\n      pop\n        /* \"#utility.yul\":11924:12041   */\n      swap3\n      swap2\n      pop\n      pop\n      jump\t// out\n        /* \"#utility.yul\":12047:12216   */\n    tag_102:\n        /* \"#utility.yul\":12091:12097   */\n      0x00\n        /* \"#utility.yul\":12124:12175   */\n      tag_237\n        /* \"#utility.yul\":12172:12173   */\n      0x00\n        /* \"#utility.yul\":12168:12174   */\n      not\n        /* \"#utility.yul\":12160:12165   */\n      dup5\n        /* \"#utility.yul\":12157:12158   */\n      0x08\n        /* \"#utility.yul\":12153:12166   */\n      mul\n        /* \"#utility.yul\":12124:12175   */\n      tag_101\n      jump\t// in\n    tag_237:\n        /* \"#utility.yul\":12120:12176   */\n      not\n        /* \"#utility.yul\":12205:12209   */\n      dup1\n        /* \"#utility.yul\":12199:12203   */\n      dup4\n        /* \"#utility.yul\":12195:12210   */\n      and\n        /* \"#utility.yul\":12185:12210   */\n      swap2\n      pop\n        /* \"#utility.yul\":12098:12216   */\n      pop\n        /* \"#utility.yul\":12047:12216   */\n      swap3\n      swap2\n      pop\n      pop\n      jump\t// out\n        /* \"#utility.yul\":12221:12516   */\n    tag_103:\n        /* \"#utility.yul\":12297:12301   */\n      0x00\n        /* \"#utility.yul\":12443:12472   */\n      tag_239\n        /* \"#utility.yul\":12468:12471   */\n      dup4\n        /* \"#utility.yul\":12462:12466   */\n      dup4\n        /* \"#utility.yul\":12443:12472   */\n      tag_102\n      jump\t// in\n    tag_239:\n        /* \"#utility.yul\":12435:12472   */\n      swap2\n      pop\n        /* \"#utility.yul\":12505:12508   */\n      dup3\n        /* \"#utility.yul\":12502:12503   */\n      0x02\n        /* \"#utility.yul\":12498:12509   */\n      mul\n        /* \"#utility.yul\":12492:12496   */\n      dup3\n        /* \"#utility.yul\":12489:12510   */\n      or\n        /* \"#utility.yul\":12481:12510   */\n      swap1\n      pop\n        /* \"#utility.yul\":12221:12516   */\n      swap3\n      swap2\n      pop\n      pop\n      jump\t// out\n        /* \"#utility.yul\":12521:13916   */\n    tag_45:\n        /* \"#utility.yul\":12638:12675   */\n      tag_241\n        /* \"#utility.yul\":12671:12674   */\n      dup3\n        /* \"#utility.yul\":12638:12675   */\n      tag_85\n      jump\t// in\n    tag_241:\n        /* \"#utility.yul\":12740:12758   */\n      0xffffffffffffffff\n        /* \"#utility.yul\":12732:12738   */\n      dup2\n        /* \"#utility.yul\":12729:12759   */\n      gt\n        /* \"#utility.yul\":12726:12782   */\n      iszero\n      tag_242\n      jumpi\n        /* \"#utility.yul\":12762:12780   */\n      tag_243\n      tag_64\n      jump\t// in\n    tag_243:\n        /* \"#utility.yul\":12726:12782   */\n    tag_242:\n        /* \"#utility.yul\":12806:12844   */\n      tag_244\n        /* \"#utility.yul\":12838:12842   */\n      dup3\n        /* \"#utility.yul\":12832:12843   */\n      sload\n        /* \"#utility.yul\":12806:12844   */\n      tag_87\n      jump\t// in\n    tag_244:\n        /* \"#utility.yul\":12891:12958   */\n      tag_245\n        /* \"#utility.yul\":12951:12957   */\n      dup3\n        /* \"#utility.yul\":12943:12949   */\n      dup3\n        /* \"#utility.yul\":12937:12941   */\n      dup6\n        /* \"#utility.yul\":12891:12958   */\n      tag_100\n      jump\t// in\n    tag_245:\n        /* \"#utility.yul\":12985:12986   */\n      0x00\n        /* \"#utility.yul\":13009:13013   */\n      0x20\n        /* \"#utility.yul\":12996:13013   */\n      swap1\n      pop\n        /* \"#utility.yul\":13041:13043   */\n      0x1f\n        /* \"#utility.yul\":13033:13039   */\n      dup4\n        /* \"#utility.yul\":13030:13044   */\n      gt\n        /* \"#utility.yul\":13058:13059   */\n      0x01\n        /* \"#utility.yul\":13053:13671   */\n      dup2\n      eq\n      tag_247\n      jumpi\n        /* \"#utility.yul\":13715:13716   */\n      0x00\n        /* \"#utility.yul\":13732:13738   */\n      dup5\n        /* \"#utility.yul\":13729:13806   */\n      iszero\n      tag_248\n      jumpi\n        /* \"#utility.yul\":13781:13790   */\n      dup3\n        /* \"#utility.yul\":13776:13779   */\n      dup8\n        /* \"#utility.yul\":13772:13791   */\n      add\n        /* \"#utility.yul\":13766:13792   */\n      mload\n        /* \"#utility.yul\":13757:13792   */\n      swap1\n      pop\n        /* \"#utility.yul\":13729:13806   */\n    tag_248:\n        /* \"#utility.yul\":13832:13899   */\n      tag_249\n        /* \"#utility.yul\":13892:13898   */\n      dup6\n        /* \"#utility.yul\":13885:13890   */\n      dup3\n        /* \"#utility.yul\":13832:13899   */\n      tag_103\n      jump\t// in\n    tag_249:\n        /* \"#utility.yul\":13826:13830   */\n      dup7\n        /* \"#utility.yul\":13819:13900   */\n      sstore\n        /* \"#utility.yul\":13688:13910   */\n      pop\n        /* \"#utility.yul\":13023:13910   */\n      jump(tag_246)\n        /* \"#utility.yul\":13053:13671   */\n    tag_247:\n        /* \"#utility.yul\":13105:13109   */\n      0x1f\n        /* \"#utility.yul\":13101:13110   */\n      not\n        /* \"#utility.yul\":13093:13099   */\n      dup5\n        /* \"#utility.yul\":13089:13111   */\n      and\n        /* \"#utility.yul\":13139:13176   */\n      tag_250\n        /* \"#utility.yul\":13171:13175   */\n      dup7\n        /* \"#utility.yul\":13139:13176   */\n      tag_88\n      jump\t// in\n    tag_250:\n        /* \"#utility.yul\":13198:13199   */\n      0x00\n        /* \"#utility.yul\":13212:13420   */\n    tag_251:\n        /* \"#utility.yul\":13226:13233   */\n      dup3\n        /* \"#utility.yul\":13223:13224   */\n      dup2\n        /* \"#utility.yul\":13220:13234   */\n      lt\n        /* \"#utility.yul\":13212:13420   */\n      iszero\n      tag_253\n      jumpi\n        /* \"#utility.yul\":13305:13314   */\n      dup5\n        /* \"#utility.yul\":13300:13303   */\n      dup10\n        /* \"#utility.yul\":13296:13315   */\n      add\n        /* \"#utility.yul\":13290:13316   */\n      mload\n        /* \"#utility.yul\":13282:13288   */\n      dup3\n        /* \"#utility.yul\":13275:13317   */\n      sstore\n        /* \"#utility.yul\":13356:13357   */\n      0x01\n        /* \"#utility.yul\":13348:13354   */\n      dup3\n        /* \"#utility.yul\":13344:13358   */\n      add\n        /* \"#utility.yul\":13334:13358   */\n      swap2\n      pop\n        /* \"#utility.yul\":13403:13405   */\n      0x20\n        /* \"#utility.yul\":13392:13401   */\n      dup6\n        /* \"#utility.yul\":13388:13406   */\n      add\n        /* \"#utility.yul\":13375:13406   */\n      swap5\n      pop\n        /* \"#utility.yul\":13249:13253   */\n      0x20\n        /* \"#utility.yul\":13246:13247   */\n      dup2\n        /* \"#utility.yul\":13242:13254   */\n      add\n        /* \"#utility.yul\":13237:13254   */\n      swap1\n      pop\n        /* \"#utility.yul\":13212:13420   */\n      jump(tag_251)\n    tag_253:\n        /* \"#utility.yul\":13448:13454   */\n      dup7\n        /* \"#utility.yul\":13439:13446   */\n      dup4\n        /* \"#utility.yul\":13436:13455   */\n      lt\n        /* \"#utility.yul\":13433:13612   */\n      iszero\n      tag_254\n      jumpi\n        /* \"#utility.yul\":13506:13515   */\n      dup5\n        /* \"#utility.yul\":13501:13504   */\n      dup10\n        /* \"#utility.yul\":13497:13516   */\n      add\n        /* \"#utility.yul\":13491:13517   */\n      mload\n        /* \"#utility.yul\":13549:13597   */\n      tag_255\n        /* \"#utility.yul\":13591:13595   */\n      0x1f\n        /* \"#utility.yul\":13583:13589   */\n      dup10\n        /* \"#utility.yul\":13579:13596   */\n      and\n        /* \"#utility.yul\":13568:13577   */\n      dup3\n        /* \"#utility.yul\":13549:13597   */\n      tag_102\n      jump\t// in\n    tag_255:\n        /* \"#utility.yul\":13541:13547   */\n      dup4\n        /* \"#utility.yul\":13534:13598   */\n      sstore\n        /* \"#utility.yul\":13456:13612   */\n      pop\n        /* \"#utility.yul\":13433:13612   */\n    tag_254:\n        /* \"#utility.yul\":13658:13659   */\n      0x01\n        /* \"#utility.yul\":13654:13655   */\n      0x02\n        /* \"#utility.yul\":13646:13652   */\n      dup9\n        /* \"#utility.yul\":13642:13656   */\n      mul\n        /* \"#utility.yul\":13638:13660   */\n      add\n        /* \"#utility.yul\":13632:13636   */\n      dup9\n        /* \"#utility.yul\":13625:13661   */\n      sstore\n        /* \"#utility.yul\":13060:13671   */\n      pop\n      pop\n      pop\n        /* \"#utility.yul\":13023:13910   */\n    tag_246:\n      pop\n        /* \"#utility.yul\":12613:13916   */\n      pop\n      pop\n      pop\n        /* \"#utility.yul\":12521:13916   */\n      pop\n      pop\n      jump\t// out\n\n    auxdata: 0xa2646970667358221220f9904a60547961c7f2bc0b323067fb2e079c62e7e51bc90d003337e6581f5e0264736f6c63430008110033\n}\n","bytecode":{"linkReferences":{},"object":"608060405234801561001057600080fd5b50336000806101000a81548173ffffffffffffffffffffffffffffffffffffffff021916908373ffffffffffffffffffffffffffffffffffffffff160217905550610e21806100606000396000f3fe608060405234801561001057600080fd5b506004361061004c5760003560e01c80634780468f1461005157806363a9c3d71461006d578063e8dea6ae1461009d578063f0d95090146100b9575b600080fd5b61006b60048036038101906100669190610703565b6100d7565b005b61008760048036038101906100829190610703565b61027a565b604051610094919061074b565b60405180910390f35b6100b760048036038101906100b29190610952565b610370565b005b6100c161053e565b6040516100ce9190610a59565b60405180910390f35b60008054906101000a900473ffffffffffffffffffffffffffffffffffffffff1673ffffffffffffffffffffffffffffffffffffffff163373ffffffffffffffffffffffffffffffffffffffff1614610165576040517f08c379a000000000000000000000000000000000000000000000000000000000815260040161015c90610ad8565b60405180910390fd5b600260008273ffffffffffffffffffffffffffffffffffffffff1673ffffffffffffffffffffffffffffffffffffffff16815260200190815260200160002060009054906101000a900460ff16156101bc57600080fd5b6001600260008373ffffffffffffffffffffffffffffffffffffffff1673ffffffffffffffffffffffffffffffffffffffff16815260200190815260200160002060006101000a81548160ff0219169083151502179055506001819080600181540180825580915050600190039060005260206000200160009091909190916101000a81548173ffffffffffffffffffffffffffffffffffffffff021916908373ffffffffffffffffffffffffffffffffffffffff16021790555050565b60008060009054906101000a900473ffffffffffffffffffffffffffffffffffffffff1673ffffffffffffffffffffffffffffffffffffffff163373ffffffffffffffffffffffffffffffffffffffff161461030b576040517f08c379a000000000000000000000000000000000000000000000000000000000815260040161030290610ad8565b60405180910390fd5b600260008373ffffffffffffffffffffffffffffffffffffffff1673ffffffffffffffffffffffffffffffffffffffff16815260200190815260200160002060009054906101000a900460ff1615610366576001905061036b565b600090505b919050565b60008054906101000a900473ffffffffffffffffffffffffffffffffffffffff1673ffffffffffffffffffffffffffffffffffffffff163373ffffffffffffffffffffffffffffffffffffffff16146103fe576040517f08c379a00000000000000000000000000000000000000000000000000000000081526004016103f590610ad8565b60405180910390fd5b61040661065a565b8160000151816000019073ffffffffffffffffffffffffffffffffffffffff16908173ffffffffffffffffffffffffffffffffffffffff16815250508160200151816020018190525081604001518160400181905250600360003373ffffffffffffffffffffffffffffffffffffffff1673ffffffffffffffffffffffffffffffffffffffff16815260200190815260200160002081908060018154018082558091505060019003906000526020600020906003020160009091909190915060008201518160000160006101000a81548173ffffffffffffffffffffffffffffffffffffffff021916908373ffffffffffffffffffffffffffffffffffffffff16021790555060208201518160010190816105219190610d19565b5060408201518160020190816105379190610d19565b5050505050565b606060008054906101000a900473ffffffffffffffffffffffffffffffffffffffff1673ffffffffffffffffffffffffffffffffffffffff163373ffffffffffffffffffffffffffffffffffffffff16146105ce576040517f08c379a00000000000000000000000000000000000000000000000000000000081526004016105c590610ad8565b60405180910390fd5b600180548060200260200160405190810160405280929190818152602001828054801561065057602002820191906000526020600020905b8160009054906101000a900473ffffffffffffffffffffffffffffffffffffffff1673ffffffffffffffffffffffffffffffffffffffff1681526020019060010190808311610606575b5050505050905090565b6040518060600160405280600073ffffffffffffffffffffffffffffffffffffffff16815260200160608152602001606081525090565b6000604051905090565b600080fd5b600080fd5b600073ffffffffffffffffffffffffffffffffffffffff82169050919050565b60006106d0826106a5565b9050919050565b6106e0816106c5565b81146106eb57600080fd5b50565b6000813590506106fd816106d7565b92915050565b6000602082840312156107195761071861069b565b5b6000610727848285016106ee565b91505092915050565b60008115159050919050565b61074581610730565b82525050565b6000602082019050610760600083018461073c565b92915050565b600080fd5b6000601f19601f8301169050919050565b7f4e487b7100000000000000000000000000000000000000000000000000000000600052604160045260246000fd5b6107b48261076b565b810181811067ffffffffffffffff821117156107d3576107d261077c565b5b80604052505050565b60006107e6610691565b90506107f282826107ab565b919050565b600080fd5b600080fd5b600080fd5b600067ffffffffffffffff8211156108215761082061077c565b5b61082a8261076b565b9050602081019050919050565b82818337600083830152505050565b600061085961085484610806565b6107dc565b90508281526020810184848401111561087557610874610801565b5b610880848285610837565b509392505050565b600082601f83011261089d5761089c6107fc565b5b81356108ad848260208601610846565b91505092915050565b6000606082840312156108cc576108cb610766565b5b6108d660606107dc565b905060006108e6848285016106ee565b600083015250602082013567ffffffffffffffff81111561090a576109096107f7565b5b61091684828501610888565b602083015250604082013567ffffffffffffffff81111561093a576109396107f7565b5b61094684828501610888565b60408301525092915050565b6000602082840312156109685761096761069b565b5b600082013567ffffffffffffffff811115610986576109856106a0565b5b610992848285016108b6565b91505092915050565b600081519050919050565b600082825260208201905092915050565b6000819050602082019050919050565b6109d0816106c5565b82525050565b60006109e283836109c7565b60208301905092915050565b6000602082019050919050565b6000610a068261099b565b610a1081856109a6565b9350610a1b836109b7565b8060005b83811015610a4c578151610a3388826109d6565b9750610a3e836109ee565b925050600181019050610a1f565b5085935050505092915050565b60006020820190508181036000830152610a7381846109fb565b905092915050565b600082825260208201905092915050565b7f4e6f7420417574686f72697a6564000000000000000000000000000000000000600082015250565b6000610ac2600e83610a7b565b9150610acd82610a8c565b602082019050919050565b60006020820190508181036000830152610af181610ab5565b9050919050565b600081519050919050565b7f4e487b7100000000000000000000000000000000000000000000000000000000600052602260045260246000fd5b60006002820490506001821680610b4a57607f821691505b602082108103610b5d57610b5c610b03565b5b50919050565b60008190508160005260206000209050919050565b60006020601f8301049050919050565b600082821b905092915050565b600060088302610bc57fffffffffffffffffffffffffffffffffffffffffffffffffffffffffffffffff82610b88565b610bcf8683610b88565b95508019841693508086168417925050509392505050565b6000819050919050565b6000819050919050565b6000610c16610c11610c0c84610be7565b610bf1565b610be7565b9050919050565b6000819050919050565b610c3083610bfb565b610c44610c3c82610c1d565b848454610b95565b825550505050565b600090565b610c59610c4c565b610c64818484610c27565b505050565b5b81811015610c8857610c7d600082610c51565b600181019050610c6a565b5050565b601f821115610ccd57610c9e81610b63565b610ca784610b78565b81016020851015610cb6578190505b610cca610cc285610b78565b830182610c69565b50505b505050565b600082821c905092915050565b6000610cf060001984600802610cd2565b1980831691505092915050565b6000610d098383610cdf565b9150826002028217905092915050565b610d2282610af8565b67ffffffffffffffff811115610d3b57610d3a61077c565b5b610d458254610b32565b610d50828285610c8c565b600060209050601f831160018114610d835760008415610d71578287015190505b610d7b8582610cfd565b865550610de3565b601f198416610d9186610b63565b60005b82811015610db957848901518255600182019150602085019450602081019050610d94565b86831015610dd65784890151610dd2601f891682610cdf565b8355505b6001600288020188555050505b50505050505056fea2646970667358221220f9904a60547961c7f2bc0b323067fb2e079c62e7e51bc90d003337e6581f5e0264736f6c63430008110033","opcodes":"PUSH1 0x80 PUSH1 0x40 MSTORE CALLVALUE DUP1 ISZERO PUSH2 0x10 JUMPI PUSH1 0x0 DUP1 REVERT JUMPDEST POP CALLER PUSH1 0x0 DUP1 PUSH2 0x100 EXP DUP2 SLOAD DUP2 PUSH20 0xFFFFFFFFFFFFFFFFFFFFFFFFFFFFFFFFFFFFFFFF MUL NOT AND SWAP1 DUP4 PUSH20 0xFFFFFFFFFFFFFFFFFFFFFFFFFFFFFFFFFFFFFFFF AND MUL OR SWAP1 SSTORE POP PUSH2 0xE21 DUP1 PUSH2 0x60 PUSH1 0x0 CODECOPY PUSH1 0x0 RETURN INVALID PUSH1 0x80 PUSH1 0x40 MSTORE CALLVALUE DUP1 ISZERO PUSH2 0x10 JUMPI PUSH1 0x0 DUP1 REVERT JUMPDEST POP PUSH1 0x4 CALLDATASIZE LT PUSH2 0x4C JUMPI PUSH1 0x0 CALLDATALOAD PUSH1 0xE0 SHR DUP1 PUSH4 0x4780468F EQ PUSH2 0x51 JUMPI DUP1 PUSH4 0x63A9C3D7 EQ PUSH2 0x6D JUMPI DUP1 PUSH4 0xE8DEA6AE EQ PUSH2 0x9D JUMPI DUP1 PUSH4 0xF0D95090 EQ PUSH2 0xB9 JUMPI JUMPDEST PUSH1 0x0 DUP1 REVERT JUMPDEST PUSH2 0x6B PUSH1 0x4 DUP1 CALLDATASIZE SUB DUP2 ADD SWAP1 PUSH2 0x66 SWAP2 SWAP1 PUSH2 0x703 JUMP JUMPDEST PUSH2 0xD7 JUMP JUMPDEST STOP JUMPDEST PUSH2 0x87 PUSH1 0x4 DUP1 CALLDATASIZE SUB DUP2 ADD SWAP1 PUSH2 0x82 SWAP2 SWAP1 PUSH2 0x703 JUMP JUMPDEST PUSH2 0x27A JUMP JUMPDEST PUSH1 0x40 MLOAD PUSH2 0x94 SWAP2 SWAP1 PUSH2 0x74B JUMP JUMPDEST PUSH1 0x40 MLOAD DUP1 SWAP2 SUB SWAP1 RETURN JUMPDEST PUSH2 0xB7 PUSH1 0x4 DUP1 CALLDATASIZE SUB DUP2 ADD SWAP1 PUSH2 0xB2 SWAP2 SWAP1 PUSH2 0x952 JUMP JUMPDEST PUSH2 0x370 JUMP JUMPDEST STOP JUMPDEST PUSH2 0xC1 PUSH2 0x53E JUMP JUMPDEST PUSH1 0x40 MLOAD PUSH2 0xCE SWAP2 SWAP1 PUSH2 0xA59 JUMP JUMPDEST PUSH1 0x40 MLOAD DUP1 SWAP2 SUB SWAP1 RETURN JUMPDEST PUSH1 0x0 DUP1 SLOAD SWAP1 PUSH2 0x100 EXP SWAP1 DIV PUSH20 0xFFFFFFFFFFFFFFFFFFFFFFFFFFFFFFFFFFFFFFFF AND PUSH20 0xFFFFFFFFFFFFFFFFFFFFFFFFFFFFFFFFFFFFFFFF AND CALLER PUSH20 0xFFFFFFFFFFFFFFFFFFFFFFFFFFFFFFFFFFFFFFFF AND EQ PUSH2 0x165 JUMPI PUSH1 0x40 MLOAD PUSH32 0x8C379A000000000000000000000000000000000000000000000000000000000 DUP2 MSTORE PUSH1 0x4 ADD PUSH2 0x15C SWAP1 PUSH2 0xAD8 JUMP JUMPDEST PUSH1 0x40 MLOAD DUP1 SWAP2 SUB SWAP1 REVERT JUMPDEST PUSH1 0x2 PUSH1 0x0 DUP3 PUSH20 0xFFFFFFFFFFFFFFFFFFFFFFFFFFFFFFFFFFFFFFFF AND PUSH20 0xFFFFFFFFFFFFFFFFFFFFFFFFFFFFFFFFFFFFFFFF AND DUP2 MSTORE PUSH1 0x20 ADD SWAP1 DUP2 MSTORE PUSH1 0x20 ADD PUSH1 0x0 KECCAK256 PUSH1 0x0 SWAP1 SLOAD SWAP1 PUSH2 0x100 EXP SWAP1 DIV PUSH1 0xFF AND ISZERO PUSH2 0x1BC JUMPI PUSH1 0x0 DUP1 REVERT JUMPDEST PUSH1 0x1 PUSH1 0x2 PUSH1 0x0 DUP4 PUSH20 0xFFFFFFFFFFFFFFFFFFFFFFFFFFFFFFFFFFFFFFFF AND PUSH20 0xFFFFFFFFFFFFFFFFFFFFFFFFFFFFFFFFFFFFFFFF AND DUP2 MSTORE PUSH1 0x20 ADD SWAP1 DUP2 MSTORE PUSH1 0x20 ADD PUSH1 0x0 KECCAK256 PUSH1 0x0 PUSH2 0x100 EXP DUP2 SLOAD DUP2 PUSH1 0xFF MUL NOT AND SWAP1 DUP4 ISZERO ISZERO MUL OR SWAP1 SSTORE POP PUSH1 0x1 DUP2 SWAP1 DUP1 PUSH1 0x1 DUP2 SLOAD ADD DUP1 DUP3 SSTORE DUP1 SWAP2 POP POP PUSH1 0x1 SWAP1 SUB SWAP1 PUSH1 0x0 MSTORE PUSH1 0x20 PUSH1 0x0 KECCAK256 ADD PUSH1 0x0 SWAP1 SWAP2 SWAP1 SWAP2 SWAP1 SWAP2 PUSH2 0x100 EXP DUP2 SLOAD DUP2 PUSH20 0xFFFFFFFFFFFFFFFFFFFFFFFFFFFFFFFFFFFFFFFF MUL NOT AND SWAP1 DUP4 PUSH20 0xFFFFFFFFFFFFFFFFFFFFFFFFFFFFFFFFFFFFFFFF AND MUL OR SWAP1 SSTORE POP POP JUMP JUMPDEST PUSH1 0x0 DUP1 PUSH1 0x0 SWAP1 SLOAD SWAP1 PUSH2 0x100 EXP SWAP1 DIV PUSH20 0xFFFFFFFFFFFFFFFFFFFFFFFFFFFFFFFFFFFFFFFF AND PUSH20 0xFFFFFFFFFFFFFFFFFFFFFFFFFFFFFFFFFFFFFFFF AND CALLER PUSH20 0xFFFFFFFFFFFFFFFFFFFFFFFFFFFFFFFFFFFFFFFF AND EQ PUSH2 0x30B JUMPI PUSH1 0x40 MLOAD PUSH32 0x8C379A000000000000000000000000000000000000000000000000000000000 DUP2 MSTORE PUSH1 0x4 ADD PUSH2 0x302 SWAP1 PUSH2 0xAD8 JUMP JUMPDEST PUSH1 0x40 MLOAD DUP1 SWAP2 SUB SWAP1 REVERT JUMPDEST PUSH1 0x2 PUSH1 0x0 DUP4 PUSH20 0xFFFFFFFFFFFFFFFFFFFFFFFFFFFFFFFFFFFFFFFF AND PUSH20 0xFFFFFFFFFFFFFFFFFFFFFFFFFFFFFFFFFFFFFFFF AND DUP2 MSTORE PUSH1 0x20 ADD SWAP1 DUP2 MSTORE PUSH1 0x20 ADD PUSH1 0x0 KECCAK256 PUSH1 0x0 SWAP1 SLOAD SWAP1 PUSH2 0x100 EXP SWAP1 DIV PUSH1 0xFF AND ISZERO PUSH2 0x366 JUMPI PUSH1 0x1 SWAP1 POP PUSH2 0x36B JUMP JUMPDEST PUSH1 0x0 SWAP1 POP JUMPDEST SWAP2 SWAP1 POP JUMP JUMPDEST PUSH1 0x0 DUP1 SLOAD SWAP1 PUSH2 0x100 EXP SWAP1 DIV PUSH20 0xFFFFFFFFFFFFFFFFFFFFFFFFFFFFFFFFFFFFFFFF AND PUSH20 0xFFFFFFFFFFFFFFFFFFFFFFFFFFFFFFFFFFFFFFFF AND CALLER PUSH20 0xFFFFFFFFFFFFFFFFFFFFFFFFFFFFFFFFFFFFFFFF AND EQ PUSH2 0x3FE JUMPI PUSH1 0x40 MLOAD PUSH32 0x8C379A000000000000000000000000000000000000000000000000000000000 DUP2 MSTORE PUSH1 0x4 ADD PUSH2 0x3F5 SWAP1 PUSH2 0xAD8 JUMP JUMPDEST PUSH1 0x40 MLOAD DUP1 SWAP2 SUB SWAP1 REVERT JUMPDEST PUSH2 0x406 PUSH2 0x65A JUMP JUMPDEST DUP2 PUSH1 0x0 ADD MLOAD DUP2 PUSH1 0x0 ADD SWAP1 PUSH20 0xFFFFFFFFFFFFFFFFFFFFFFFFFFFFFFFFFFFFFFFF AND SWAP1 DUP2 PUSH20 0xFFFFFFFFFFFFFFFFFFFFFFFFFFFFFFFFFFFFFFFF AND DUP2 MSTORE POP POP DUP2 PUSH1 0x20 ADD MLOAD DUP2 PUSH1 0x20 ADD DUP2 SWAP1 MSTORE POP DUP2 PUSH1 0x40 ADD MLOAD DUP2 PUSH1 0x40 ADD DUP2 SWAP1 MSTORE POP PUSH1 0x3 PUSH1 0x0 CALLER PUSH20 0xFFFFFFFFFFFFFFFFFFFFFFFFFFFFFFFFFFFFFFFF AND PUSH20 0xFFFFFFFFFFFFFFFFFFFFFFFFFFFFFFFFFFFFFFFF AND DUP2 MSTORE PUSH1 0x20 ADD SWAP1 DUP2 MSTORE PUSH1 0x20 ADD PUSH1 0x0 KECCAK256 DUP2 SWAP1 DUP1 PUSH1 0x1 DUP2 SLOAD ADD DUP1 DUP3 SSTORE DUP1 SWAP2 POP POP PUSH1 0x1 SWAP1 SUB SWAP1 PUSH1 0x0 MSTORE PUSH1 0x20 PUSH1 0x0 KECCAK256 SWAP1 PUSH1 0x3 MUL ADD PUSH1 0x0 SWAP1 SWAP2 SWAP1 SWAP2 SWAP1 SWAP2 POP PUSH1 0x0 DUP3 ADD MLOAD DUP2 PUSH1 0x0 ADD PUSH1 0x0 PUSH2 0x100 EXP DUP2 SLOAD DUP2 PUSH20 0xFFFFFFFFFFFFFFFFFFFFFFFFFFFFFFFFFFFFFFFF MUL NOT AND SWAP1 DUP4 PUSH20 0xFFFFFFFFFFFFFFFFFFFFFFFFFFFFFFFFFFFFFFFF AND MUL OR SWAP1 SSTORE POP PUSH1 0x20 DUP3 ADD MLOAD DUP2 PUSH1 0x1 ADD SWAP1 DUP2 PUSH2 0x521 SWAP2 SWAP1 PUSH2 0xD19 JUMP JUMPDEST POP PUSH1 0x40 DUP3 ADD MLOAD DUP2 PUSH1 0x2 ADD SWAP1 DUP2 PUSH2 0x537 SWAP2 SWAP1 PUSH2 0xD19 JUMP JUMPDEST POP POP POP POP POP JUMP JUMPDEST PUSH1 0x60 PUSH1 0x0 DUP1 SLOAD SWAP1 PUSH2 0x100 EXP SWAP1 DIV PUSH20 0xFFFFFFFFFFFFFFFFFFFFFFFFFFFFFFFFFFFFFFFF AND PUSH20 0xFFFFFFFFFFFFFFFFFFFFFFFFFFFFFFFFFFFFFFFF AND CALLER PUSH20 0xFFFFFFFFFFFFFFFFFFFFFFFFFFFFFFFFFFFFFFFF AND EQ PUSH2 0x5CE JUMPI PUSH1 0x40 MLOAD PUSH32 0x8C379A000000000000000000000000000000000000000000000000000000000 DUP2 MSTORE PUSH1 0x4 ADD PUSH2 0x5C5 SWAP1 PUSH2 0xAD8 JUMP JUMPDEST PUSH1 0x40 MLOAD DUP1 SWAP2 SUB SWAP1 REVERT JUMPDEST PUSH1 0x1 DUP1 SLOAD DUP1 PUSH1 0x20 MUL PUSH1 0x20 ADD PUSH1 0x40 MLOAD SWAP1 DUP2 ADD PUSH1 0x40 MSTORE DUP1 SWAP3 SWAP2 SWAP1 DUP2 DUP2 MSTORE PUSH1 0x20 ADD DUP3 DUP1 SLOAD DUP1 ISZERO PUSH2 0x650 JUMPI PUSH1 0x20 MUL DUP3 ADD SWAP2 SWAP1 PUSH1 0x0 MSTORE PUSH1 0x20 PUSH1 0x0 KECCAK256 SWAP1 JUMPDEST DUP2 PUSH1 0x0 SWAP1 SLOAD SWAP1 PUSH2 0x100 EXP SWAP1 DIV PUSH20 0xFFFFFFFFFFFFFFFFFFFFFFFFFFFFFFFFFFFFFFFF AND PUSH20 0xFFFFFFFFFFFFFFFFFFFFFFFFFFFFFFFFFFFFFFFF AND DUP2 MSTORE PUSH1 0x20 ADD SWAP1 PUSH1 0x1 ADD SWAP1 DUP1 DUP4 GT PUSH2 0x606 JUMPI JUMPDEST POP POP POP POP POP SWAP1 POP SWAP1 JUMP JUMPDEST PUSH1 0x40 MLOAD DUP1 PUSH1 0x60 ADD PUSH1 0x40 MSTORE DUP1 PUSH1 0x0 PUSH20 0xFFFFFFFFFFFFFFFFFFFFFFFFFFFFFFFFFFFFFFFF AND DUP2 MSTORE PUSH1 0x20 ADD PUSH1 0x60 DUP2 MSTORE PUSH1 0x20 ADD PUSH1 0x60 DUP2 MSTORE POP SWAP1 JUMP JUMPDEST PUSH1 0x0 PUSH1 0x40 MLOAD SWAP1 POP SWAP1 JUMP JUMPDEST PUSH1 0x0 DUP1 REVERT JUMPDEST PUSH1 0x0 DUP1 REVERT JUMPDEST PUSH1 0x0 PUSH20 0xFFFFFFFFFFFFFFFFFFFFFFFFFFFFFFFFFFFFFFFF DUP3 AND SWAP1 POP SWAP2 SWAP1 POP JUMP JUMPDEST PUSH1 0x0 PUSH2 0x6D0 DUP3 PUSH2 0x6A5 JUMP JUMPDEST SWAP1 POP SWAP2 SWAP1 POP JUMP JUMPDEST PUSH2 0x6E0 DUP2 PUSH2 0x6C5 JUMP JUMPDEST DUP2 EQ PUSH2 0x6EB JUMPI PUSH1 0x0 DUP1 REVERT JUMPDEST POP JUMP JUMPDEST PUSH1 0x0 DUP2 CALLDATALOAD SWAP1 POP PUSH2 0x6FD DUP2 PUSH2 0x6D7 JUMP JUMPDEST SWAP3 SWAP2 POP POP JUMP JUMPDEST PUSH1 0x0 PUSH1 0x20 DUP3 DUP5 SUB SLT ISZERO PUSH2 0x719 JUMPI PUSH2 0x718 PUSH2 0x69B JUMP JUMPDEST JUMPDEST PUSH1 0x0 PUSH2 0x727 DUP5 DUP3 DUP6 ADD PUSH2 0x6EE JUMP JUMPDEST SWAP2 POP POP SWAP3 SWAP2 POP POP JUMP JUMPDEST PUSH1 0x0 DUP2 ISZERO ISZERO SWAP1 POP SWAP2 SWAP1 POP JUMP JUMPDEST PUSH2 0x745 DUP2 PUSH2 0x730 JUMP JUMPDEST DUP3 MSTORE POP POP JUMP JUMPDEST PUSH1 0x0 PUSH1 0x20 DUP3 ADD SWAP1 POP PUSH2 0x760 PUSH1 0x0 DUP4 ADD DUP5 PUSH2 0x73C JUMP JUMPDEST SWAP3 SWAP2 POP POP JUMP JUMPDEST PUSH1 0x0 DUP1 REVERT JUMPDEST PUSH1 0x0 PUSH1 0x1F NOT PUSH1 0x1F DUP4 ADD AND SWAP1 POP SWAP2 SWAP1 POP JUMP JUMPDEST PUSH32 0x4E487B7100000000000000000000000000000000000000000000000000000000 PUSH1 0x0 MSTORE PUSH1 0x41 PUSH1 0x4 MSTORE PUSH1 0x24 PUSH1 0x0 REVERT JUMPDEST PUSH2 0x7B4 DUP3 PUSH2 0x76B JUMP JUMPDEST DUP2 ADD DUP2 DUP2 LT PUSH8 0xFFFFFFFFFFFFFFFF DUP3 GT OR ISZERO PUSH2 0x7D3 JUMPI PUSH2 0x7D2 PUSH2 0x77C JUMP JUMPDEST JUMPDEST DUP1 PUSH1 0x40 MSTORE POP POP POP JUMP JUMPDEST PUSH1 0x0 PUSH2 0x7E6 PUSH2 0x691 JUMP JUMPDEST SWAP1 POP PUSH2 0x7F2 DUP3 DUP3 PUSH2 0x7AB JUMP JUMPDEST SWAP2 SWAP1 POP JUMP JUMPDEST PUSH1 0x0 DUP1 REVERT JUMPDEST PUSH1 0x0 DUP1 REVERT JUMPDEST PUSH1 0x0 DUP1 REVERT JUMPDEST PUSH1 0x0 PUSH8 0xFFFFFFFFFFFFFFFF DUP3 GT ISZERO PUSH2 0x821 JUMPI PUSH2 0x820 PUSH2 0x77C JUMP JUMPDEST JUMPDEST PUSH2 0x82A DUP3 PUSH2 0x76B JUMP JUMPDEST SWAP1 POP PUSH1 0x20 DUP2 ADD SWAP1 POP SWAP2 SWAP1 POP JUMP JUMPDEST DUP3 DUP2 DUP4 CALLDATACOPY PUSH1 0x0 DUP4 DUP4 ADD MSTORE POP POP POP JUMP JUMPDEST PUSH1 0x0 PUSH2 0x859 PUSH2 0x854 DUP5 PUSH2 0x806 JUMP JUMPDEST PUSH2 0x7DC JUMP JUMPDEST SWAP1 POP DUP3 DUP2 MSTORE PUSH1 0x20 DUP2 ADD DUP5 DUP5 DUP5 ADD GT ISZERO PUSH2 0x875 JUMPI PUSH2 0x874 PUSH2 0x801 JUMP JUMPDEST JUMPDEST PUSH2 0x880 DUP5 DUP3 DUP6 PUSH2 0x837 JUMP JUMPDEST POP SWAP4 SWAP3 POP POP POP JUMP JUMPDEST PUSH1 0x0 DUP3 PUSH1 0x1F DUP4 ADD SLT PUSH2 0x89D JUMPI PUSH2 0x89C PUSH2 0x7FC JUMP JUMPDEST JUMPDEST DUP2 CALLDATALOAD PUSH2 0x8AD DUP5 DUP3 PUSH1 0x20 DUP7 ADD PUSH2 0x846 JUMP JUMPDEST SWAP2 POP POP SWAP3 SWAP2 POP POP JUMP JUMPDEST PUSH1 0x0 PUSH1 0x60 DUP3 DUP5 SUB SLT ISZERO PUSH2 0x8CC JUMPI PUSH2 0x8CB PUSH2 0x766 JUMP JUMPDEST JUMPDEST PUSH2 0x8D6 PUSH1 0x60 PUSH2 0x7DC JUMP JUMPDEST SWAP1 POP PUSH1 0x0 PUSH2 0x8E6 DUP5 DUP3 DUP6 ADD PUSH2 0x6EE JUMP JUMPDEST PUSH1 0x0 DUP4 ADD MSTORE POP PUSH1 0x20 DUP3 ADD CALLDATALOAD PUSH8 0xFFFFFFFFFFFFFFFF DUP2 GT ISZERO PUSH2 0x90A JUMPI PUSH2 0x909 PUSH2 0x7F7 JUMP JUMPDEST JUMPDEST PUSH2 0x916 DUP5 DUP3 DUP6 ADD PUSH2 0x888 JUMP JUMPDEST PUSH1 0x20 DUP4 ADD MSTORE POP PUSH1 0x40 DUP3 ADD CALLDATALOAD PUSH8 0xFFFFFFFFFFFFFFFF DUP2 GT ISZERO PUSH2 0x93A JUMPI PUSH2 0x939 PUSH2 0x7F7 JUMP JUMPDEST JUMPDEST PUSH2 0x946 DUP5 DUP3 DUP6 ADD PUSH2 0x888 JUMP JUMPDEST PUSH1 0x40 DUP4 ADD MSTORE POP SWAP3 SWAP2 POP POP JUMP JUMPDEST PUSH1 0x0 PUSH1 0x20 DUP3 DUP5 SUB SLT ISZERO PUSH2 0x968 JUMPI PUSH2 0x967 PUSH2 0x69B JUMP JUMPDEST JUMPDEST PUSH1 0x0 DUP3 ADD CALLDATALOAD PUSH8 0xFFFFFFFFFFFFFFFF DUP2 GT ISZERO PUSH2 0x986 JUMPI PUSH2 0x985 PUSH2 0x6A0 JUMP JUMPDEST JUMPDEST PUSH2 0x992 DUP5 DUP3 DUP6 ADD PUSH2 0x8B6 JUMP JUMPDEST SWAP2 POP POP SWAP3 SWAP2 POP POP JUMP JUMPDEST PUSH1 0x0 DUP2 MLOAD SWAP1 POP SWAP2 SWAP1 POP JUMP JUMPDEST PUSH1 0x0 DUP3 DUP3 MSTORE PUSH1 0x20 DUP3 ADD SWAP1 POP SWAP3 SWAP2 POP POP JUMP JUMPDEST PUSH1 0x0 DUP2 SWAP1 POP PUSH1 0x20 DUP3 ADD SWAP1 POP SWAP2 SWAP1 POP JUMP JUMPDEST PUSH2 0x9D0 DUP2 PUSH2 0x6C5 JUMP JUMPDEST DUP3 MSTORE POP POP JUMP JUMPDEST PUSH1 0x0 PUSH2 0x9E2 DUP4 DUP4 PUSH2 0x9C7 JUMP JUMPDEST PUSH1 0x20 DUP4 ADD SWAP1 POP SWAP3 SWAP2 POP POP JUMP JUMPDEST PUSH1 0x0 PUSH1 0x20 DUP3 ADD SWAP1 POP SWAP2 SWAP1 POP JUMP JUMPDEST PUSH1 0x0 PUSH2 0xA06 DUP3 PUSH2 0x99B JUMP JUMPDEST PUSH2 0xA10 DUP2 DUP6 PUSH2 0x9A6 JUMP JUMPDEST SWAP4 POP PUSH2 0xA1B DUP4 PUSH2 0x9B7 JUMP JUMPDEST DUP1 PUSH1 0x0 JUMPDEST DUP4 DUP2 LT ISZERO PUSH2 0xA4C JUMPI DUP2 MLOAD PUSH2 0xA33 DUP9 DUP3 PUSH2 0x9D6 JUMP JUMPDEST SWAP8 POP PUSH2 0xA3E DUP4 PUSH2 0x9EE JUMP JUMPDEST SWAP3 POP POP PUSH1 0x1 DUP2 ADD SWAP1 POP PUSH2 0xA1F JUMP JUMPDEST POP DUP6 SWAP4 POP POP POP POP SWAP3 SWAP2 POP POP JUMP JUMPDEST PUSH1 0x0 PUSH1 0x20 DUP3 ADD SWAP1 POP DUP2 DUP2 SUB PUSH1 0x0 DUP4 ADD MSTORE PUSH2 0xA73 DUP2 DUP5 PUSH2 0x9FB JUMP JUMPDEST SWAP1 POP SWAP3 SWAP2 POP POP JUMP JUMPDEST PUSH1 0x0 DUP3 DUP3 MSTORE PUSH1 0x20 DUP3 ADD SWAP1 POP SWAP3 SWAP2 POP POP JUMP JUMPDEST PUSH32 0x4E6F7420417574686F72697A6564000000000000000000000000000000000000 PUSH1 0x0 DUP3 ADD MSTORE POP JUMP JUMPDEST PUSH1 0x0 PUSH2 0xAC2 PUSH1 0xE DUP4 PUSH2 0xA7B JUMP JUMPDEST SWAP2 POP PUSH2 0xACD DUP3 PUSH2 0xA8C JUMP JUMPDEST PUSH1 0x20 DUP3 ADD SWAP1 POP SWAP2 SWAP1 POP JUMP JUMPDEST PUSH1 0x0 PUSH1 0x20 DUP3 ADD SWAP1 POP DUP2 DUP2 SUB PUSH1 0x0 DUP4 ADD MSTORE PUSH2 0xAF1 DUP2 PUSH2 0xAB5 JUMP JUMPDEST SWAP1 POP SWAP2 SWAP1 POP JUMP JUMPDEST PUSH1 0x0 DUP2 MLOAD SWAP1 POP SWAP2 SWAP1 POP JUMP JUMPDEST PUSH32 0x4E487B7100000000000000000000000000000000000000000000000000000000 PUSH1 0x0 MSTORE PUSH1 0x22 PUSH1 0x4 MSTORE PUSH1 0x24 PUSH1 0x0 REVERT JUMPDEST PUSH1 0x0 PUSH1 0x2 DUP3 DIV SWAP1 POP PUSH1 0x1 DUP3 AND DUP1 PUSH2 0xB4A JUMPI PUSH1 0x7F DUP3 AND SWAP2 POP JUMPDEST PUSH1 0x20 DUP3 LT DUP2 SUB PUSH2 0xB5D JUMPI PUSH2 0xB5C PUSH2 0xB03 JUMP JUMPDEST JUMPDEST POP SWAP2 SWAP1 POP JUMP JUMPDEST PUSH1 0x0 DUP2 SWAP1 POP DUP2 PUSH1 0x0 MSTORE PUSH1 0x20 PUSH1 0x0 KECCAK256 SWAP1 POP SWAP2 SWAP1 POP JUMP JUMPDEST PUSH1 0x0 PUSH1 0x20 PUSH1 0x1F DUP4 ADD DIV SWAP1 POP SWAP2 SWAP1 POP JUMP JUMPDEST PUSH1 0x0 DUP3 DUP3 SHL SWAP1 POP SWAP3 SWAP2 POP POP JUMP JUMPDEST PUSH1 0x0 PUSH1 0x8 DUP4 MUL PUSH2 0xBC5 PUSH32 0xFFFFFFFFFFFFFFFFFFFFFFFFFFFFFFFFFFFFFFFFFFFFFFFFFFFFFFFFFFFFFFFF DUP3 PUSH2 0xB88 JUMP JUMPDEST PUSH2 0xBCF DUP7 DUP4 PUSH2 0xB88 JUMP JUMPDEST SWAP6 POP DUP1 NOT DUP5 AND SWAP4 POP DUP1 DUP7 AND DUP5 OR SWAP3 POP POP POP SWAP4 SWAP3 POP POP POP JUMP JUMPDEST PUSH1 0x0 DUP2 SWAP1 POP SWAP2 SWAP1 POP JUMP JUMPDEST PUSH1 0x0 DUP2 SWAP1 POP SWAP2 SWAP1 POP JUMP JUMPDEST PUSH1 0x0 PUSH2 0xC16 PUSH2 0xC11 PUSH2 0xC0C DUP5 PUSH2 0xBE7 JUMP JUMPDEST PUSH2 0xBF1 JUMP JUMPDEST PUSH2 0xBE7 JUMP JUMPDEST SWAP1 POP SWAP2 SWAP1 POP JUMP JUMPDEST PUSH1 0x0 DUP2 SWAP1 POP SWAP2 SWAP1 POP JUMP JUMPDEST PUSH2 0xC30 DUP4 PUSH2 0xBFB JUMP JUMPDEST PUSH2 0xC44 PUSH2 0xC3C DUP3 PUSH2 0xC1D JUMP JUMPDEST DUP5 DUP5 SLOAD PUSH2 0xB95 JUMP JUMPDEST DUP3 SSTORE POP POP POP POP JUMP JUMPDEST PUSH1 0x0 SWAP1 JUMP JUMPDEST PUSH2 0xC59 PUSH2 0xC4C JUMP JUMPDEST PUSH2 0xC64 DUP2 DUP5 DUP5 PUSH2 0xC27 JUMP JUMPDEST POP POP POP JUMP JUMPDEST JUMPDEST DUP2 DUP2 LT ISZERO PUSH2 0xC88 JUMPI PUSH2 0xC7D PUSH1 0x0 DUP3 PUSH2 0xC51 JUMP JUMPDEST PUSH1 0x1 DUP2 ADD SWAP1 POP PUSH2 0xC6A JUMP JUMPDEST POP POP JUMP JUMPDEST PUSH1 0x1F DUP3 GT ISZERO PUSH2 0xCCD JUMPI PUSH2 0xC9E DUP2 PUSH2 0xB63 JUMP JUMPDEST PUSH2 0xCA7 DUP5 PUSH2 0xB78 JUMP JUMPDEST DUP2 ADD PUSH1 0x20 DUP6 LT ISZERO PUSH2 0xCB6 JUMPI DUP2 SWAP1 POP JUMPDEST PUSH2 0xCCA PUSH2 0xCC2 DUP6 PUSH2 0xB78 JUMP JUMPDEST DUP4 ADD DUP3 PUSH2 0xC69 JUMP JUMPDEST POP POP JUMPDEST POP POP POP JUMP JUMPDEST PUSH1 0x0 DUP3 DUP3 SHR SWAP1 POP SWAP3 SWAP2 POP POP JUMP JUMPDEST PUSH1 0x0 PUSH2 0xCF0 PUSH1 0x0 NOT DUP5 PUSH1 0x8 MUL PUSH2 0xCD2 JUMP JUMPDEST NOT DUP1 DUP4 AND SWAP2 POP POP SWAP3 SWAP2 POP POP JUMP JUMPDEST PUSH1 0x0 PUSH2 0xD09 DUP4 DUP4 PUSH2 0xCDF JUMP JUMPDEST SWAP2 POP DUP3 PUSH1 0x2 MUL DUP3 OR SWAP1 POP SWAP3 SWAP2 POP POP JUMP JUMPDEST PUSH2 0xD22 DUP3 PUSH2 0xAF8 JUMP JUMPDEST PUSH8 0xFFFFFFFFFFFFFFFF DUP2 GT ISZERO PUSH2 0xD3B JUMPI PUSH2 0xD3A PUSH2 0x77C JUMP JUMPDEST JUMPDEST PUSH2 0xD45 DUP3 SLOAD PUSH2 0xB32 JUMP JUMPDEST PUSH2 0xD50 DUP3 DUP3 DUP6 PUSH2 0xC8C JUMP JUMPDEST PUSH1 0x0 PUSH1 0x20 SWAP1 POP PUSH1 0x1F DUP4 GT PUSH1 0x1 DUP2 EQ PUSH2 0xD83 JUMPI PUSH1 0x0 DUP5 ISZERO PUSH2 0xD71 JUMPI DUP3 DUP8 ADD MLOAD SWAP1 POP JUMPDEST PUSH2 0xD7B DUP6 DUP3 PUSH2 0xCFD JUMP JUMPDEST DUP7 SSTORE POP PUSH2 0xDE3 JUMP JUMPDEST PUSH1 0x1F NOT DUP5 AND PUSH2 0xD91 DUP7 PUSH2 0xB63 JUMP JUMPDEST PUSH1 0x0 JUMPDEST DUP3 DUP2 LT ISZERO PUSH2 0xDB9 JUMPI DUP5 DUP10 ADD MLOAD DUP3 SSTORE PUSH1 0x1 DUP3 ADD SWAP2 POP PUSH1 0x20 DUP6 ADD SWAP5 POP PUSH1 0x20 DUP2 ADD SWAP1 POP PUSH2 0xD94 JUMP JUMPDEST DUP7 DUP4 LT ISZERO PUSH2 0xDD6 JUMPI DUP5 DUP10 ADD MLOAD PUSH2 0xDD2 PUSH1 0x1F DUP10 AND DUP3 PUSH2 0xCDF JUMP JUMPDEST DUP4 SSTORE POP JUMPDEST PUSH1 0x1 PUSH1 0x2 DUP9 MUL ADD DUP9 SSTORE POP POP POP JUMPDEST POP POP POP POP POP POP JUMP INVALID LOG2 PUSH5 0x6970667358 0x22 SLT KECCAK256 0xF9 SWAP1 0x4A PUSH1 0x54 PUSH26 0x61C7F2BC0B323067FB2E079C62E7E51BC90D003337E6581F5E02 PUSH5 0x736F6C6343 STOP ADDMOD GT STOP CALLER "},"gasEstimates":{"creation":{"codeDepositCost":"723400","executionCost":"25026","totalCost":"748426"},"external":{"addDoctor(address)":"77782","getAllDoctors()":"infinite","logThis((address,string,string))":"infinite","verify(address)":"5084"}},"methodIdentifiers":{"addDoctor(address)":"4780468f","getAllDoctors()":"f0d95090","logThis((address,string,string))":"e8dea6ae","verify(address)":"63a9c3d7"}},"storageLayout":{"storage":[{"astId":93,"contract":"AccessControl.sol:DoctorVerificator","label":"admin","offset":0,"slot":"0","type":"t_address"},{"astId":96,"contract":"AccessControl.sol:DoctorVerificator","label":"doctors","offset":0,"slot":"1","type":"t_array(t_address)dyn_storage"},{"astId":100,"contract":"AccessControl.sol:DoctorVerificator","label":"doctor","offset":0,"slot":"2","type":"t_mapping(t_address,t_bool)"},{"astId":106,"contract":"AccessControl.sol:DoctorVerificator","label":"logs","offset":0,"slot":"3","type":"t_mapping(t_address,t_array(t_struct(Logs)91_storage)dyn_storage)"}],"types":{"t_address":{"encoding":"inplace","label":"address","numberOfBytes":"20"},"t_array(t_address)dyn_storage":{"base":"t_address","encoding":"dynamic_array","label":"address[]","numberOfBytes":"32"},"t_array(t_struct(Logs)91_storage)dyn_storage":{"base":"t_struct(Logs)91_storage","encoding":"dynamic_array","label":"struct DoctorVerificator.Logs[]","numberOfBytes":"32"},"t_bool":{"encoding":"inplace","label":"bool","numberOfBytes":"1"},"t_mapping(t_address,t_array(t_struct(Logs)91_storage)dyn_storage)":{"encoding":"mapping","key":"t_address","label":"mapping(address => struct DoctorVerificator.Logs[])","numberOfBytes":"32","value":"t_array(t_struct(Logs)91_storage)dyn_storage"},"t_mapping(t_address,t_bool)":{"encoding":"mapping","key":"t_address","label":"mapping(address => bool)","numberOfBytes":"32","value":"t_bool"},"t_string_storage":{"encoding":"bytes","label":"string","numberOfBytes":"32"},"t_struct(Logs)91_storage":{"encoding":"inplace","label":"struct DoctorVerificator.Logs","members":[{"astId":86,"contract":"AccessControl.sol:DoctorVerificator","label":"add","offset":0,"slot":"0","type":"t_address"},{"astId":88,"contract":"AccessControl.sol:DoctorVerificator","label":"activity","offset":0,"slot":"1","type":"t_string_storage"},{"astId":90,"contract":"AccessControl.sol:DoctorVerificator","label":"dateAndTime","offset":0,"slot":"2","type":"t_string_storage"}],"numberOfBytes":"96"}}},"userdoc":{"kind":"user","methods":{},"version":1}}