{"abi":[{"inputs":[],"stateMutability":"nonpayable","type":"constructor"},{"inputs":[{"internalType":"address","name":"_address","type":"address"}],"name":"addPatient","outputs":[],"stateMutability":"nonpayable","type":"function"},{"inputs":[],"name":"getAllPatients","outputs":[{"internalType":"address[]","name":"_address","type":"address[]"}],"stateMutability":"view","type":"function"},{"inputs":[{"internalType":"address","name":"_address","type":"address"}],"name":"verify","outputs":[{"internalType":"bool","name":"_bool","type":"bool"}],"stateMutability":"view","type":"function"}],"devdoc":{"kind":"dev","methods":{},"version":1},"evm":{"assembly":"    /* \"AccessControl.sol\":66:894  contract PatientVerificator {... */\n  mstore(0x40, 0x80)\n    /* \"AccessControl.sol\":225:276  constructor() {... */\n  callvalue\n  dup1\n  iszero\n  tag_1\n  jumpi\n  0x00\n  dup1\n  revert\ntag_1:\n  pop\n    /* \"AccessControl.sol\":258:268  msg.sender */\n  caller\n    /* \"AccessControl.sol\":250:255  admin */\n  0x00\n  dup1\n    /* \"AccessControl.sol\":250:268  admin = msg.sender */\n  0x0100\n  exp\n  dup2\n  sload\n  dup2\n  0xffffffffffffffffffffffffffffffffffffffff\n  mul\n  not\n  and\n  swap1\n  dup4\n  0xffffffffffffffffffffffffffffffffffffffff\n  and\n  mul\n  or\n  swap1\n  sstore\n  pop\n    /* \"AccessControl.sol\":66:894  contract PatientVerificator {... */\n  dataSize(sub_0)\n  dup1\n  dataOffset(sub_0)\n  0x00\n  codecopy\n  0x00\n  return\nstop\n\nsub_0: assembly {\n        /* \"AccessControl.sol\":66:894  contract PatientVerificator {... */\n      mstore(0x40, 0x80)\n      callvalue\n      dup1\n      iszero\n      tag_1\n      jumpi\n      0x00\n      dup1\n      revert\n    tag_1:\n      pop\n      jumpi(tag_2, lt(calldatasize, 0x04))\n      shr(0xe0, calldataload(0x00))\n      dup1\n      0x18a231a9\n      eq\n      tag_3\n      jumpi\n      dup1\n      0x63a9c3d7\n      eq\n      tag_4\n      jumpi\n      dup1\n      0x6d263ceb\n      eq\n      tag_5\n      jumpi\n    tag_2:\n      0x00\n      dup1\n      revert\n        /* \"AccessControl.sol\":686:803  function getAllPatients() onlyAdmin public view returns(address[] memory _address) {... */\n    tag_3:\n      tag_6\n      tag_7\n      jump\t// in\n    tag_6:\n      mload(0x40)\n      tag_8\n      swap2\n      swap1\n      tag_9\n      jump\t// in\n    tag_8:\n      mload(0x40)\n      dup1\n      swap2\n      sub\n      swap1\n      return\n        /* \"AccessControl.sol\":479:678  function verify(address _address) onlyAdmin public view returns(bool _bool) {... */\n    tag_4:\n      tag_10\n      0x04\n      dup1\n      calldatasize\n      sub\n      dup2\n      add\n      swap1\n      tag_11\n      swap2\n      swap1\n      tag_12\n      jump\t// in\n    tag_11:\n      tag_13\n      jump\t// in\n    tag_10:\n      mload(0x40)\n      tag_14\n      swap2\n      swap1\n      tag_15\n      jump\t// in\n    tag_14:\n      mload(0x40)\n      dup1\n      swap2\n      sub\n      swap1\n      return\n        /* \"AccessControl.sol\":284:471  function addPatient(address _address) onlyAdmin public {... */\n    tag_5:\n      tag_16\n      0x04\n      dup1\n      calldatasize\n      sub\n      dup2\n      add\n      swap1\n      tag_17\n      swap2\n      swap1\n      tag_12\n      jump\t// in\n    tag_17:\n      tag_18\n      jump\t// in\n    tag_16:\n      stop\n        /* \"AccessControl.sol\":686:803  function getAllPatients() onlyAdmin public view returns(address[] memory _address) {... */\n    tag_7:\n        /* \"AccessControl.sol\":742:767  address[] memory _address */\n      0x60\n        /* \"AccessControl.sol\":865:870  admin */\n      0x00\n      dup1\n      sload\n      swap1\n      0x0100\n      exp\n      swap1\n      div\n      0xffffffffffffffffffffffffffffffffffffffff\n      and\n        /* \"AccessControl.sol\":851:870  msg.sender == admin */\n      0xffffffffffffffffffffffffffffffffffffffff\n      and\n        /* \"AccessControl.sol\":851:861  msg.sender */\n      caller\n        /* \"AccessControl.sol\":851:870  msg.sender == admin */\n      0xffffffffffffffffffffffffffffffffffffffff\n      and\n      eq\n        /* \"AccessControl.sol\":843:871  require(msg.sender == admin) */\n      tag_20\n      jumpi\n      0x00\n      dup1\n      revert\n    tag_20:\n        /* \"AccessControl.sol\":787:795  patients */\n      0x01\n        /* \"AccessControl.sol\":780:795  return patients */\n      dup1\n      sload\n      dup1\n      0x20\n      mul\n      0x20\n      add\n      mload(0x40)\n      swap1\n      dup2\n      add\n      0x40\n      mstore\n      dup1\n      swap3\n      swap2\n      swap1\n      dup2\n      dup2\n      mstore\n      0x20\n      add\n      dup3\n      dup1\n      sload\n      dup1\n      iszero\n      tag_22\n      jumpi\n      0x20\n      mul\n      dup3\n      add\n      swap2\n      swap1\n      0x00\n      mstore\n      keccak256(0x00, 0x20)\n      swap1\n    tag_23:\n      dup2\n      0x00\n      swap1\n      sload\n      swap1\n      0x0100\n      exp\n      swap1\n      div\n      0xffffffffffffffffffffffffffffffffffffffff\n      and\n      0xffffffffffffffffffffffffffffffffffffffff\n      and\n      dup2\n      mstore\n      0x20\n      add\n      swap1\n      0x01\n      add\n      swap1\n      dup1\n      dup4\n      gt\n      tag_23\n      jumpi\n    tag_22:\n      pop\n      pop\n      pop\n      pop\n      pop\n      swap1\n      pop\n        /* \"AccessControl.sol\":686:803  function getAllPatients() onlyAdmin public view returns(address[] memory _address) {... */\n      swap1\n      jump\t// out\n        /* \"AccessControl.sol\":479:678  function verify(address _address) onlyAdmin public view returns(bool _bool) {... */\n    tag_13:\n        /* \"AccessControl.sol\":543:553  bool _bool */\n      0x00\n        /* \"AccessControl.sol\":865:870  admin */\n      dup1\n      0x00\n      swap1\n      sload\n      swap1\n      0x0100\n      exp\n      swap1\n      div\n      0xffffffffffffffffffffffffffffffffffffffff\n      and\n        /* \"AccessControl.sol\":851:870  msg.sender == admin */\n      0xffffffffffffffffffffffffffffffffffffffff\n      and\n        /* \"AccessControl.sol\":851:861  msg.sender */\n      caller\n        /* \"AccessControl.sol\":851:870  msg.sender == admin */\n      0xffffffffffffffffffffffffffffffffffffffff\n      and\n      eq\n        /* \"AccessControl.sol\":843:871  require(msg.sender == admin) */\n      tag_25\n      jumpi\n      0x00\n      dup1\n      revert\n    tag_25:\n        /* \"AccessControl.sol\":569:576  patient */\n      0x02\n        /* \"AccessControl.sol\":569:586  patient[_address] */\n      0x00\n        /* \"AccessControl.sol\":577:585  _address */\n      dup4\n        /* \"AccessControl.sol\":569:586  patient[_address] */\n      0xffffffffffffffffffffffffffffffffffffffff\n      and\n      0xffffffffffffffffffffffffffffffffffffffff\n      and\n      dup2\n      mstore\n      0x20\n      add\n      swap1\n      dup2\n      mstore\n      0x20\n      add\n      0x00\n      keccak256\n      0x00\n      swap1\n      sload\n      swap1\n      0x0100\n      exp\n      swap1\n      div\n      0xff\n      and\n        /* \"AccessControl.sol\":566:671  if(patient[_address]) {... */\n      iszero\n      tag_27\n      jumpi\n        /* \"AccessControl.sol\":610:614  true */\n      0x01\n        /* \"AccessControl.sol\":603:614  return true */\n      swap1\n      pop\n      jump(tag_26)\n        /* \"AccessControl.sol\":566:671  if(patient[_address]) {... */\n    tag_27:\n        /* \"AccessControl.sol\":654:659  false */\n      0x00\n        /* \"AccessControl.sol\":647:659  return false */\n      swap1\n      pop\n        /* \"AccessControl.sol\":882:883  _ */\n    tag_26:\n        /* \"AccessControl.sol\":479:678  function verify(address _address) onlyAdmin public view returns(bool _bool) {... */\n      swap2\n      swap1\n      pop\n      jump\t// out\n        /* \"AccessControl.sol\":284:471  function addPatient(address _address) onlyAdmin public {... */\n    tag_18:\n        /* \"AccessControl.sol\":865:870  admin */\n      0x00\n      dup1\n      sload\n      swap1\n      0x0100\n      exp\n      swap1\n      div\n      0xffffffffffffffffffffffffffffffffffffffff\n      and\n        /* \"AccessControl.sol\":851:870  msg.sender == admin */\n      0xffffffffffffffffffffffffffffffffffffffff\n      and\n        /* \"AccessControl.sol\":851:861  msg.sender */\n      caller\n        /* \"AccessControl.sol\":851:870  msg.sender == admin */\n      0xffffffffffffffffffffffffffffffffffffffff\n      and\n      eq\n        /* \"AccessControl.sol\":843:871  require(msg.sender == admin) */\n      tag_30\n      jumpi\n      0x00\n      dup1\n      revert\n    tag_30:\n        /* \"AccessControl.sol\":355:362  patient */\n      0x02\n        /* \"AccessControl.sol\":355:372  patient[_address] */\n      0x00\n        /* \"AccessControl.sol\":363:371  _address */\n      dup3\n        /* \"AccessControl.sol\":355:372  patient[_address] */\n      0xffffffffffffffffffffffffffffffffffffffff\n      and\n      0xffffffffffffffffffffffffffffffffffffffff\n      and\n      dup2\n      mstore\n      0x20\n      add\n      swap1\n      dup2\n      mstore\n      0x20\n      add\n      0x00\n      keccak256\n      0x00\n      swap1\n      sload\n      swap1\n      0x0100\n      exp\n      swap1\n      div\n      0xff\n      and\n        /* \"AccessControl.sol\":350:464  if (!patient[_address]) {... */\n      tag_32\n      jumpi\n        /* \"AccessControl.sol\":409:413  true */\n      0x01\n        /* \"AccessControl.sol\":389:396  patient */\n      0x02\n        /* \"AccessControl.sol\":389:406  patient[_address] */\n      0x00\n        /* \"AccessControl.sol\":397:405  _address */\n      dup4\n        /* \"AccessControl.sol\":389:406  patient[_address] */\n      0xffffffffffffffffffffffffffffffffffffffff\n      and\n      0xffffffffffffffffffffffffffffffffffffffff\n      and\n      dup2\n      mstore\n      0x20\n      add\n      swap1\n      dup2\n      mstore\n      0x20\n      add\n      0x00\n      keccak256\n      0x00\n        /* \"AccessControl.sol\":389:413  patient[_address] = true */\n      0x0100\n      exp\n      dup2\n      sload\n      dup2\n      0xff\n      mul\n      not\n      and\n      swap1\n      dup4\n      iszero\n      iszero\n      mul\n      or\n      swap1\n      sstore\n      pop\n        /* \"AccessControl.sol\":428:436  patients */\n      0x01\n        /* \"AccessControl.sol\":442:450  _address */\n      dup2\n        /* \"AccessControl.sol\":428:451  patients.push(_address) */\n      swap1\n      dup1\n      0x01\n      dup2\n      sload\n      add\n      dup1\n      dup3\n      sstore\n      dup1\n      swap2\n      pop\n      pop\n      0x01\n      swap1\n      sub\n      swap1\n      0x00\n      mstore\n      keccak256(0x00, 0x20)\n      add\n      0x00\n      swap1\n      swap2\n      swap1\n      swap2\n      swap1\n      swap2\n      0x0100\n      exp\n      dup2\n      sload\n      dup2\n      0xffffffffffffffffffffffffffffffffffffffff\n      mul\n      not\n      and\n      swap1\n      dup4\n      0xffffffffffffffffffffffffffffffffffffffff\n      and\n      mul\n      or\n      swap1\n      sstore\n      pop\n        /* \"AccessControl.sol\":350:464  if (!patient[_address]) {... */\n    tag_32:\n        /* \"AccessControl.sol\":284:471  function addPatient(address _address) onlyAdmin public {... */\n      pop\n      jump\t// out\n        /* \"#utility.yul\":7:121   */\n    tag_34:\n        /* \"#utility.yul\":74:80   */\n      0x00\n        /* \"#utility.yul\":108:113   */\n      dup2\n        /* \"#utility.yul\":102:114   */\n      mload\n        /* \"#utility.yul\":92:114   */\n      swap1\n      pop\n        /* \"#utility.yul\":7:121   */\n      swap2\n      swap1\n      pop\n      jump\t// out\n        /* \"#utility.yul\":127:311   */\n    tag_35:\n        /* \"#utility.yul\":226:237   */\n      0x00\n        /* \"#utility.yul\":260:266   */\n      dup3\n        /* \"#utility.yul\":255:258   */\n      dup3\n        /* \"#utility.yul\":248:267   */\n      mstore\n        /* \"#utility.yul\":300:304   */\n      0x20\n        /* \"#utility.yul\":295:298   */\n      dup3\n        /* \"#utility.yul\":291:305   */\n      add\n        /* \"#utility.yul\":276:305   */\n      swap1\n      pop\n        /* \"#utility.yul\":127:311   */\n      swap3\n      swap2\n      pop\n      pop\n      jump\t// out\n        /* \"#utility.yul\":317:449   */\n    tag_36:\n        /* \"#utility.yul\":384:388   */\n      0x00\n        /* \"#utility.yul\":407:410   */\n      dup2\n        /* \"#utility.yul\":399:410   */\n      swap1\n      pop\n        /* \"#utility.yul\":437:441   */\n      0x20\n        /* \"#utility.yul\":432:435   */\n      dup3\n        /* \"#utility.yul\":428:442   */\n      add\n        /* \"#utility.yul\":420:442   */\n      swap1\n      pop\n        /* \"#utility.yul\":317:449   */\n      swap2\n      swap1\n      pop\n      jump\t// out\n        /* \"#utility.yul\":455:581   */\n    tag_37:\n        /* \"#utility.yul\":492:499   */\n      0x00\n        /* \"#utility.yul\":532:574   */\n      0xffffffffffffffffffffffffffffffffffffffff\n        /* \"#utility.yul\":525:530   */\n      dup3\n        /* \"#utility.yul\":521:575   */\n      and\n        /* \"#utility.yul\":510:575   */\n      swap1\n      pop\n        /* \"#utility.yul\":455:581   */\n      swap2\n      swap1\n      pop\n      jump\t// out\n        /* \"#utility.yul\":587:683   */\n    tag_38:\n        /* \"#utility.yul\":624:631   */\n      0x00\n        /* \"#utility.yul\":653:677   */\n      tag_56\n        /* \"#utility.yul\":671:676   */\n      dup3\n        /* \"#utility.yul\":653:677   */\n      tag_37\n      jump\t// in\n    tag_56:\n        /* \"#utility.yul\":642:677   */\n      swap1\n      pop\n        /* \"#utility.yul\":587:683   */\n      swap2\n      swap1\n      pop\n      jump\t// out\n        /* \"#utility.yul\":689:797   */\n    tag_39:\n        /* \"#utility.yul\":766:790   */\n      tag_58\n        /* \"#utility.yul\":784:789   */\n      dup2\n        /* \"#utility.yul\":766:790   */\n      tag_38\n      jump\t// in\n    tag_58:\n        /* \"#utility.yul\":761:764   */\n      dup3\n        /* \"#utility.yul\":754:791   */\n      mstore\n        /* \"#utility.yul\":689:797   */\n      pop\n      pop\n      jump\t// out\n        /* \"#utility.yul\":803:982   */\n    tag_40:\n        /* \"#utility.yul\":872:882   */\n      0x00\n        /* \"#utility.yul\":893:939   */\n      tag_60\n        /* \"#utility.yul\":935:938   */\n      dup4\n        /* \"#utility.yul\":927:933   */\n      dup4\n        /* \"#utility.yul\":893:939   */\n      tag_39\n      jump\t// in\n    tag_60:\n        /* \"#utility.yul\":971:975   */\n      0x20\n        /* \"#utility.yul\":966:969   */\n      dup4\n        /* \"#utility.yul\":962:976   */\n      add\n        /* \"#utility.yul\":948:976   */\n      swap1\n      pop\n        /* \"#utility.yul\":803:982   */\n      swap3\n      swap2\n      pop\n      pop\n      jump\t// out\n        /* \"#utility.yul\":988:1101   */\n    tag_41:\n        /* \"#utility.yul\":1058:1062   */\n      0x00\n        /* \"#utility.yul\":1090:1094   */\n      0x20\n        /* \"#utility.yul\":1085:1088   */\n      dup3\n        /* \"#utility.yul\":1081:1095   */\n      add\n        /* \"#utility.yul\":1073:1095   */\n      swap1\n      pop\n        /* \"#utility.yul\":988:1101   */\n      swap2\n      swap1\n      pop\n      jump\t// out\n        /* \"#utility.yul\":1137:1869   */\n    tag_42:\n        /* \"#utility.yul\":1256:1259   */\n      0x00\n        /* \"#utility.yul\":1285:1339   */\n      tag_63\n        /* \"#utility.yul\":1333:1338   */\n      dup3\n        /* \"#utility.yul\":1285:1339   */\n      tag_34\n      jump\t// in\n    tag_63:\n        /* \"#utility.yul\":1355:1441   */\n      tag_64\n        /* \"#utility.yul\":1434:1440   */\n      dup2\n        /* \"#utility.yul\":1429:1432   */\n      dup6\n        /* \"#utility.yul\":1355:1441   */\n      tag_35\n      jump\t// in\n    tag_64:\n        /* \"#utility.yul\":1348:1441   */\n      swap4\n      pop\n        /* \"#utility.yul\":1465:1521   */\n      tag_65\n        /* \"#utility.yul\":1515:1520   */\n      dup4\n        /* \"#utility.yul\":1465:1521   */\n      tag_36\n      jump\t// in\n    tag_65:\n        /* \"#utility.yul\":1544:1551   */\n      dup1\n        /* \"#utility.yul\":1575:1576   */\n      0x00\n        /* \"#utility.yul\":1560:1844   */\n    tag_66:\n        /* \"#utility.yul\":1585:1591   */\n      dup4\n        /* \"#utility.yul\":1582:1583   */\n      dup2\n        /* \"#utility.yul\":1579:1592   */\n      lt\n        /* \"#utility.yul\":1560:1844   */\n      iszero\n      tag_68\n      jumpi\n        /* \"#utility.yul\":1661:1667   */\n      dup2\n        /* \"#utility.yul\":1655:1668   */\n      mload\n        /* \"#utility.yul\":1688:1751   */\n      tag_69\n        /* \"#utility.yul\":1747:1750   */\n      dup9\n        /* \"#utility.yul\":1732:1745   */\n      dup3\n        /* \"#utility.yul\":1688:1751   */\n      tag_40\n      jump\t// in\n    tag_69:\n        /* \"#utility.yul\":1681:1751   */\n      swap8\n      pop\n        /* \"#utility.yul\":1774:1834   */\n      tag_70\n        /* \"#utility.yul\":1827:1833   */\n      dup4\n        /* \"#utility.yul\":1774:1834   */\n      tag_41\n      jump\t// in\n    tag_70:\n        /* \"#utility.yul\":1764:1834   */\n      swap3\n      pop\n        /* \"#utility.yul\":1620:1844   */\n      pop\n        /* \"#utility.yul\":1607:1608   */\n      0x01\n        /* \"#utility.yul\":1604:1605   */\n      dup2\n        /* \"#utility.yul\":1600:1609   */\n      add\n        /* \"#utility.yul\":1595:1609   */\n      swap1\n      pop\n        /* \"#utility.yul\":1560:1844   */\n      jump(tag_66)\n    tag_68:\n        /* \"#utility.yul\":1564:1578   */\n      pop\n        /* \"#utility.yul\":1860:1863   */\n      dup6\n        /* \"#utility.yul\":1853:1863   */\n      swap4\n      pop\n        /* \"#utility.yul\":1261:1869   */\n      pop\n      pop\n      pop\n        /* \"#utility.yul\":1137:1869   */\n      swap3\n      swap2\n      pop\n      pop\n      jump\t// out\n        /* \"#utility.yul\":1875:2248   */\n    tag_9:\n        /* \"#utility.yul\":2018:2022   */\n      0x00\n        /* \"#utility.yul\":2056:2058   */\n      0x20\n        /* \"#utility.yul\":2045:2054   */\n      dup3\n        /* \"#utility.yul\":2041:2059   */\n      add\n        /* \"#utility.yul\":2033:2059   */\n      swap1\n      pop\n        /* \"#utility.yul\":2105:2114   */\n      dup2\n        /* \"#utility.yul\":2099:2103   */\n      dup2\n        /* \"#utility.yul\":2095:2115   */\n      sub\n        /* \"#utility.yul\":2091:2092   */\n      0x00\n        /* \"#utility.yul\":2080:2089   */\n      dup4\n        /* \"#utility.yul\":2076:2093   */\n      add\n        /* \"#utility.yul\":2069:2116   */\n      mstore\n        /* \"#utility.yul\":2133:2241   */\n      tag_72\n        /* \"#utility.yul\":2236:2240   */\n      dup2\n        /* \"#utility.yul\":2227:2233   */\n      dup5\n        /* \"#utility.yul\":2133:2241   */\n      tag_42\n      jump\t// in\n    tag_72:\n        /* \"#utility.yul\":2125:2241   */\n      swap1\n      pop\n        /* \"#utility.yul\":1875:2248   */\n      swap3\n      swap2\n      pop\n      pop\n      jump\t// out\n        /* \"#utility.yul\":2335:2452   */\n    tag_44:\n        /* \"#utility.yul\":2444:2445   */\n      0x00\n        /* \"#utility.yul\":2441:2442   */\n      dup1\n        /* \"#utility.yul\":2434:2446   */\n      revert\n        /* \"#utility.yul\":2581:2703   */\n    tag_46:\n        /* \"#utility.yul\":2654:2678   */\n      tag_77\n        /* \"#utility.yul\":2672:2677   */\n      dup2\n        /* \"#utility.yul\":2654:2678   */\n      tag_38\n      jump\t// in\n    tag_77:\n        /* \"#utility.yul\":2647:2652   */\n      dup2\n        /* \"#utility.yul\":2644:2679   */\n      eq\n        /* \"#utility.yul\":2634:2697   */\n      tag_78\n      jumpi\n        /* \"#utility.yul\":2693:2694   */\n      0x00\n        /* \"#utility.yul\":2690:2691   */\n      dup1\n        /* \"#utility.yul\":2683:2695   */\n      revert\n        /* \"#utility.yul\":2634:2697   */\n    tag_78:\n        /* \"#utility.yul\":2581:2703   */\n      pop\n      jump\t// out\n        /* \"#utility.yul\":2709:2848   */\n    tag_47:\n        /* \"#utility.yul\":2755:2760   */\n      0x00\n        /* \"#utility.yul\":2793:2799   */\n      dup2\n        /* \"#utility.yul\":2780:2800   */\n      calldataload\n        /* \"#utility.yul\":2771:2800   */\n      swap1\n      pop\n        /* \"#utility.yul\":2809:2842   */\n      tag_80\n        /* \"#utility.yul\":2836:2841   */\n      dup2\n        /* \"#utility.yul\":2809:2842   */\n      tag_46\n      jump\t// in\n    tag_80:\n        /* \"#utility.yul\":2709:2848   */\n      swap3\n      swap2\n      pop\n      pop\n      jump\t// out\n        /* \"#utility.yul\":2854:3183   */\n    tag_12:\n        /* \"#utility.yul\":2913:2919   */\n      0x00\n        /* \"#utility.yul\":2962:2964   */\n      0x20\n        /* \"#utility.yul\":2950:2959   */\n      dup3\n        /* \"#utility.yul\":2941:2948   */\n      dup5\n        /* \"#utility.yul\":2937:2960   */\n      sub\n        /* \"#utility.yul\":2933:2965   */\n      slt\n        /* \"#utility.yul\":2930:3049   */\n      iszero\n      tag_82\n      jumpi\n        /* \"#utility.yul\":2968:3047   */\n      tag_83\n      tag_44\n      jump\t// in\n    tag_83:\n        /* \"#utility.yul\":2930:3049   */\n    tag_82:\n        /* \"#utility.yul\":3088:3089   */\n      0x00\n        /* \"#utility.yul\":3113:3166   */\n      tag_84\n        /* \"#utility.yul\":3158:3165   */\n      dup5\n        /* \"#utility.yul\":3149:3155   */\n      dup3\n        /* \"#utility.yul\":3138:3147   */\n      dup6\n        /* \"#utility.yul\":3134:3156   */\n      add\n        /* \"#utility.yul\":3113:3166   */\n      tag_47\n      jump\t// in\n    tag_84:\n        /* \"#utility.yul\":3103:3166   */\n      swap2\n      pop\n        /* \"#utility.yul\":3059:3176   */\n      pop\n        /* \"#utility.yul\":2854:3183   */\n      swap3\n      swap2\n      pop\n      pop\n      jump\t// out\n        /* \"#utility.yul\":3189:3279   */\n    tag_48:\n        /* \"#utility.yul\":3223:3230   */\n      0x00\n        /* \"#utility.yul\":3266:3271   */\n      dup2\n        /* \"#utility.yul\":3259:3272   */\n      iszero\n        /* \"#utility.yul\":3252:3273   */\n      iszero\n        /* \"#utility.yul\":3241:3273   */\n      swap1\n      pop\n        /* \"#utility.yul\":3189:3279   */\n      swap2\n      swap1\n      pop\n      jump\t// out\n        /* \"#utility.yul\":3285:3394   */\n    tag_49:\n        /* \"#utility.yul\":3366:3387   */\n      tag_87\n        /* \"#utility.yul\":3381:3386   */\n      dup2\n        /* \"#utility.yul\":3366:3387   */\n      tag_48\n      jump\t// in\n    tag_87:\n        /* \"#utility.yul\":3361:3364   */\n      dup3\n        /* \"#utility.yul\":3354:3388   */\n      mstore\n        /* \"#utility.yul\":3285:3394   */\n      pop\n      pop\n      jump\t// out\n        /* \"#utility.yul\":3400:3610   */\n    tag_15:\n        /* \"#utility.yul\":3487:3491   */\n      0x00\n        /* \"#utility.yul\":3525:3527   */\n      0x20\n        /* \"#utility.yul\":3514:3523   */\n      dup3\n        /* \"#utility.yul\":3510:3528   */\n      add\n        /* \"#utility.yul\":3502:3528   */\n      swap1\n      pop\n        /* \"#utility.yul\":3538:3603   */\n      tag_89\n        /* \"#utility.yul\":3600:3601   */\n      0x00\n        /* \"#utility.yul\":3589:3598   */\n      dup4\n        /* \"#utility.yul\":3585:3602   */\n      add\n        /* \"#utility.yul\":3576:3582   */\n      dup5\n        /* \"#utility.yul\":3538:3603   */\n      tag_49\n      jump\t// in\n    tag_89:\n        /* \"#utility.yul\":3400:3610   */\n      swap3\n      swap2\n      pop\n      pop\n      jump\t// out\n\n    auxdata: 0xa2646970667358221220daa2fa72fbb33bb351b8e51fd2ad3203f88fa78ce9551b19e6adfe2e63ee5eee64736f6c63430008110033\n}\n","bytecode":{"linkReferences":{},"object":"608060405234801561001057600080fd5b50336000806101000a81548173ffffffffffffffffffffffffffffffffffffffff021916908373ffffffffffffffffffffffffffffffffffffffff16021790555061059a806100606000396000f3fe608060405234801561001057600080fd5b50600436106100415760003560e01c806318a231a91461004657806363a9c3d7146100645780636d263ceb14610094575b600080fd5b61004e6100b0565b60405161005b91906104ae565b60405180910390f35b61007e60048036038101906100799190610501565b610196565b60405161008b9190610549565b60405180910390f35b6100ae60048036038101906100a99190610501565b610256565b005b606060008054906101000a900473ffffffffffffffffffffffffffffffffffffffff1673ffffffffffffffffffffffffffffffffffffffff163373ffffffffffffffffffffffffffffffffffffffff161461010a57600080fd5b600180548060200260200160405190810160405280929190818152602001828054801561018c57602002820191906000526020600020905b8160009054906101000a900473ffffffffffffffffffffffffffffffffffffffff1673ffffffffffffffffffffffffffffffffffffffff1681526020019060010190808311610142575b5050505050905090565b60008060009054906101000a900473ffffffffffffffffffffffffffffffffffffffff1673ffffffffffffffffffffffffffffffffffffffff163373ffffffffffffffffffffffffffffffffffffffff16146101f157600080fd5b600260008373ffffffffffffffffffffffffffffffffffffffff1673ffffffffffffffffffffffffffffffffffffffff16815260200190815260200160002060009054906101000a900460ff161561024c5760019050610251565b600090505b919050565b60008054906101000a900473ffffffffffffffffffffffffffffffffffffffff1673ffffffffffffffffffffffffffffffffffffffff163373ffffffffffffffffffffffffffffffffffffffff16146102ae57600080fd5b600260008273ffffffffffffffffffffffffffffffffffffffff1673ffffffffffffffffffffffffffffffffffffffff16815260200190815260200160002060009054906101000a900460ff166103bb576001600260008373ffffffffffffffffffffffffffffffffffffffff1673ffffffffffffffffffffffffffffffffffffffff16815260200190815260200160002060006101000a81548160ff0219169083151502179055506001819080600181540180825580915050600190039060005260206000200160009091909190916101000a81548173ffffffffffffffffffffffffffffffffffffffff021916908373ffffffffffffffffffffffffffffffffffffffff1602179055505b50565b600081519050919050565b600082825260208201905092915050565b6000819050602082019050919050565b600073ffffffffffffffffffffffffffffffffffffffff82169050919050565b6000610415826103ea565b9050919050565b6104258161040a565b82525050565b6000610437838361041c565b60208301905092915050565b6000602082019050919050565b600061045b826103be565b61046581856103c9565b9350610470836103da565b8060005b838110156104a1578151610488888261042b565b975061049383610443565b925050600181019050610474565b5085935050505092915050565b600060208201905081810360008301526104c88184610450565b905092915050565b600080fd5b6104de8161040a565b81146104e957600080fd5b50565b6000813590506104fb816104d5565b92915050565b600060208284031215610517576105166104d0565b5b6000610525848285016104ec565b91505092915050565b60008115159050919050565b6105438161052e565b82525050565b600060208201905061055e600083018461053a565b9291505056fea2646970667358221220daa2fa72fbb33bb351b8e51fd2ad3203f88fa78ce9551b19e6adfe2e63ee5eee64736f6c63430008110033","opcodes":"PUSH1 0x80 PUSH1 0x40 MSTORE CALLVALUE DUP1 ISZERO PUSH2 0x10 JUMPI PUSH1 0x0 DUP1 REVERT JUMPDEST POP CALLER PUSH1 0x0 DUP1 PUSH2 0x100 EXP DUP2 SLOAD DUP2 PUSH20 0xFFFFFFFFFFFFFFFFFFFFFFFFFFFFFFFFFFFFFFFF MUL NOT AND SWAP1 DUP4 PUSH20 0xFFFFFFFFFFFFFFFFFFFFFFFFFFFFFFFFFFFFFFFF AND MUL OR SWAP1 SSTORE POP PUSH2 0x59A DUP1 PUSH2 0x60 PUSH1 0x0 CODECOPY PUSH1 0x0 RETURN INVALID PUSH1 0x80 PUSH1 0x40 MSTORE CALLVALUE DUP1 ISZERO PUSH2 0x10 JUMPI PUSH1 0x0 DUP1 REVERT JUMPDEST POP PUSH1 0x4 CALLDATASIZE LT PUSH2 0x41 JUMPI PUSH1 0x0 CALLDATALOAD PUSH1 0xE0 SHR DUP1 PUSH4 0x18A231A9 EQ PUSH2 0x46 JUMPI DUP1 PUSH4 0x63A9C3D7 EQ PUSH2 0x64 JUMPI DUP1 PUSH4 0x6D263CEB EQ PUSH2 0x94 JUMPI JUMPDEST PUSH1 0x0 DUP1 REVERT JUMPDEST PUSH2 0x4E PUSH2 0xB0 JUMP JUMPDEST PUSH1 0x40 MLOAD PUSH2 0x5B SWAP2 SWAP1 PUSH2 0x4AE JUMP JUMPDEST PUSH1 0x40 MLOAD DUP1 SWAP2 SUB SWAP1 RETURN JUMPDEST PUSH2 0x7E PUSH1 0x4 DUP1 CALLDATASIZE SUB DUP2 ADD SWAP1 PUSH2 0x79 SWAP2 SWAP1 PUSH2 0x501 JUMP JUMPDEST PUSH2 0x196 JUMP JUMPDEST PUSH1 0x40 MLOAD PUSH2 0x8B SWAP2 SWAP1 PUSH2 0x549 JUMP JUMPDEST PUSH1 0x40 MLOAD DUP1 SWAP2 SUB SWAP1 RETURN JUMPDEST PUSH2 0xAE PUSH1 0x4 DUP1 CALLDATASIZE SUB DUP2 ADD SWAP1 PUSH2 0xA9 SWAP2 SWAP1 PUSH2 0x501 JUMP JUMPDEST PUSH2 0x256 JUMP JUMPDEST STOP JUMPDEST PUSH1 0x60 PUSH1 0x0 DUP1 SLOAD SWAP1 PUSH2 0x100 EXP SWAP1 DIV PUSH20 0xFFFFFFFFFFFFFFFFFFFFFFFFFFFFFFFFFFFFFFFF AND PUSH20 0xFFFFFFFFFFFFFFFFFFFFFFFFFFFFFFFFFFFFFFFF AND CALLER PUSH20 0xFFFFFFFFFFFFFFFFFFFFFFFFFFFFFFFFFFFFFFFF AND EQ PUSH2 0x10A JUMPI PUSH1 0x0 DUP1 REVERT JUMPDEST PUSH1 0x1 DUP1 SLOAD DUP1 PUSH1 0x20 MUL PUSH1 0x20 ADD PUSH1 0x40 MLOAD SWAP1 DUP2 ADD PUSH1 0x40 MSTORE DUP1 SWAP3 SWAP2 SWAP1 DUP2 DUP2 MSTORE PUSH1 0x20 ADD DUP3 DUP1 SLOAD DUP1 ISZERO PUSH2 0x18C JUMPI PUSH1 0x20 MUL DUP3 ADD SWAP2 SWAP1 PUSH1 0x0 MSTORE PUSH1 0x20 PUSH1 0x0 KECCAK256 SWAP1 JUMPDEST DUP2 PUSH1 0x0 SWAP1 SLOAD SWAP1 PUSH2 0x100 EXP SWAP1 DIV PUSH20 0xFFFFFFFFFFFFFFFFFFFFFFFFFFFFFFFFFFFFFFFF AND PUSH20 0xFFFFFFFFFFFFFFFFFFFFFFFFFFFFFFFFFFFFFFFF AND DUP2 MSTORE PUSH1 0x20 ADD SWAP1 PUSH1 0x1 ADD SWAP1 DUP1 DUP4 GT PUSH2 0x142 JUMPI JUMPDEST POP POP POP POP POP SWAP1 POP SWAP1 JUMP JUMPDEST PUSH1 0x0 DUP1 PUSH1 0x0 SWAP1 SLOAD SWAP1 PUSH2 0x100 EXP SWAP1 DIV PUSH20 0xFFFFFFFFFFFFFFFFFFFFFFFFFFFFFFFFFFFFFFFF AND PUSH20 0xFFFFFFFFFFFFFFFFFFFFFFFFFFFFFFFFFFFFFFFF AND CALLER PUSH20 0xFFFFFFFFFFFFFFFFFFFFFFFFFFFFFFFFFFFFFFFF AND EQ PUSH2 0x1F1 JUMPI PUSH1 0x0 DUP1 REVERT JUMPDEST PUSH1 0x2 PUSH1 0x0 DUP4 PUSH20 0xFFFFFFFFFFFFFFFFFFFFFFFFFFFFFFFFFFFFFFFF AND PUSH20 0xFFFFFFFFFFFFFFFFFFFFFFFFFFFFFFFFFFFFFFFF AND DUP2 MSTORE PUSH1 0x20 ADD SWAP1 DUP2 MSTORE PUSH1 0x20 ADD PUSH1 0x0 KECCAK256 PUSH1 0x0 SWAP1 SLOAD SWAP1 PUSH2 0x100 EXP SWAP1 DIV PUSH1 0xFF AND ISZERO PUSH2 0x24C JUMPI PUSH1 0x1 SWAP1 POP PUSH2 0x251 JUMP JUMPDEST PUSH1 0x0 SWAP1 POP JUMPDEST SWAP2 SWAP1 POP JUMP JUMPDEST PUSH1 0x0 DUP1 SLOAD SWAP1 PUSH2 0x100 EXP SWAP1 DIV PUSH20 0xFFFFFFFFFFFFFFFFFFFFFFFFFFFFFFFFFFFFFFFF AND PUSH20 0xFFFFFFFFFFFFFFFFFFFFFFFFFFFFFFFFFFFFFFFF AND CALLER PUSH20 0xFFFFFFFFFFFFFFFFFFFFFFFFFFFFFFFFFFFFFFFF AND EQ PUSH2 0x2AE JUMPI PUSH1 0x0 DUP1 REVERT JUMPDEST PUSH1 0x2 PUSH1 0x0 DUP3 PUSH20 0xFFFFFFFFFFFFFFFFFFFFFFFFFFFFFFFFFFFFFFFF AND PUSH20 0xFFFFFFFFFFFFFFFFFFFFFFFFFFFFFFFFFFFFFFFF AND DUP2 MSTORE PUSH1 0x20 ADD SWAP1 DUP2 MSTORE PUSH1 0x20 ADD PUSH1 0x0 KECCAK256 PUSH1 0x0 SWAP1 SLOAD SWAP1 PUSH2 0x100 EXP SWAP1 DIV PUSH1 0xFF AND PUSH2 0x3BB JUMPI PUSH1 0x1 PUSH1 0x2 PUSH1 0x0 DUP4 PUSH20 0xFFFFFFFFFFFFFFFFFFFFFFFFFFFFFFFFFFFFFFFF AND PUSH20 0xFFFFFFFFFFFFFFFFFFFFFFFFFFFFFFFFFFFFFFFF AND DUP2 MSTORE PUSH1 0x20 ADD SWAP1 DUP2 MSTORE PUSH1 0x20 ADD PUSH1 0x0 KECCAK256 PUSH1 0x0 PUSH2 0x100 EXP DUP2 SLOAD DUP2 PUSH1 0xFF MUL NOT AND SWAP1 DUP4 ISZERO ISZERO MUL OR SWAP1 SSTORE POP PUSH1 0x1 DUP2 SWAP1 DUP1 PUSH1 0x1 DUP2 SLOAD ADD DUP1 DUP3 SSTORE DUP1 SWAP2 POP POP PUSH1 0x1 SWAP1 SUB SWAP1 PUSH1 0x0 MSTORE PUSH1 0x20 PUSH1 0x0 KECCAK256 ADD PUSH1 0x0 SWAP1 SWAP2 SWAP1 SWAP2 SWAP1 SWAP2 PUSH2 0x100 EXP DUP2 SLOAD DUP2 PUSH20 0xFFFFFFFFFFFFFFFFFFFFFFFFFFFFFFFFFFFFFFFF MUL NOT AND SWAP1 DUP4 PUSH20 0xFFFFFFFFFFFFFFFFFFFFFFFFFFFFFFFFFFFFFFFF AND MUL OR SWAP1 SSTORE POP JUMPDEST POP JUMP JUMPDEST PUSH1 0x0 DUP2 MLOAD SWAP1 POP SWAP2 SWAP1 POP JUMP JUMPDEST PUSH1 0x0 DUP3 DUP3 MSTORE PUSH1 0x20 DUP3 ADD SWAP1 POP SWAP3 SWAP2 POP POP JUMP JUMPDEST PUSH1 0x0 DUP2 SWAP1 POP PUSH1 0x20 DUP3 ADD SWAP1 POP SWAP2 SWAP1 POP JUMP JUMPDEST PUSH1 0x0 PUSH20 0xFFFFFFFFFFFFFFFFFFFFFFFFFFFFFFFFFFFFFFFF DUP3 AND SWAP1 POP SWAP2 SWAP1 POP JUMP JUMPDEST PUSH1 0x0 PUSH2 0x415 DUP3 PUSH2 0x3EA JUMP JUMPDEST SWAP1 POP SWAP2 SWAP1 POP JUMP JUMPDEST PUSH2 0x425 DUP2 PUSH2 0x40A JUMP JUMPDEST DUP3 MSTORE POP POP JUMP JUMPDEST PUSH1 0x0 PUSH2 0x437 DUP4 DUP4 PUSH2 0x41C JUMP JUMPDEST PUSH1 0x20 DUP4 ADD SWAP1 POP SWAP3 SWAP2 POP POP JUMP JUMPDEST PUSH1 0x0 PUSH1 0x20 DUP3 ADD SWAP1 POP SWAP2 SWAP1 POP JUMP JUMPDEST PUSH1 0x0 PUSH2 0x45B DUP3 PUSH2 0x3BE JUMP JUMPDEST PUSH2 0x465 DUP2 DUP6 PUSH2 0x3C9 JUMP JUMPDEST SWAP4 POP PUSH2 0x470 DUP4 PUSH2 0x3DA JUMP JUMPDEST DUP1 PUSH1 0x0 JUMPDEST DUP4 DUP2 LT ISZERO PUSH2 0x4A1 JUMPI DUP2 MLOAD PUSH2 0x488 DUP9 DUP3 PUSH2 0x42B JUMP JUMPDEST SWAP8 POP PUSH2 0x493 DUP4 PUSH2 0x443 JUMP JUMPDEST SWAP3 POP POP PUSH1 0x1 DUP2 ADD SWAP1 POP PUSH2 0x474 JUMP JUMPDEST POP DUP6 SWAP4 POP POP POP POP SWAP3 SWAP2 POP POP JUMP JUMPDEST PUSH1 0x0 PUSH1 0x20 DUP3 ADD SWAP1 POP DUP2 DUP2 SUB PUSH1 0x0 DUP4 ADD MSTORE PUSH2 0x4C8 DUP2 DUP5 PUSH2 0x450 JUMP JUMPDEST SWAP1 POP SWAP3 SWAP2 POP POP JUMP JUMPDEST PUSH1 0x0 DUP1 REVERT JUMPDEST PUSH2 0x4DE DUP2 PUSH2 0x40A JUMP JUMPDEST DUP2 EQ PUSH2 0x4E9 JUMPI PUSH1 0x0 DUP1 REVERT JUMPDEST POP JUMP JUMPDEST PUSH1 0x0 DUP2 CALLDATALOAD SWAP1 POP PUSH2 0x4FB DUP2 PUSH2 0x4D5 JUMP JUMPDEST SWAP3 SWAP2 POP POP JUMP JUMPDEST PUSH1 0x0 PUSH1 0x20 DUP3 DUP5 SUB SLT ISZERO PUSH2 0x517 JUMPI PUSH2 0x516 PUSH2 0x4D0 JUMP JUMPDEST JUMPDEST PUSH1 0x0 PUSH2 0x525 DUP5 DUP3 DUP6 ADD PUSH2 0x4EC JUMP JUMPDEST SWAP2 POP POP SWAP3 SWAP2 POP POP JUMP JUMPDEST PUSH1 0x0 DUP2 ISZERO ISZERO SWAP1 POP SWAP2 SWAP1 POP JUMP JUMPDEST PUSH2 0x543 DUP2 PUSH2 0x52E JUMP JUMPDEST DUP3 MSTORE POP POP JUMP JUMPDEST PUSH1 0x0 PUSH1 0x20 DUP3 ADD SWAP1 POP PUSH2 0x55E PUSH1 0x0 DUP4 ADD DUP5 PUSH2 0x53A JUMP JUMPDEST SWAP3 SWAP2 POP POP JUMP INVALID LOG2 PUSH5 0x6970667358 0x22 SLT KECCAK256 0xDA LOG2 STATICCALL PUSH19 0xFBB33BB351B8E51FD2AD3203F88FA78CE9551B NOT 0xE6 0xAD INVALID 0x2E PUSH4 0xEE5EEE64 PUSH20 0x6F6C634300081100330000000000000000000000 "},"gasEstimates":{"creation":{"codeDepositCost":"286800","executionCost":"24590","totalCost":"311390"},"external":{"addPatient(address)":"77823","getAllPatients()":"infinite","verify(address)":"5084"}},"methodIdentifiers":{"addPatient(address)":"6d263ceb","getAllPatients()":"18a231a9","verify(address)":"63a9c3d7"}},"storageLayout":{"storage":[{"astId":3,"contract":"AccessControl.sol:PatientVerificator","label":"admin","offset":0,"slot":"0","type":"t_address"},{"astId":6,"contract":"AccessControl.sol:PatientVerificator","label":"patients","offset":0,"slot":"1","type":"t_array(t_address)dyn_storage"},{"astId":10,"contract":"AccessControl.sol:PatientVerificator","label":"patient","offset":0,"slot":"2","type":"t_mapping(t_address,t_bool)"}],"types":{"t_address":{"encoding":"inplace","label":"address","numberOfBytes":"20"},"t_array(t_address)dyn_storage":{"base":"t_address","encoding":"dynamic_array","label":"address[]","numberOfBytes":"32"},"t_bool":{"encoding":"inplace","label":"bool","numberOfBytes":"1"},"t_mapping(t_address,t_bool)":{"encoding":"mapping","key":"t_address","label":"mapping(address => bool)","numberOfBytes":"32","value":"t_bool"}}},"userdoc":{"kind":"user","methods":{},"version":1}}